:020000040800F2
:10000000501800200101000859410008C5370008B8
:10001000713A00086D090008D16D00080000000069
:10002000000000000000000000000000096200085D
:1000300059140008000000005B410008AD6700088B
:100040001B0100081B0100081B0100081B01000820
:100050001B0100081B0100081B0100081B01000810
:100060001B0100081B0100081B0100081B01000800
:100070001B0100081B0100080114000819140008E6
:100080001B0100081B0100081B0100081B010008E0
:100090001B0100081B0100081B0100085D1400087B
:1000A0001B0100081B0100081B0100081B010008C0
:1000B0001B0100089D6800081B0100081B010008C7
:1000C0001B0100081B0100081B0100081B010008A0
:1000D0001B010008996D00081B0100081B010008A6
:1000E0001B0100081B0100081B010008DFF80CD0F1
:1000F00000F00CFB00480047757200085018002003
:100100000648804706480047FEE7FEE7FEE7FEE7B1
:10011000FEE7FEE7FEE7FEE7FEE7FEE751680008C0
:10012000ED00000840EA01039B0703D009E008C97D
:10013000121F08C0042AFAD203E011F8013B00F8AC
:10014000013B521EF9D27047D2B201E000F8012BF8
:10015000491EFBD270470022F6E710B513460A4647
:1001600004461946FFF7F0FF204610BD421C10F868
:10017000011B0029FBD1801A704780EA010210B5EB
:1001800002F00043400022D04A001FD0010E01EBD4
:100190001261C0F35600C2F3560240F4000042F46C
:1001A0000002A0FB022000047F39140400D0401C90
:1001B00050EA124001D44000491EC2B20C0604EBC2
:1001C000D010401C4008802A02D003E0002010BD5F
:1001D00020F00100002900DA0020184310BD30B4DF
:1001E00080EA010202F0004530F0004221F00040B8
:1001F00013D090B1C30DD40DC2F31601C0F3160095
:10020000E41A41F4000140F400027D34914201D32C
:10021000641C00E04900002C02DA30BC002070476A
:100220004FF400000023914201D3891A0343400890
:100230004FEA4101F7D151B1914202D14FF0004153
:1002400005E002D24FF0010101E06FF0010103EB84
:10025000C450284430BC00F069B8C10F80EAE07097
:100260000844CA079623002100F069B800F0004254
:1002700020F00040C10DC0F3160040F400007F29BB
:1002800001DA00207047962903DCC1F19601C840CD
:1002900001E096398840002AF4D04042704730B5DA
:1002A0000B46014600202022012409E021FA02F534
:1002B0009D4205D303FA02F5491B04FA02F52844CE
:1002C000151EA2F10102F1DC30BD2DE9F05F0546FB
:1002D000002092469B4688460646814640241BE005
:1002E000284641464746224600F031FA53465A46D0
:1002F000C01A914110D311461846224600F018FA50
:100300002D1A67EB01084F4622460120002100F01C
:100310000FFA17EB00094E41201EA4F10104DFDCA7
:10032000484631462A464346BDE8F09F0029A8BF0B
:100330007047401C490008BF20F00100704710B40E
:10034000B0FA80FC00FA0CF050EA010404BF10BCC3
:10035000704749B1CCF1200421FA04F411FA0CF1F0
:1003600018BF012121430843A3EB0C01CB1D4FEA29
:1003700000614FEA102042BF002010BC704700EB24
:10038000C35010440029A4BF10BC7047401C490052
:1003900008BF20F0010010BC70472DE9FE4F8046D9
:1003A00081EA0300C00F0C46009021F0004123F0C9
:1003B0000045B8EB0200A94105D2404621469046CF
:1003C0001C460B46024623F00040104347D0270D41
:1003D000C7F30A00C3F30A510290401A0190402863
:1003E0006BDAC3F3130040F4801B0098924620B1EF
:1003F0000023D2EB030A63EB0B0B01985946C0F1C3
:100400004002504600F094F906460D4650465946C3
:10041000019A00F0ACF910EB08006141002487EA72
:10042000115284EAE7731A4340D0009A62B3019AEA
:10043000012A4FEA075215DC001B61EB02014FF065
:10044000004202EA0752CDE90042001C41F580114A
:1004500032462B4600F0ACF903B0BDE8F08F4046C1
:100460002146F9E7001B61EB0201001C41F58013F6
:1004700000185B412018A2F5001747EB030140EA82
:10048000D570B6196D4111E06D084FEA360645EAA0
:10049000C0754FEA0752001B61EB0201001C41F5D9
:1004A000801149084FEA30000019514132462B466D
:1004B00003B0BDE8F04F00F06CB900980122400095
:1004C0000023D0EB020263EBE073009821464FEA71
:1004D000E074B8EB000061EB0401E9E783F000434E
:1004E0005BE781F0004158E72DE9FE4F81EA030404
:1004F00004F0004421F0004100944FF0000B23F081
:10050000004350EA01045ED052EA03045BD0C3F317
:100510000A54C1F30A552C44A4F2F3340194A0FB0D
:100520000254C1F3130141F48011C3F3130343F4E4
:10053000801301FB024400FB034E840A970A44EA3D
:10054000815447EA8357A4FB076802958D0A05FB8F
:1005500007854FEA932C04FB0C542705029D4FEAB4
:10056000065847EA1637B5EB08056EEB070C870E01
:10057000920E47EA811742EA8312A7FB0201B6EB0B
:100580000B0164EB00042B0D43EA0C335E1844EBC3
:100590001C50DA465146E7FB0201C5F313044FEA4B
:1005A0000B3343EA14534FEA0432019C43EA060337
:1005B000A4F10C040294009CCDE900B400F0F8F81A
:1005C00003B0BDE8F08F00200146F9E72DE9F04DBA
:1005D00081EA030404F0004B21F0004514464FF07B
:1005E000000A23F0004150EA050220D054EA01023B
:1005F0001DD0C5F30A570246C5F31303C1F3130018
:10060000C1F30A5640F4801543F48013A7EB0608A3
:10061000101BD64608F2FD3873EB050002D308F133
:10062000010801E092185B41B8F1000F03DA0020E5
:100630000146BDE8F08D00204FF480110646844647
:100640000EE0171B73EB050705D3121B63EB0503C5
:1006500006434CEA010C49084FEA300092185B410E
:1006600050EA0107EDD152EA030012D082EA0400F9
:1006700083EA0501084305D0101BAB4106D20122D5
:10068000002306E000224FF0004302E06FF0010279
:1006900053101AEB06004CEB085110EB0A0041EB2B
:1006A0000B01BDE8F04D00F074B8C1F30A52C1F37C
:1006B000130140F2FF3341F480119A4202DA002024
:1006C0000146704740F233439A42A2F2334202DCC1
:1006D000524200F03CB800F02BB8000030B5041EC8
:1006E00071F1000404DB4FF00044404264EB01016F
:1006F000141E73F1000405DB1C464FF00043524208
:1007000063EB0403994208BF904230BD064C074D8D
:1007100006E0E06840F0010394E8070098471034D1
:10072000AC42F6D3FFF7E6FC14A8000834A8000892
:10073000202A04DB203A00FA02F1002070479140A1
:10074000C2F1200320FA03F3194390407047202A96
:1007500004DB203A21FA02F00021704721FA02F36B
:10076000D040C2F120029140084319467047202A28
:1007700006DBCB17203A41FA02F043EAE07306E0C9
:1007800041FA02F3D040C2F12002914008431946D9
:10079000704710B5141E73F1000408DA401C41F1D3
:1007A000000192185B411A4301D120F0010010BDF5
:1007B0002DE9F04D92469B4611B1B1FA81F202E06B
:1007C000B0FA80F220329046FFF7B2FF04460F469F
:1007D00040EA0A0041EA0B0153465A46084313D047
:1007E000114653EA010019D0C8F140025046FFF704
:1007F000AEFF05460E46504659464246FFF798FF63
:10080000084305D0012004E020463946BDE8F08DBC
:100810000020054346EAE0762C4337430A986305F7
:10082000E40AA0EB08000022FD0A44EA47540A301B
:1008300002D500200146E9E7010510196941DDE90B
:10084000084500196941BDE8F04DA2E7B0B504467E
:1008500000688168C90719D0816821F001018160B1
:1008600001F0D4FD054620688068C0070ED001F075
:10087000CDFD401B0328F6D3A06A40F01000A06213
:10088000E06A40F00100E0620120B0BD0020B0BD90
:100890000146406A826A12F0500F03D0006A026B70
:1008A000084610470168826A42F4007282628968D1
:1008B00001F46021B1F5602F18BF01F019B9017B77
:1008C00009B101F015B9816A21F480718162816AF0
:1008D000C9045EBF816A41F00101816201F008B97B
:1008E000406A816A41F040018162C16A41F00401BD
:1008F000C16201F0FFB8406A01F0FBB8BCB5044624
:100900000020019021688A68D20729D1886840F0C8
:1009100001008860134814490068B0FBF1F001E061
:1009200001980138019001980028F9D101F06EFD7D
:10093000054620688068C00711D101F067FD401BA3
:100940000328F6D3A06A40F01000A062002084F8CB
:100950002400E06A40F00100E062012000E0002095
:1009600002B0B0BD1000002040420F00FEE70000C2
:1009700080B503F09DFC3D4900200022032A08BFFA
:1009800080BD01EBC20321F8320001325860F5E767
:1009900002288FBF0020354901EBC0004078704726
:1009A000012805D002281CBF00207047042001E068
:1009B0004FF48050034909680840B0FA80F04009BC
:1009C000704700BF080C01402DE9F84F274E044640
:1009D00000254FF0050B03274FF007084FF00209E1
:1009E0004FF0000ABAF1030F08BFBDE8F88F1FFAF5
:1009F0008AF0FFF7D5FF06F83A0006EBCA014A78FD
:100A0000072A30D8DFE802F00609111B210426046A
:100A10004D7028E038B301200FE0F8B14868204459
:100A2000152848601FD3042007E0C8B14868204457
:100A3000B0F57A7F486016D90620487012E0002889
:100A40000CBF81F801804F700DE00028E0D081F8E4
:100A5000019007E00028DBD04F7003E04D7001E00B
:100A600081F801B04D600AF1010ABBE74C04002097
:100A7000F8B5B54C00250AE004EB45064FF480427A
:100A8000B6F8C411708E00F081FC70860135C92D56
:100A9000F2D1B4F8C001658E291AB1F5005FC8BF64
:100AA000A1F5804111F5005FB8BF01F58041002933
:100AB00059D04FF00000484F4FF01A03C8BF012033
:100AC00084F856031EE034F81300AEB2851BB5F56A
:100AD000005FC8BFA5F58045BD42B8BF05F580459C
:100AE000002D2E4648BF6E427A2E3EDA272E3CDD80
:100AF000EDB3012D02DB002902DC38E0012936DAF2
:100B000001330546A3F11902C72ADCD9334800296D
:100B100031DD0021C82243F6FF7C4FF0000E01F1C9
:100B2000C90501F1C803C8294ED0B5FBF2F601355D
:100B300006FB00F7B3FBF2F6013346432744264495
:100B400007EB410706EB4106B7F8C4710131B6F86F
:100B5000C261B742E7D2ACEB06034D1E0EF1010EA7
:100B6000C4E9D653DBE7012033E0022000E0012096
:100B700060706260F8BD0021C82243F6FF7C4FF030
:100B8000000E01F1C90501F1C803C8291CD0B5FB4D
:100B9000F2F6B3FBF2F701350133464347432644EF
:100BA000274406EB410607EB41070131B6F8C46163
:100BB000B7F8C271BE42E8D90EF1010EACEB0603E4
:100BC0004D1EC4E9D653DCE7BEF1010F0CBF002077
:100BD00003206070F8BD00BF00E0FFFF70FEFFFF64
:100BE00059480021416001800172C160C0E9D611FD
:100BF000C0F86013704700BFB0B5534D287A06287F
:100C000000F29A80DFE800F0041728525F6C990028
:100C10002878002800F09080E8684FF4FA6103F02B
:100C2000F7FC00204FF448412882E9600121297235
:100C300068706860B0BDE8684FF4FA610230E8603F
:100C400003F0E6FCE868B0F5C83F75D102202872D1
:100C50004FF44840E860B0BDEC68200619D1F24A74
:100C6000288A1288411C05EB40002982428288B202
:100C7000102810D105F1120010214FF4804200F02D
:100C800097FBA4F54841090A05EB4101488600207D
:100C900028820134EC6020464FF4FA6103F0B8FC7E
:100CA000E868B0F5C83F47D9032044E0E8684FF44E
:100CB000FA610130E86003F0ABFCE868B0F5D23FC0
:100CC0003AD1042037E0E8684FF4FA610138E8606F
:100CD00003F09EFCE868B0F5C83F2DD105202AE05E
:100CE000EC6820061AD1D04A288A1288411C05EBEC
:100CF00040002982428288B2102811D105F11200E9
:100D000010214FF4804200F053FBA4F54841090A3A
:100D100005EB4101A1F8C40100202882013CEC60F0
:100D200020464FF4FA6103F073FCE868C00A182803
:100D300088BFB0BD06202872B0BD00200021BDE8EC
:100D4000B04003F065BC00BF800400202DE9FE4FD9
:100D5000DFF8C8B29BF80800062818BFBDE8FE8F70
:100D600003F0B8FCFFF784FE9BF80100002840F078
:100D70004181AB4C0020CBF86003204605F0C2FC5B
:100D8000204605F0B7FC9BF85613DBF85803002902
:100D900000F08E800BF132014FF4484A0DF10A0940
:100DA000009101467EE001F1C802C826009DB2FB19
:100DB000F6F303FB162201F1C903B3FBF6F735F88E
:100DC000122007FB163335F813309C1A954AB4F5F8
:100DD000005FC8BFA4F58044944201F10102B8BF8E
:100DE00004F58044814201921ED1DBF85C630AEB7A
:100DF0000025370215E097FBF4F001222844B0FBF0
:100E0000FAF101FB1A004946ADF80A00844805F0E2
:100E1000ADFCDBF8600307F5807701360130CBF8D5
:100E20006003A642E7DB3AE0C8300AEB0128002560
:100E30000026814216D030E095FBF4F001224044B8
:100E4000B0FBFAF101FB1A004946ADF80A007448FC
:100E500005F08CFCDBF8600305F580750136013088
:100E6000CBF86003DBF85C038642E5DB17E095FB1B
:100E7000F4F001224044B0FBFAF101FB1A004946AC
:100E8000ADF80A00664805F071FCDBF8600305F573
:100E9000807501360130CBF86003A642E7DBDBF852
:100EA0005803019900F1C9029142FFF67CAF8FE02F
:100EB0000BF1320100F1C8074FF4484A0DF10A095D
:100EC000009182E007F1C901C826009DB1FBF6F24E
:100ED00002FB161107F1C802B2FBF6F335F8111048
:100EE00003FB162235F81220541A4E4900F1C802AD
:100EF000B4F5005FC8BFA4F580448C4207F101013E
:100F0000B8BF04F58044974201971ED1DBF85C63BB
:100F10000AEB0125370215E097FBF4F00122281AAD
:100F2000B0FBFAF101FB1A004946ADF80A003C4853
:100F300005F01CFCDBF8600307F580770136013013
:100F4000CBF86003A642E7DB3BE00AEB0128002573
:100F50000026874217D032E095FBF4F00122A8EB7F
:100F60000000B0FBFAF101FB1A004946ADF80A0097
:100F70002B4805F0FBFBDBF8600305F580750136B7
:100F80000130CBF86003DBF85C038642E4DB18E059
:100F900095FBF4F00122A8EB0000B0FBFAF101FB95
:100FA0001A004946ADF80A001D4805F0DFFBDBF8E2
:100FB000600305F5807501360130CBF86003A64269
:100FC000E6DB019FDBF85803013F8742BFF67AAFAB
:100FD000134805F0C9FBDBF86003B0F5804F06D17C
:100FE0009BF8010030B910480121017108E004208C
:100FF0008BF801000C4800210171094805F082FBC3
:1010000005F06CF9A349002001228BF808008BF849
:10101000000081F85820BDE8FE8F00BF800400204A
:101020001400002000E0FFFFDA000020994A01468A
:1010300001291065906A02DB00F5807003E0002949
:1010400018BFA0F58070D06403F0E2BA904890F821
:10105000401021B9012180F84010C821416490F866
:10106000411021B9012180F841105021816490F88C
:10107000421029B9012180F842104FF49671C164E1
:1010800090F8431021B9012180F84310FA2101653D
:1010900080B554302021FFF75EF880BD2DE9F04186
:1010A000DFF8F0C10246384BDCF81C70DCF8280091
:1010B000141ACD1B764AE911B4F5486FC2E91541FF
:1010C00002DD4FF4486703E014F5486F1F4601DA6C
:1010D0003C4657652D4EB54202DD4FF47A6104E07F
:1010E00015F5FA2F02DAA3F548719165D2E9117668
:1010F0009846D36C156E04FB07FEC2F85CE0976E51
:1011000006FB047401FB034303F07F04DE11C2E914
:101110001A46624C05EBE3165F4B1666A64202DCEC
:101120009E421C4601DA26461466146D04FB01F546
:1011300004FB01E15A4C0E445566B112A6421167F8
:1011400005DB40F6B831CCF8501011670EE09E4236
:1011500007DA08F1C801A0F58070CCF850101167CB
:1011600006E0B6F5806FCCF8501007DB00F5807014
:10117000CCF84C00BDE8F04103F04ABAB6F1FF3FAD
:10118000D8BFA0F58070F3E780F3FFFF7FD00700A2
:101190003F48017C19B90121017405214161417C5D
:1011A00019B9012141741E218161817C19B9012184
:1011B00081740021C16180B520302021FEF7CBFF72
:1011C00080BD00BFF0B5324BDFF8C8C0D3E905647D
:1011D000DCF81C20196ADD6A821A2F485962B2F5C0
:1011E000801F8646A8BF4FF4801200F5F710824298
:1011F000D8BF024602FB06F01A6298625E6B02FBE1
:1012000004642646A71205EBA4246FF39F26C3E9C6
:101210000D67224EDC62B44202DC7646744501DA88
:101220003446DE62511ADA6902FB010002FB01F763
:1012300002191B481F6391128242D96305DB40F6F5
:10124000B831CCF85010D9630FE0724508DA15496F
:10125000CCF85010D963DCF82800A0F5807008E0C5
:10126000B2F5806FCCF8501009DBDCF8280000F5EF
:101270008070CCF84C00BDE8F04003F0C9B9DCF850
:101280002800B2F1FF3FD8BFA0F58070F1E700BFA2
:1012900044010020380A00200020D1FF00E02E0089
:1012A00000E42E0048F4FFFF80B5DFF8DCC0DCF876
:1012B0001420811A48D0DCF81030012910DB002AF4
:1012C0001FDBDCF8041044F6206E194491FBFEF39A
:1012D0001A4403FB1E118242CCE9041231DA36E0D3
:1012E000002A20DDDCF80C0044F62061181A90FB7F
:1012F000F1F31A4403FB1100002ACCE9040226DCB6
:101300000DE0DCF80C0044F62061184490FBF1F38A
:101310001A4403FB1100002ACCE9040217DB002267
:10132000CCE9042213E0DCF8041044F6206E591ACC
:1013300091FBFEF31A4403FB1E118242CCE9041216
:1013400005DC0021CCF81010CCF814000246CCF8D3
:10135000182080BD0C48017821B90121017041F2AB
:1013600070714160017A21B90121017241F27071FD
:10137000C1600021C0E90411816170470249002267
:10138000C1E90420704700BF6404002003460844FC
:10139000591A4FEA600048BF4942B1EB620FD8BF0B
:1013A000704751108842A4BF401A704708447047E4
:1013B0002DE9F043B0F800E0C2F100094FEA620CF9
:1013C00001254FEA690876460EE030F815704B4665
:1013D0000135A7EB0E046445D8BF0023444506EB56
:1013E0000704B8BF1346E6188D42EED396FBF1F121
:1013F0000029B8BF1144881AD8BF0846BDE8F08359
:1014000080B5044800F0E6FC1D4801690131016126
:1014100080BD00BF6C08002080B5044800F0DAFCF5
:10142000174841690131416180BD00BF2808002093
:1014300010B5D0E90FCE012404FA0EF4CCF8044024
:101440000468636040681028084608BF1046A06022
:1014500008BF0A46E26010BD7047000007480168F7
:10146000090606D580B58021016004F005FFBDE8BE
:101470008040034881680131816070471404014055
:101480003C0200207047000020480021C1610C4848
:10149000016841F004010160016841F04001016010
:1014A000704700BF19490022CA6105490A6842F025
:1014B00002020A604860086840F040000860704717
:1014C0001020024027480168C90601D4002105E028
:1014D0000E49CA6942F00202CA611021026852072D
:1014E00006D50A4A41F00401D36943F00103D361F0
:1014F0000269D20708D0054AD36943F00403D361D7
:10150000026922F00102026101607047F80D0020BB
:10151000F8B5144E044600F079FF0546671C3068A4
:10152000C00709D0002FFAD024B100F06FFF401B94
:10153000A042F4D9032012E03068800644BF202086
:1015400030603068C00607D43069C00704D1306805
:10155000400701D4002002E0FFF7B4FF012001B0F2
:10156000F0BD00BF0C20024000210022042A08BF69
:101570007047002301E0C1540133802BFBD1803040
:101580000132F3E72DE9F04F85B004900C46174681
:101590000E991E1B4FEAE6798D1A08460191E8174D
:1015A000002DC8BF0120002E03900293C8BF4FF04A
:1015B0000109002D184600D56D42002E00D5764257
:1015C000DDF83CA0AE4225DA049821463A4653465F
:1015D00000F050F83046C5EB46068346401B4FEA04
:1015E000400812E0039835045346002D0744A8BF75
:1015F0004C440498FAB2E1B200F03CF8002D4046A9
:1016000031B2B8BF4FEA4B0046180199F8B2884290
:10161000E8D126E0049821463A46534600F02AF8DD
:10162000A81BC6EB4508460017E0AB464FEA084545
:1016300003984C445346002DE1B2A8BF07440498D8
:10164000FAB200F017F8002D30460FFA88F15D4627
:10165000B8BF4FEA4B0000EB01080299E0B28842A4
:10166000E3D10498DDE90121534605B0BDE8F04F10
:10167000AFF300804FFA81FCBCF1000F19DB1F2A89
:1016800088BF704780B502F0070C4FF0010E02F0E2
:10169000F802002B0EFA0CFC01EB021E10F80E20D3
:1016A00022EA0C0118BF42EA0C0100F80E10BDE856
:1016B000804070472DE9F04F8BB0064614981446D1
:1016C0000691421E032A05D8DFE802F00206090C43
:1016D000082102E0002007E00C21062004E0102190
:1016E000082001E018210C2007901598203B0027C6
:1016F0004FF001080592049380F001052E4800EB9D
:1017000003100390080604BF0BB0BDE8F08FC8B209
:1017100002910023082828BF08215FFA81FB01916C
:101720003FE0032A1DD8DFE802F002090E120498F8
:10173000234900EB400001EB40000EE004981F49F4
:1017400000EB400007E00399B8B2084407E00498B2
:10175000184900EBC00001EB8000B9B208440078E2
:10176000089006980A970027099303EB000A089847
:101770005FFA80F90EE008FA07F1E01911EA090FA3
:10178000C2B25FFA8AF130460CBF2B46159BFFF7B9
:1017900071FF01375F45EED3099B0A9F059A01331C
:1017A00001370799D8B28142BBD8DDE90101091A96
:1017B0000444A7E712910008228B0008AE860008B7
:1017C000748400082DE9F04786B00E9F14460D463C
:1017D00006460B2F28BF0B27DDE90FA9A3B10DF19A
:1017E0000C0815A11A46404605F066FD4FF0FF3182
:1017F00001EB0060124988421AD8A8EB0700CDE936
:1018000000A900F10B030EE0002103A8202201E053
:10181000425401310A29FBD130210B30ADF81610AA
:10182000CDE900A9C31B30462946224600F056F8F0
:1018300006B0BDE8F08700BF2531312E6C6900008D
:10184000FEFFFF0C2DE9F04F87B0074612981546B2
:10185000109A039100214FF0010A049380F00104D3
:10186000100604BF07B0BDE8F08FD0B201920B465E
:10187000082828BF0822029100925FFA82FB00220A
:101880001FE00398119900260692059302EB0009C8
:1018900098B211F800800EE00AFA06F1A81911EAD0
:1018A000080FC2B25FFA89F138460CBF2346129B7B
:1018B000FFF7E0FE01365E45EED3069A059B013246
:1018C00001330499D0B28842DBD3DDE900020299EA
:1018D000121A054404980144C2E700002DE9FC47B0
:1018E000DDE90A981C4692460E460746A9F1010515
:1018F0002378A3F12000C0B25E2888BFBDE8FC8732
:10190000F1B238465246CDE90098FFF7D3FE032DD9
:1019100008D8DFE805F002020406063602E00836C1
:1019200000E00C360134E3E77CB50446002001906A
:1019300094F82400012801D1022551E0012084F807
:1019400024002046FEF782FF0546002845D1A06A04
:1019500041F2021188430230A06263480668022007
:1019600000F002FEB6FBF0F0400001E00198013803
:10197000019001980028F9D12046FEF7BFFF2068AA
:10198000816841F00801816000F040FD0646206852
:101990008168090705D500F039FD801B0A28F6D9B2
:1019A0000FE0816841F00401816000F02FFD0646E0
:1019B00020688068400709D500F028FD801B0B28AF
:1019C000F6D3012510206FF0120102E001206FF024
:1019D0000301A26A11400843A062002084F8240099
:1019E000284602B070BD00BF78B50022009290F882
:1019F0002420012A01D1022158E0012280F824206C
:101A0000D0F800C04B686246062B05D852F8344F18
:101A100003EB83035D1F0EE00C2B06D852F8304F0A
:101A200003EB8303A3F1230505E003EB830352F8E3
:101A30002C4FA3F141050B681F2603FA05FE06FA99
:101A400005F5092B24EA05044EEA040616601CD9A4
:101A500003EB4306DCF80C20896807251E3EB140E5
:101A600005FA06F6B2431143CCF80C1023F001013D
:101A7000102917D11B49A1F10802944519D0816A98
:101A800041F02001816201210DE003EB43020723B5
:101A9000DCF810608968934026EA030391401943FB
:101AA000CCF810100021002280F82420084601B054
:101AB00070BD0A681202F5D40A68102B42F40002C5
:101AC0000A60EFD10849094A0968B1FBF2F101EB5C
:101AD0008101490001E00099013900910099002934
:101AE000F9D1DFE7082401401000002040420F0038
:101AF0007047704770470000C8B3B0B5054604464C
:101B000055F8280F30B9002084F82400E062204600
:101B100000F07AF82046FEF799FEA26AA16A40BB5F
:101B200012F0100025D141F2021021EA000002302B
:101B3000A062D4E90101E269237B10434A1EB1F59A
:101B4000807FB2FA82F240EA430C4FEA52100A4612
:101B500018BF0202207D012816D173B1A06A40F09F
:101B60002000A062E06A40F00100E0620CE0012089
:101B7000704741F0100101203CE0A0691E4B03EBCF
:101B80004030104340F400622368B1F5807F58680C
:101B900020F4694040EA0200184A5860986800EA58
:101BA000020040EA0C00986001D0012904D12069AC
:101BB000134901EB005100E00021D86A20F47000C5
:101BC00008431049D86298680840604506D1002053
:101BD0000122E062A16A62F301010BE0A06A40F019
:101BE000100020F00200A06254F82C0F40F0010118
:101BF000012025462960B0BD00E0FFFFFDF7E1FFB1
:101C00000000F0FFFE0E1FFF7047000070B50E468B
:101C10000446006837491546884202D03649884252
:101C200006D13648006810F4702F1CBF012070BD2B
:101C300094F82400012804BF022070BD012084F81C
:101C400024002046FEF75AFE18B1002184F8241023
:101C500070BD2168A06A40F60172904300F5807063
:101C6000A062264800F57F72914205D0A06A20F458
:101C70008010A062486808E0026812F4702FF5D066
:101C8000A26A42F48012A2620068400504D5A06AEC
:101C9000012262F30D30A062A06A0022DFF860C06A
:101CA000184BC00444BFE26A22F00602002084F808
:101CB0002400E262144A206AC0E90A3C02636FF021
:101CC00002022B460A608A6842F480728A604C31B4
:101CD000324600F051F920688268816802F460227F
:101CE000B2F5602F0CBF41F4A00141F48011816076
:101CF000002070BD00280140002401400424014060
:101D0000F708000891080008E108000890F8211081
:101D1000022912D1016801230A6822F00E020A602A
:101D20000A6822F001020A60D0E90F1203FA02F2F7
:101D30004A60002180F8213002E004218163012102
:101D4000002280F8202008467047000090F82110FB
:101D500002291BD102686A4B11689A4221F00E01D8
:101D60001160116821F001011160644912D0654BC6
:101D70009A4211D0644B9A4210D0644B9A4210D0D0
:101D8000634B9A4210D14FF4803315E004218163F4
:101D90000120704701230FE010230DE04FF4807302
:101DA0000AE04FF4805307E001F1680C4FF08073B4
:101DB000624508BF4FF480130B604FF480710184BB
:101DC000416B19B180B58847002080BD0020704765
:101DD000806B704710B5D0E90FCEDCF800200168A9
:101DE0000B685C071ED5042404FA0EF4144019D0C5
:101DF0000A68434B92065EBF0A6822F004020A603A
:101E000099423E4A5AD03F4B994246D03E4B994266
:101E100045D03E4B994245D03D4B994245D14FF478
:101E200080234CE09C0721D5022404FA0EF41440D0
:101E30001CD00A68920606D40A6822F00A020A60D8
:101E4000012280F821202E4B2C4A99423AD02D4B6A
:101E5000994239D02C4B994238D02C4B994238D0EA
:101E60002B4B994238D14FF400333DE01B0744D54A
:101E7000082303FA0EF31A4008BF10BD0A6822F0C7
:101E80000E020A60012101FA0EF2CCF804208163EF
:101E90004FF480710184016B2BE040230FE04FF47D
:101EA00080630CE04FF4804309E002F168044FF0D6
:101EB0008063A14208BF4FF4800300E00423136055
:101EC000C16A16E002230FE020230DE04FF40073F7
:101ED0000AE04FF4005307E002F168044FF000738A
:101EE000A14208BF4FF400130021136080F82010B6
:101EF000816A11B1BDE81040084710BD04000240DE
:101F0000080002401C000240300002404400024031
:101F10005800024040B32DE9F043154990E80C0108
:101F2000144F00F10C0E9EE870508946174414219E
:101F3000B7FBF1F143F6F0778900C0E90F91116822
:101F4000B943194341EA080121432943314341EA96
:101F50000C0141EA0E01116000214FF4807281638F
:101F60000284BDE8F04300E001210846704700BF4D
:101F700000000240F8FFFDBF10B5044690F82000B5
:101F8000012820D0012084F8200094F821000128A5
:101F900016D10020A063022084F82100D4F800C0EC
:101FA000DCF8000020F00100CCF800002046FFF72C
:101FB0003FFA2068E26A01683AB141F00E010AE096
:101FC000002084F82000022010BD21F004010160EF
:101FD000016841F00A010160016841F001010160FE
:101FE000002010BDB0B5044600F010FA05460548C3
:101FF000611C007818BF044400F008FA401BA0429E
:10200000FAD3B0BD000000202DE9F041DFF848818F
:10201000054698F81800012801D102201CE0012093
:102020000C4688F818004CF250302E68FFF770FA12
:10203000022E0CD160B9FFF727FA4CF25030FFF7AF
:1020400067FA46490A6822F004020A6001E030B1EA
:102050000120002188F81810C0B2BDE8F0814FF0CF
:10206000FF303E4F20600120A9680E4610E0304648
:10207000FFF718FA4CF25030FFF74AFA3968002897
:1020800021F00201396009D1A96806F580660020B7
:10209000EA6801EB82218E42E9D3DAE72660D8E7CD
:1020A0002E48016841F0800101600020704700BFA8
:1020B0002DE9F84FDFF8A080814698F81800012834
:1020C00001D1022045E001201C4692460E4688F8C8
:1020D00018004CF25030FFF71BFAB8BBB9F1020FF1
:1020E0004F461E4D4FF0000B18BF0427B9F1010FEA
:1020F00008BF4F466FF01F095FFA8BF0874224D963
:1021000000210201C8F81C102AFA02F2296841F0E5
:10211000010129602021A1EB001104FA01F1114312
:1021200009EB0012002AA8BF24FA02F126F81010C9
:102130004CF25030FFF7ECF929680BF1010B002845
:1021400021F001012960D7D000E00020002188F8AB
:10215000181001B0BDE8F08FF80D002010200240EB
:102160000648C16809065CBF002070470449016049
:1021700004490160C068C0F3C010704704200240E9
:1021800023016745AB89EFCD2DE9F84F904A914B7C
:102190006FF01F0B4FF00F0990424FF00402A3F5B0
:1021A0007E7A08BF03220092002231FA02F308BFB0
:1021B000BDE8F88F0123934013EA01054DD0940840
:1021C0000BF1200606F00C035AF8247009FA03F804
:1021D00007EA080C874FB8420AD0874FB8420AD0A6
:1021E000864FDDF800E0B84208BF4FF0020E04E071
:1021F0004FF0000E01E04FF0010E0EFA03F39C4584
:1022000015D15AF8243023EA08034AF82430714BD8
:102210001F461B68AB433B607B68AB437B60BB687E
:10222000AB43BB606C4B1F461B68AB433B60B5F5D3
:10223000807F6FEA0503054628BF5E4628BF043548
:102240002C6809FA06F724EA0707042404FA06F6BC
:1022500037432F60C7683B40C3600BF1040B01326A
:10226000A3E700BF2DE9FC4F594A04234FF0000BB0
:102270004FF001084FF00F0E4FF00009002590427B
:1022800008BF032300930A6832FA05F308BFBDE8CC
:10229000FC8F08FA05F73A4200F096804A68032A54
:1022A00016D9112A24D0122A26D04C4B9A4213D088
:1022B0004B4B9A4210D04B4B9A420DD04A4B9A420C
:1022C0000AD04A4B9A4207D0494B9A4204D020E0A8
:1022D000DFE802F00216191D8A6832B1012A4FF0B8
:1022E000080914BF4761076113E04FF0040910E0CB
:1022F000CA6802F104090CE0CA6802F10C0908E09E
:10230000D1F80C9005E0CA6802F1080901E04FF02D
:102310000009082D5A46044628BF203A28BF043435
:1023200026680EFA02F309FA02F226EA03031A43B8
:102330002260CA79D20647D5624A0BF00C0C1346CC
:10234000126842F001021A601A680EFA0CF302F0E9
:10235000010201921F4A019CAC08A2F57E7656F854
:10236000242022EA030A234A904208D0224A9042BB
:1023700007D0224A009B904208BF022302E00023BC
:1023800000E0012303FA0CF242EA0A0246F8242094
:10239000104E4A68D303336854BFBB433B4333609A
:1023A0009303736854BFBB433B437360D302B3686A
:1023B00054BFBB433B439202074AB36013461268C3
:1023C00054BFBA433A431A600BF1040B01355AE784
:1023D00000140140000401400C04014000001110F1
:1023E0000000121000002110000022100000311027
:1023F0000000321000080140000C014000100140B4
:102400008068084018BF0120704700000548006838
:10241000704700BF1B48034900780A6810440860F1
:10242000704700BF4810002080B50748016841F0A0
:1024300010010160032000F087F8002000F006F88A
:1024400000F024F8002080BD0020024070B50D4E41
:1024500004464FF47A713078B1FBF0F00A4909680C
:10246000B1FBF0F000F0AEFD01250F2C08D838B913
:102470004FF0FF3021460022002500F047F874603D
:10248000284670BD000000201000002082B00D48DA
:102490000222016841F001010160016801F00101BF
:1024A00001910199416841F080514160406800F01C
:1024B0008050009000980448016862F31A6101603E
:1024C00002B07047181002400400014000280CDBE5
:1024D00000F01F010122400902FA01F1034A42F80B
:1024E0002010BFF34F8FBFF36F8F704780E100E084
:1024F000002808DB00F01F010122400902FA01F167
:10250000014A42F82010704700E100E080B5144B0A
:102510001B68C3F3022CBCF1030E8CF007034FF0D1
:10252000FF3C38BF4FF0000E042B28BF04230CFAE9
:1025300003F399430CFA0EF301FA0EF19A43114397
:10254000BDE8804004F00EBE05494FF6FF030A685F
:102550001A4060F30A22034810430860704700BF26
:102560000CED00E00000FA05012811D0022822D06D
:1025700010284DD127494A680868C00148D5C2F3E0
:10258000834026A3D203185C24D4D64A50432AE0C1
:102590002049086A00F44072B2F5407F2CD0B2F5B1
:1025A000007F2FD0B2F5807F32D1800744BF4FF437
:1025B000004070472CE080B500F05AF9154902221E
:1025C0004968C1F3813102EB4101B0FBF1F0BDE894
:1025D000804070474A6815A3C2F340429A5CBB4BE7
:1025E000B3FBF2F250434968490248BF70474000CC
:1025F0000321B0FBF1F0704708680749800301EA46
:10260000E0707047486A800744BF49F64040704711
:102610000020704700100240366E010002030405DE
:10262000060708090A0B0C0D0E0F1010010200001E
:102630002DE9FC4104460078A34EC00756D0B0698E
:10264000C0000BD4B0694FF0010840F08050B06179
:10265000B06900F080500190019801E04FF000084F
:102660002D4F3868C00510D4386840F48070386049
:10267000FFF7CCFE05463868C00506D4FFF7C6FE56
:10268000401B6428F7D9032042E0F06910F4407041
:102690001ED0616801F44071884219D01F49F06969
:1026A00001220A6000220A6020F44071C007F16133
:1026B0000ED0FFF7ABFE054641F28837F069800780
:1026C00006D4FFF7A3FE411B0320B942F6D91FE051
:1026D000F0696168B8F1000F20F4407040EA010031
:1026E000F0611EBFB06920F08050B06120688107A2
:1026F00005D53168A26821F4404111433160C0061C
:1027000005D53068E16820F480000843306000207F
:1027100002B0BDE8F08100BF0070004040044242BA
:102720002DE9F843002800F08E8088464849044689
:10273000086800F0070040450AD2086820F007004A
:1027400040EA08000860086800F0070040457AD1B8
:1027500020685D4B8946810711D5410742BF196842
:1027600041F4E0611960010742BF196841F460510A
:1027700019601968A26821F0F00111431960C007BF
:102780002AD06068012804D153F8041C890309D4B5
:1027900059E053F8041C022802D1890102D452E006
:1027A000890750D519681D4621F0030108431860B8
:1027B000FFF72CFE064641F28837286861682B46F1
:1027C00000F00C00B0EB810F06D0FFF71FFE801B5E
:1027D000B842F2D9032037E0D9F8000000F0070032
:1027E00040450DD9D9F8000020F0070040EA080064
:1027F000C9F80000D9F8000000F00700404522D1D8
:102800002068410705D51968E26821F4E0611143A9
:102810001960000706D51868216920F4605040EA65
:10282000C10018601C4600F02FF82168094AC1F366
:102830000311515CC840F449086007480068FFF77D
:1028400005FE002000E0012001B0BDE8F08300BFDC
:1028500000200240BC7B000804000020EA481A491E
:10286000084A00680968C1F30221515CC8407047FA
:10287000E5481549034A00680968C1F3C221515C63
:10288000C8407047CC7B00080F4910480A6802F026
:102890000C03042B08BF7047082B12D1C2F3834CE2
:1028A0000BA3D20313F80C305EBF0E485843704799
:1028B00009680BA25843C1F34041515CB0FBF1F0F1
:1028C00070470948704700BF04100240001BB70062
:1028D00002030405060708090A0B0C0D0E0F101061
:1028E0000102000000093D0000127A002DE9FC41C0
:1028F000002800F0408104460078C14EC0074AD04D
:10290000706800F00C00042817D0706800F00C000C
:10291000082802D17068C0030FD4606898B1B0F580
:10292000803F06D03168B0F5A02F21D141F480203E
:102930003060306840F4803020E0306880032AD571
:10294000606840BB17E1306820F480303060306848
:1029500020F480203060FFF759FD05463068800381
:1029600019D5FFF753FD411B03206429F6D903E174
:1029700021F480303060306820F480203060FFF730
:1029800045FD05463068800305D4FFF73FFD401B39
:102990006428F7D9D1E0207880072BD5706810F033
:1029A0000C0F07D0706800F00C00082809D170687F
:1029B000C00306D43068800715D52069012812D0DD
:1029C000D9E021698F4800297CD001210160FFF7FF
:1029D0001DFD05463068800705D4FFF717FD401B35
:1029E0000228F7D9A9E03068616920F0F80040EAD0
:1029F000C1003060207800072ED5A06978B18148E9
:102A00000121C0F88014FFF701FD0546706A8007B8
:102A100015D4FFF7FBFC401B0228F7D98DE079485D
:102A20000021C0F88014FFF7F1FC0546706A8007AA
:102A300012D5FFF7EBFC401B0228F7D97DE0724866
:102A40004FF4FA510068B0FBF1F0019000BF01981B
:102A5000411E00280191F9D12078400776D5F06910
:102A6000C0000BD4F0694FF0010840F08050F061D5
:102A7000F06900F080500090009801E04FF00008ED
:102A8000624F3868C0050FD4386840F480703860F1
:102A9000FFF7BCFC05463868C00505D4FFF7B6FC57
:102AA000401B6428F7D948E0E068D8B1012805D078
:102AB000316A05282DD141F004003062306A40F0BF
:102AC00001002CE000210160FFF7A0FC0546306802
:102AD00080077FF58FAFFFF799FC411B0320022988
:102AE000F5D949E0306A20F001003062306A20F008
:102AF00004003062FFF78AFC054641F28837306AED
:102B000080071CD5FFF782FC411B0320B942F6D990
:102B100032E021F001003062306A20F004003062BF
:102B2000FFF774FC054641F28837306A800706D407
:102B3000FFF76CFC401BB842F7D903201CE0B8F14A
:102B4000000F1EBFF06920F08050F061E769002F90
:102B500053D0706800F00C00082810D1012F0AD063
:102B60007068216A00F480328A4204D1616A00F4FC
:102B70007010884241D0012002B0BDE8F0812149A7
:102B8000002088460866FFF741FC0546022F0AD15F
:102B900047463068800110D5FFF738FC411B032001
:102BA0000229F6D9E8E73068800126D5FFF72EFC28
:102BB000411B03200229F6D9DEE7206AB0F5803FE9
:102BC00005D17168A26821F4003111437160716808
:102BD000626A104321F47411084370600120386662
:102BE000FFF714FC04463068800106D4FFF70EFCA2
:102BF000011B03200229F6D9BEE70020BCE700BF75
:102C0000001002400000424210000020007000400E
:102C100070B5B8B3002605464FF0000C866290F8F8
:102C2000510030B9284685F8506000F02EF8D5F8EC
:102C300028C0022185F8511029680A6822F0400254
:102C40000A60D5E90123D5E903041A4310436A69F0
:102C500020431043AA6902F400731843EB69184338
:102C60002B6A184340EA0C000860042000EA124076
:102C70004860C86920F40060C86101206E6585F86D
:102C8000510000E00126304670BD70472DE9F84341
:102C9000044690F85000012801D10220A4E04FF032
:102CA00001091D4616460F4684F85090FFF7AEFB0B
:102CB000804694F85100012854D10120002F00F0E3
:102CC0008E80002E00F08B800320731E84F851004C
:102CD0000020B3FA83F36065E6862763A686A063C7
:102CE000A087C4E91000E0875B09A1682068B1F5FE
:102CF000004F02BF016841F480410160016849064C
:102D00005EBF016841F0400101606168E268B1FAAC
:102D100081F1B2F5006F4FEA511141EA030123D16D
:102D200031B137F8021BC1602763E08E0138E086BD
:102D30006E1C13E020688168890707D4FFF766FBE3
:102D400066B1A0EB0800A84208D347E0216B31F838
:102D5000022BC2602163E08E0138E086E08E0028FD
:102D6000E8D124E002203AE039B139780173206BD0
:102D700001302063E08E0138E0866E1C14E020688C
:102D80008168890707D4FFF741FB6EB1A0EB08000B
:102D9000A84209D322E0216B09780173206B01302E
:102DA0002063E08E0138E086E08E0028E7D12046DF
:102DB0002946424603F030F908B120206065A0683A
:102DC00038B9002000902068C168009180680090A8
:102DD0000098606D002818BF012000E0032000214A
:102DE00084F8501084F8519001B0BDE8F0832DE9CB
:102DF000F843044690F85000012801D10220C8E0B1
:102E000001201E4615460F4684F85000FFF7FEFAD3
:102E100094F85110814601296CD10120002F00F057
:102E2000B280002D00F0AF80002E00F0AC8094F84E
:102E30005100731EDDF82080B3FA83F304284FEAB3
:102E400053131CBF052084F8510000206065E687FD
:102E5000A563A6872763A686C4E91000E6862068D6
:102E6000016849065EBF016841F040010160616888
:102E7000E268B1FA81F1B2F5006F4FEA511141EA0F
:102E8000030145D131B137F8021BC1602763E08EE1
:102E90000138E086012608F10105E08E10B9E08FC7
:102EA000002879D02068816889070CD5E18E012E31
:102EB00009D141B1216B002631F8022BC260216398
:102EC000E18E0139E1868168C9070AD0E18F41B1FD
:102ED000C068A16B012621F8020BA163E08F0138C5
:102EE000E087FFF793FA002DD7D0A0EB090040450B
:102EF000D3D347E06068B0F5827F07D10220042970
:102F000041D1A16800293FF488AF3CE002203AE0BB
:102F100039B139780173206B01302063E08E0138BC
:102F2000E086012608F10105E08E08B9E08F98B32C
:102F30002068816889070ED5E18E012E0BD151B131
:102F4000216B002609780173216B20680131216310
:102F5000E18E0139E1868168C9070BD0E18F49B163
:102F6000C068A16B01260870A06B0130A063E08FE0
:102F70000138E087FFF74AFA002DD5D0A0EB090011
:102F80004045D1D30320002184F85010012184F85A
:102F9000511001B0BDE8F083204641464A4603F097
:102FA0003BF818B1202060650120ECE7A168002003
:102FB0000029E8D100902168CA68009289680091D0
:102FC0000099E0E7411E0020B0EB116F1CBF01200B
:102FD0007047044AF023516003490B700721906049
:102FE0001160704710E000E023ED00E090F83C3005
:102FF0000222012B19D080B580F83D200268536869
:10300000D2F808C023F0700ED1E9003143EA0E0374
:1030100053602CF08003194391600022012180F855
:103020003C2080F83D10BDE8804010467047B0B1AC
:1030300010B5044690F83D0028B9002084F83C0003
:10304000204600F00EF80220211D84F83D00206883
:1030500003F02EFC012084F83D00002010BD01206B
:1030600070477047022180F83D1001688A6802F0BD
:103070000702062A1EBF0A6842F001020A60012107
:1030800080F83D10002070470068C16841F00101E0
:10309000C160816801F0070106291EBF016841F087
:1030A0000101016000207047022141F2111380F8F4
:1030B0003D1001680A6A1A4208D10A6A40F2444384
:1030C0001A4203D10A6822F001020A60012180F845
:1030D0003D1000207047006841F21112C16821F0D4
:1030E0000101C160016A114208D1016A40F2444203
:1030F000114203D1016821F00101016000207047F5
:1031000070B50E4690F83C1004460220012908BF15
:1031100070BD84F83D000120154684F83C00042D64
:103120002068D6E90012F36806D05DB903F0FEFC12
:10313000236853F8180F1CE003F037FD236853F899
:10314000180F32E0D0F820C0082D17D12CF480756C
:1031500063F307120346056253F81C5F25F0F3057D
:103160002A43056A1A60C1F3560161F349250562D5
:10317000186820F00C001860B0681BE02CF4805533
:10318000120205624FF2FF05AA4363F30F320346B2
:1031900053F81C5F25F473452A43056A1A60C1F38E
:1031A000520161F34D350562186820F440601860E3
:1031B000B06800021968084301211860002084F8F3
:1031C0003C0084F83D1070BDB0B110B5044690F8D5
:1031D0003D0028B9002084F83C00204600F00EF89D
:1031E0000220211D84F83D00206803F061FB0120CE
:1031F00084F83D00002010BD01207047704700009A
:1032000010B504464FEAB100032808D8DFE800F003
:1032100002090E132068C26842F002020FE0206823
:103220000EE02068C26842F0040208E02068C2682C
:1032300042F0080203E02068C26842F01002C26057
:10324000012203F05DFB20686D49884203D14A6C7E
:1032500042F400424A64816801F0070106291EBF5A
:10326000016841F001010160002010BD10B5044665
:103270004FEAB100032808D8DFE800F002090E1376
:103280002068C26822F002020FE020680EE0206889
:10329000C26822F0040208E02068C26822F0080236
:1032A00003E02068C26822F01002C260002203F02E
:1032B00027FB2068524988420DD10A6A41F2111356
:1032C0001A4208D10A6A40F244431A4203D14A6CB6
:1032D00022F400424A64016A41F21112114208D1FB
:1032E000016A40F24442114203D1016821F0010118
:1032F0000160002010BD00BF70B50D4690F83C1075
:1033000004460220012908BF70BD84F83D004FEA41
:10331000B2000126032884F83C6036D8DFE800F0CC
:10332000020A12222068294603F0FAFA206850F8AF
:10333000181F0EE02068294603F01EFB206850F895
:10334000181F16E02068294603F046FB206850F855
:103350001C1F41F008010160016821F004010160B7
:1033600029690FE02068294603F066FB206850F8C1
:103370001C1F41F400610160016821F4806101605B
:1033800029690902026811430160002084F83C00A9
:1033900084F83D6070BDB0B110B5044690F83D00B2
:1033A00028B9002084F83C00204600F00EF80220E6
:1033B000211D84F83D00206803F07AFA012084F88A
:1033C0003D00002010BD01207047704710B5044635
:1033D0000068012203F094FA20680949884203D169
:1033E0004A6C42F400424A64816801F007010629F0
:1033F0001EBF016841F001010160002010BD00BF47
:10340000002C01404FEAB101032984BF002070471E
:10341000DFE801F0020B05080068343007E00068BF
:103420003C3004E00068403001E00068383000685B
:103430007047B0B590F83C2004460220012A08BF2E
:10344000B0BD84F83D000125204684F83C5003F0CF
:1034500017FB00284FF0010009D12068C16821F056
:103460004001C160C16821F48041C1600020002199
:1034700084F83C1084F83D50B0BD10B50446006897
:10348000C16821F49071C160416921F0010141617D
:103490004169490613D5416921F040014161606BE2
:1034A00068B100214163FEF731FC40B1606BFEF76B
:1034B0008FFC202803D11020E063032010BD0020E2
:1034C0002021E08584F83A1010BD704770B506469B
:1034D000006802680146C36851F8144F5FEA027C35
:1034E00050D003F4907504F001042D1953D0D00787
:1034F0001FBF13F48070F06B40F00100F0635007C1
:1035000004D51CB1F06B40F00200F063900704D5C5
:103510001CB1F06B40F00400F063BCF1000F04D567
:103520001CB1F06B40F00800F063F06B00286CD029
:1035300003EA0200800605D5304603F0ADFB306893
:1035400000F114010868F16B00F0400001F008017F
:1035500040184BD0304603F092FB30684169490671
:103560003FD5416921F040014161706BC8B32C49DE
:103570004163FEF7EBFB002847D0706B416BBDE861
:103580007040084703EA02018A0606D53046BDE8C6
:10359000704003F081BB03EA02010A060DD449061C
:1035A00033D5C16821F04001C160202086F8390080
:1035B0003046BDE8704000F0E7B896F83910212990
:1035C00023D1B268316AB2F5805F15D10A886FF3F2
:1035D0005F2242603269002A14BF01310231316238
:1035E0000EE03046BDE87040FFF76FBF3046FFF792
:1035F0006CFF0020F06370BD4A1C326209784160A4
:10360000F18C0139F184090400D070BDC16821F04A
:103610008001C160C16841F04001C16070BD00BF60
:10362000E36B000850B310B5044690F8390028B990
:10363000002084F83800204600F022F8242084F886
:1036400039002068C16821F40051C160204603F0B0
:1036500061FB2068016921F490410161416921F019
:103660002A014161C16841F40051C160002020215C
:10367000E06384F8391084F83A1010BD01207047D7
:1036800070470000BCB5054690F83A00202807D1E5
:1036900013460A4631B12BB195F83800012803D101
:1036A00002242FE001242DE000240120DFF85CC07B
:1036B0001749DFF860E0EC63AA6285F83800222041
:1036C000AB8585F83A00686B00F1280787E802505F
:1036D000446329680431FEF74FFC019428680168AF
:1036E000019141680191019985F83840C16841F420
:1036F0008071C160416941F001014161416941F05E
:1037000040014161204602B0B0BD00BF796C0008A5
:10371000436C0008EF6B000870B5284E3168814299
:1037200018BF002600D070BD3068FFF7A6FEB06855
:1037300006F5867506F50374294600684068C0F5ED
:103740008070A6F80E0382B22046FCF7EBFCB6F8B8
:103750000E03D6F814134FF4807208442946C6F8B5
:1037600014033068FFF78EFFB6F80E13022938BF36
:1037700070BDD6F81823002AD5D02046BDE8704089
:10378000104700BF7047000010B50C4C2168814203
:103790001CBF002410BD0A484FF480414FF48072D2
:1037A000016004F586712068FFF76CFFD4F81C03F4
:1037B00010B1BDE81040004710BD00BFD40A002082
:1037C00014100140FEE700001149886048610A6852
:1037D000D1E903C3C1E90002801AC3EB831244F6A6
:1037E000206300FB03206044821100F03F000A6167
:1037F000C8608A61704700BF80B505481C21FCF78E
:10380000AAFC80BD024AC2E90000906011617047C5
:10381000E00900202DE9F0417C4DEE6A6C6A871BBF
:1038200015D0FCB1012FA8BF012C30DA07EA040043
:10383000B0F1FF3F5CDDB7F1FF3F01DC012C48DA5E
:10384000012FC0F29080B4F1FF3F7BDD8BE0E8698F
:1038500041428C4214DB844212DC0024C5E9084456
:10386000AC6280E0E868296A012FACBF0844081AFE
:1038700044F6206190FBF1F404FB1100286271E032
:10388000012C26DAB4F1FF3F5CDD00246BE0D5F8B3
:10389000048044451DDC2046FCF7DFFC0146FCF7B4
:1038A0006CFCA969FCF769FCFCF7E0FC874210DDC1
:1038B000444558DAE868296A084444F6206190FBD8
:1038C000F1F2144402FB11004445C5E9080434DA5E
:1038D00049E06869296A081A44F6206190FBF1F210
:1038E000144402FB1100002CC5E908043BDC37E05E
:1038F0006868C0F10008444524DB2046FCF7ADFCB5
:103900000146FCF73AFCA969FCF737FCFCF7AEFC72
:10391000002F00D57F42874214DD444523DDE8684F
:10392000296A081A44F6206190FBF1F2144402FB64
:1039300011004445C5E9080415DC00204446C5E9EA
:10394000080810E06869296A084444F6206190FB81
:10395000F1F2144402FB1100002CC5E9080402DB5B
:1039600000242C626C626C6344F62061A86A2044D7
:1039700090FBF1F2931902FB1100EB62A8622B633A
:10398000BDE8F08110B5214C207818B901202070D5
:103990000A486060207A18B9012020720848E06067
:1039A000207C10B9064800F015F84FF44840182163
:1039B000E06104F12000FCF7CEFB10BD00102700F1
:1039C00000204E00114A0023C2E90831C2E90A3042
:1039D000704700BF002800D540420B4A411E91426B
:1039E0000ED810B5094C6061FCF737FC01464FF06A
:1039F0007C50FCF7F4FBA0610120BDE8104000E022
:103A00000020024908747047FF3F0D03FC090020A5
:103A100010B50E4C172000210022A0471D200021C8
:103A20000022A0474FF0FF3002210022A0470E20C5
:103A300003210022A0470F2003210022A0472520B8
:103A4000032100222346BDE8104018470D25000839
:103A5000054801210170054844F620610068B0FB6B
:103A6000F1F0FFF7AFBA00BF3C02002010000020C9
:103A7000FEE70000B0F1FF3F07DD2449884207DB85
:103A80002349884210DC264908E02649884201DDA6
:103A9000002070472449884212DB2A494FF4837280
:103AA00000FB0210001570471A49884213DC1B49BD
:103AB000692200FB02104FF4967101EB2050704711
:103AC0001A49884215DB1D49692200FB02101C4976
:103AD00001EB205070471049342200FB02104FF4D4
:103AE000C37101EB2050B0F5D77FA8BF4FF4D7705A
:103AF00070470F49342200FB02100E4901EB2051A0
:103B00000D4811F5D77FC8BF08467047A086010051
:103B10001FD61300BF91210000652EF9E02CDDF7C0
:103B2000403870FE6079FEFFE129ECFF416EDEFF58
:103B3000009BD1067AFEFFFF52FEFFFF20D3220832
:103B4000D4FEFFFFC0C78F012DE9F041DFF8B88434
:103B5000DFF8E06398F80010708859B1DFF8AC44E2
:103B6000A168C4E90201401AB0F5C84F0DDDA0F507
:103B700048400FE0DFF89414C1E90200C1E90400F5
:103B8000012088F80000BDE8F08110F5C84FB8BFEB
:103B900000F548402169D4E9062344F62065C3EBCB
:103BA00043130F1800FB0530C4E90471024450119F
:103BB00002F01F02C4E90620FFF75CFF2062C11972
:103BC000E06B421AC4E90A1294F8581094F846209F
:103BD00011430ED1317961B194F84710002900F0FA
:103BE000A78000F0BBF90020C4E9130000F0FEFC40
:103BF00006E000F0B3F90020C4E9130000F06AFD0C
:103C000061782079884223D0A1F1200208462171F1
:103C1000132A00F2AE80DFE812F014001400140042
:103C200014001B001B001B001B001B001B001B00C3
:103C30001B001B001B001B001B00700172017401A4
:103C40007601002002F052FB012084F84800207920
:103C5000A0F1300103290AD202F040FBDFF8D802BC
:103C6000D0E90112C4E90C128089208709E03328C9
:103C70000BD102F033FBDFF8C002216B406808442F
:103C80002063DFF8B402C0896087616BA848814275
:103C900001DD606303E0A9488142B8BF6063B4F905
:103CA000381040F6B830814203DCA648814201DC7E
:103CB000A348208794F8460010B194F83A0038B130
:103CC00094F84700002825D094F83B00002821D123
:103CD000012084F84800002584F8485000F03EF99F
:103CE00084F8585065652079A0F12001132900F26D
:103CF0005680DFE801F00A141848545454545454C0
:103D00005454545454540A14184DE169A06AFFF7EE
:103D100059FE43E094F848000028DCD13EE0E06919
:103D200002F0E0FC3AE0B4F95000FDF727FB35E083
:103D30002179A1F12002132A00F2D280DFE812F0EB
:103D40001500D900E500150014001400140014003B
:103D500014001400140014001400140014001400C3
:103D60001500D900E50015004AE7216CFDF796F92A
:103D700046E710293FF465AF01293FF462AF0029FF
:103D80003FF45FAF64E7E169A06A00F0D9F905E0AC
:103D9000E169A06AFFF736FDA06A20632079A0F1EF
:103DA0002001132910D8DFE801F00A151B24343450
:103DB000343434343434343434340A151B2C206B0A
:103DC000FFF728FD624819E0012878D008BB00F011
:103DD00003F91EE0606B02F01BFC5C48806917E091
:103DE000B4F93800FDF760FA57488069A4F8440038
:103DF0000FE0D4E90C0100F00BF9D648016B406BE1
:103E000005E0206BFFF7E0FC5248D0E90510E163C4
:103E10002064608F5049A4F84600236D002B1A4699
:103E200048BF5A42207940F01007322F0ED16BB1B3
:103E3000E369002B00D55B42B3F5205F06DA636DC2
:103E40008B4237D9012384F8583013E040F6B83359
:103E50009A420DD1E369002B00D55B42B3F5205F98
:103E600006DA626D8A4227D9012284F8582005E0DB
:103E70000023636540F6B8339A4206D1E26D8A4268
:103E800007D9012184F8601006E0002184F8601051
:103E900001E002F13201E165102801D1002042E089
:103EA00094F8581009B104203DE094F8601049B12D
:103EB000032038E03233DCE732326265DEE7D8F8DF
:103EC0000C00A5E7222825D0212827D0202805D1BD
:103ED000206BE16B814225D1206C18BB012022E0D0
:103EE00010293FF48BAE012903D000293FF43DAFE8
:103EF00086E6206CFDF766F982E60120A2E6022044
:103F0000A0E603209EE604209CE6B4F94400FDF7F9
:103F10008DF875E6208FB4F8441001E0606B216CD9
:103F20008142DBD0022084F86100BDE8F08100BF4F
:103F300000102700DA000020EC00002000F0D8FF7D
:103F400048F4FFFF47F4FFFF640400202C0E00201C
:103F5000FC090020E00900203F420F002A48002110
:103F6000C0E90D11C162C0E91A110166C0E9011171
:103F7000704700BFB0B5254C207810B943F201302E
:103F80002080A07810B940F2011060800025102038
:103F90001C21E565207104F10800A4F86050FCF7CD
:103FA000DAF804F128002121FCF7D5F884F85850FC
:103FB000C4E913556565FDF7EBF8FDF747F8FFF722
:103FC000E1FC02F07BFBFDF7C5F900F09FF8BDE8CE
:103FD000B040FFF711BC00BF0B484FF4D273DFF8BD
:103FE0002CC0C268416802FB0311CCF840200B468C
:103FF000CA156FF3DF53C0E90132DCF83C0000EB77
:10400000E150CCF83C00704744010020380A002001
:104010002DE9F8434F4F04460D46B869884209D14F
:10402000F869A04206D138693749884231DB01205E
:10403000387532E000203861C7E906543875D7F882
:104040002480D7F82C9008EB0500FCF706F906460B
:10405000A5EB0800FCF701F901463046FCF78DF8A6
:104060000546A4EB09004000FCF7F7F80146284696
:10407000FCF7B5F8FCF7FAF8F860396A44F6206204
:10408000014491FBF2F308EB030003FB12113962C8
:1040900028E032303861387D90B1786A00B37968B1
:1040A0003A6A012810DB511A44F6206291FBF2F3C0
:1040B000184403FB12110028C7E9081013DC0FE0B5
:1040C000F868D7F82480D8E7114444F6206291FBC1
:1040D000F2F3184403FB12110028C7E9081002DBB1
:1040E0000020386278627863D7E90A12084444F6FF
:1040F000206190FBF1F31A4403FB1100FA62B862ED
:104100003A63BDE8F88300BF400D03001148017811
:1041100019B90121017009494160017A19B90121D8
:104120000172C821418180B50021C0E903110175E8
:1041300018302021FCF70FF880BD00BF00204E0092
:10414000044A002313751361C2E90831C2E90A3039
:10415000704700BF9C0A0020704770470948002143
:10416000816009490A8849880280418048F6CC511B
:1041700051434268C2EB421202EB113149094160DE
:10418000704700BF180E0020580000202DE9F043B2
:1041900089B00026EF4F05A9CDE90766386840F0E1
:1041A00004003860386800F0040002900298032090
:1041B000CDE90500F0488146FEF754F82E4D2F4812
:1041C00080214FF480784FF4806220234FF44054D4
:1041D000C5E900062846C5E90261C5E90482C5E9CA
:1041E0000634FDF797FE08B1FDF74CF92448049614
:1041F0004FF4602268620562CDE9026601253968E4
:1042000041F400713960396801F40071019101993C
:1042100005730675C26109F5E05180E8420102218B
:104220000161FDF769FC08B1FDF72CF90020039549
:10423000072402A9029012480494FDF7D5FB08B1A7
:10424000FDF720F9022002A90390012002900494B6
:104250000B4C2046FDF7C8FB08B1FDF713F92046CB
:10426000FDF762FB04F1300120460222FDF7CEFC8F
:1042700009B0BDE8F08300BFE40700200800024059
:1042800028000020E0B50948016841F00101016003
:10429000006800F00100019001980E20FEF728F957
:1042A0000F20BDE88C40FEF723B900BF1410024078
:1042B0002DE9F04186B00026C64F164C02AD4FF0F6
:1042C000010805962946386840F0080038603868CB
:1042D00000F008000190019803964FF4805002907E
:1042E0002046CDF81080FDF7BDFF3868294640F024
:1042F00008003860386800F00800019001980396C3
:10430000042002902046CDF81080FDF7ABFF06B0E8
:10431000BDE8F081000C01402DE9F04F85B0AD48BB
:10432000AD4C4FF0100A4FF0080B4FF0010901ADF2
:10433000DFF8288500260327016841F004010160A9
:10434000016801F0040101910199016841F0040143
:104350000160016801F0040101910199016841F0D7
:1043600004010160016801F00401019101990168F3
:1043700041F0040101600421006800F00400019094
:10438000019820206061C4F814A0C4F814B06161E1
:10439000CDE901092046294603960497C0472046E7
:1043A0002946CDE901A9CDE90367C0472046294642
:1043B000CDE901B9CDE90367C0470420CDF80890E5
:1043C000294601902046CDE90367C04705B0BDE806
:1043D000F08F00BFF8B57F480122016841F0040169
:1043E00001604FF40041006800F004000090009864
:1043F00079480161CDE90012002102910221039167
:104400006946FDF72FFF8FBDF8B57248012201689C
:1044100041F0100101604FF48041006800F010008D
:104420000090009805484161CDE9001200210291F9
:10443000022103916946FDF715FF8FBD0010014071
:104440002DE9F04786B0634E634C02AD4FF0010892
:10445000DFF808A44FF0000902272946306840F031
:1044600004003060306800F00400029002984FF4BD
:1044700080606061CDE902082046CDF81090059774
:10448000D047306802A940F004003060306800F086
:104490000400019001984FF40070606181E801030D
:1044A000204629460597D047306802A940F004000D
:1044B0003060306800F00400019001984FF4807083
:1044C000606181E80103204629460597D04706B080
:1044D000BDE8F08710B51720FDF7F8FF3E4C8021AE
:1044E0002046FDF751FE04F580600121BDE8104033
:1044F000FDF74ABEF0B585B00026D74F364C01AD6A
:1045000004962946386840F004003860386800F0A6
:1045100004000090009802960120019004F580604C
:104520000396FDF79FFE3868294640F00400386086
:10453000386800F00400009000980748029080203E
:10454000019020460396FDF78DFE1720FDF7D0FF62
:1045500005B0F0BD181002400000311010B51E4C1F
:1045600080212046FDF710FE04F580600121BDE8A2
:104570001040FDF709BE00BF0008014070B586B0CD
:104580000026E648144C02AD0596016841F004018E
:104590000160016801F0040101910199016841F095
:1045A000040101602946006800F0040001900198B0
:1045B00003960120029004F580600496FDF752FEF8
:1045C000802003962946029020460496FDF74AFE75
:1045D00006B070BD181002400008014080B5FFF71A
:1045E0009BFEBDE8804000F09DB9000042480021DC
:1045F00041818180414800680164C16334482021C1
:1046000001601021016008210160042101607047F0
:1046100080B500F58072DFF8E0C02C4B6FF39F206F
:1046200000296FF39F22ACF8060033F910E033F94C
:104630001200ACF80020ACF808E0ACF8020000D59D
:10464000494241F2DB32BEF1000F734602FB01F139
:10465000C1F30B3148BFCEF10003002801FB03F387
:104660004FEA1332ACF80A20024648BF4242012802
:1046700002FB01F14FEA1132ACF80420F04AC1F319
:104680008D3112681164C3F38D31D163104904DB9D
:10469000202008601020486008E0B0F1FF3F4FF094
:1046A0002000CCBF08604860102008600820BEF1E0
:1046B000010F03DB08600420486080BDBEF1FF3FAE
:1046C000CCBF086048600420086080BD6E9E000872
:1046D000100801400848002141818180D8480068C5
:1046E0000164C16306482021016010210160082196
:1046F0000160042101607047E00000206009002093
:104700001408014080B501F027FC1948124A41887D
:104710001268C18032F81110018180BD80B500F0AF
:104720001DF8FFF7EFFFDFF848C001204FF0000E43
:104730004FF6FF738CF80A00074801680020B0F5B7
:10474000804F08BF80BD31F8102001309A4208BF69
:104750008CF80AE0F3E700BF0C00002080B50448A5
:1047600000210160FFF736FEBDE8804000F002B88E
:10477000D40000202DE9F04F85B04FF0000ADF4F44
:104780004FF0020801AD354C0326CDF80CA02946A8
:10479000386840F008003860386800F00800009081
:1047A0000098386840F008003860386800F0080069
:1047B00000900098386840F008003860386800F0D1
:1047C000080000900098CDF80880082001909848D3
:1047D00004968346A0472020CDF808802946019002
:1047E00058460496A0474FF0100958462946CDF880
:1047F00008A0CDF80490CDF80CA0A0478D48184A29
:104800004FF400634FF40076016811430BF510522A
:1048100001604FF48271386840F480503860386825
:10482000012700F48050009000980E48C0E9002154
:104830000A21C0E902A3C0E90487C0E90669C0E90A
:1048400008AAC0E90AA1FEF7E3F908B1FCF71AFECD
:1048500005B0BDE8F08F00BF1810024065220008C7
:1048600001000007B00800202DE9F04385B00026C4
:10487000F14F6F4C01AD4FF002084FF00309039662
:104880002946386840F008003860386800F00800B1
:1048900000900098386840F008003860386800F0F0
:1048A000080000900098CDF808804FF40050019067
:1048B0002046CDF81090FDF7D5FC4FF40040CDF820
:1048C0000880294601902046CDF81090FDF7CAFCDB
:1048D00078684FF48271A4F554424FF4007340F4A9
:1048E000804078607868082700F480400090009845
:1048F0000B48C0E900210A21C0E90266C0E904664C
:10490000C0E90637C0E90866C0E90A61FEF780F928
:1049100008B1FCF7B7FD05B0BDE8F0831810024000
:10492000080900202DE9F0438FB00026C24F404C0B
:104930000BAD4FF002084FF003090D962946386879
:1049400040F008003860386800F0080001900198D5
:10495000386840F008003860386800F008000190BE
:104960000198CDF830804FF400600B902046CDF8D0
:104970003890FDF777FC4FF48060CDF83080294601
:104980000B902046CDF83890FDF76CFC29482A4A58
:1049900001681140294A1143016001A81C21CDE999
:1049A0000866FBF7D8FB78684FF0804140F2FF3291
:1049B00040F001007860786800F0010000900098F5
:1049C0001F48C0E90016C0E9026206618661FEF771
:1049D000E2FC08B1FCF756FD194808A9CDE90866C4
:1049E000FEF704FB08B1FCF74DFD002060210C220E
:1049F0000290019103900590114801A9FEF77CFCFB
:104A000008B1FCF73FFD0E4801A90822FEF774FC2F
:104A100008B1FCF737FD0A4C0C212046FEF7D6FC06
:104A200020460821FEF7D2FC0FB0BDE8F08300BF9E
:104A3000000C014004000140FFFCFFF800020007E9
:104A40006009002080B57E48FEF72EFB36484021E5
:104A5000BDE88040FDF798BB70B58EB00024EC4DEA
:104A6000764E0AA90D94286840F004002860286852
:104A700000F00400059005980B9440200A9006F57C
:104A800082300C94FDF7EEFB05A81421FBF763FBC5
:104A9000CDE902444FF6FF71686840F0020068609B
:104AA000686800F00200019001986548C0E9006460
:104AB000C0E9024104618461FEF7B9FA08B1FCF76C
:104AC000E1FC502005A906900720059004200794DA
:104AD00009905B48FEF7ADFC08B1FCF7D3FC002061
:104AE00002A9CDE902005648FEF780FA08B1FCF7AA
:104AF000C9FC5348FEF7B6FA0EB070BD181002405C
:104B000010B54F4C2046FEF7E6FA20460421FEF78A
:104B1000ADFB20460021FEF7A9FB03484021BDE87C
:104B20001040FDF731BB00BF0008014070B592B0E6
:104B30000024B74D414E0EA91194286840F004009E
:104B40002860286800F00400099009980F9440201C
:104B50000E900120109006F58230FDF783FB09A826
:104B60001421FBF7F8FACDE90644CDE90444CDE978
:104B7000024447214FF6FF72686840F00200686007
:104B8000686800F00200019001982D48C0E90061BA
:104B9000C0E9024204618461FEF749FA08B1FCF7FA
:104BA00071FC2748FEF710FB08B1FCF76BFC5020A6
:104BB000002409A90A900420099021480B940D941F
:104BC000FEF737FC08B1FCF75DFC1D4806A9CDE9EE
:104BD0000644FEF70BFA08B1FCF754FC012002A9C9
:104BE0000022039000200290CDE904001448FEF753
:104BF00087FA08B1FCF746FC022002A90422CDE99D
:104C000002000F48FEF77CFA08B1FCF73BFC1D20C0
:104C1000FDF76EFC0A4C2046FEF746FA20460021BE
:104C2000FEF7EEFA20460421FEF7EAFA2046FEF7E8
:104C30002BFA12B070BD00BF1810024000040040F3
:104C4000A0090020124813494268C0E9031290F9F4
:104C50000110052988BF704710B50FA214A31AA42C
:104C60004FF00C0C4FF0000E52F8212053F8213079
:104C700054F82110C0E9053200F11C0282E802500C
:104C8000C0F828E00C30FEF7CDFCBDE810407047BE
:104C900088000020003801400000000000000000F3
:104CA00000000000002000000020000000200000A4
:104CB00000000000001000000010000000000000D4
:104CC00000100000001000000000000000040000C0
:104CD00000060000000000000004000000060000C4
:104CE0002DE9F04F85B0DFF8248198F8000028B94D
:104CF000012088F80000002088F8020098F80300DE
:104D000010B1D8F8080006E0012088F803004FF43D
:104D1000E130C8F80800C8F8040000263C493D4CC2
:104D200001AD98F80200039688F80100086840F089
:104D300008000860086800F0080000900098086803
:104D400040F0080008600868294600F0080000905C
:104D500000980220029040200190032004902046F9
:104D6000FDF780FA4FF08009012002962946CDF820
:104D7000049003902046FDF775FA2748274A284CEF
:104D80004FF4405A01681143016026491020C4E9DC
:104D900000102046C4E90269C4E904668B46C4E9F0
:104DA000066AFDF7B7F808B1FCF76CFB1E4D08F179
:104DB0000C0720200BF11401C8F83C406762C5E9DC
:104DC0000016C5E90269C5E90466C5E9060A284670
:104DD000FDF7A0F808B1FCF755FB0D48C8F84050A6
:104DE0006F628346006840F48040CBF80000DBF837
:104DF000000000F4804000900098FFF723FF25207A
:104E0000FDF776FB05B0BDE8F08F00BF88000020FD
:104E100018100240000C014004000140040000078B
:104E20006C0800204400024028080020FEB504461B
:104E30004948FCF799FB494E307A062808D8DFE844
:104E400000F00A0D1013160404000120444B10E07A
:104E5000012062A30DE001205AA30AE0012053A320
:104E600007E001204BA304E0012044A301E001205E
:104E70003CA3CDE90000384804210022FCF72EFDB8
:104E80007078042808D8DFE800F0030B0F13170030
:104E9000012003215B4B14E0F84803215A4B0EE03C
:104EA000F6480321564B0AE0F4480321534B06E031
:104EB000F2480321504B02E0F04803214D4B90F89B
:104EC0002100CDE90010244800210822FCF706FD4E
:104ED0004E48007968B1204D01204D4B1621182213
:104EE000CDE900002846FCF7F9FC00200290494873
:104EF00010E0E24F184D0121454B182297F8210090
:104F0000CDE9001028461621FCF7E8FC97F82100AF
:104F10000290414801900820642118220823009043
:104F20002846FCF78FFC0C4801F022F901200125EE
:104F3000FBF72EFD06284FF0020008BF3570FBF787
:104F400027FD062807D1A068002808BFFEBDCB4971
:104F5000486001210174FEBD480E0020800400203D
:104F600026A7000820202020526576657273655FB1
:104F700047617020202020200000000020202020F9
:104F8000526576657273655F52657420202020201B
:104F9000000000002020466F72776172645F4D65EB
:104FA0006173757265202020000000002020456E8E
:104FB000636F6465725F4175746F43616C69202033
:104FC0000000000020202020202044697361626CD2
:104FD000652020202020202000000000202020200C
:104FE0002020496E76616C696420202020202020DA
:104FF00000000000F2A7000880A7000803A800082E
:105000005DA7000815A7000804A70008DA00002023
:10501000C8A700086C840008E47F00082DE9FF475A
:105020002D4D80462846FCF79FFADFF8BC900126FC
:105030002AA3284601210022CDE90066C8472B4F4C
:10504000DFF8ACA00B2428463D2100227B68CDE987
:1050500000460296D04727A3284601210822CDE921
:105060000066C847BB6828463D210822CDE90046B6
:105070000296D04722A3284601211022CDE90066DE
:10508000C847FB6828463D211022CDE9004602961C
:10509000D0471EA3284601211822CDE90066C84743
:1050A0003B6928463D211822CDE900460296D047AB
:1050B000284601F05DF80220FBF76AFC062809D1BA
:1050C000D8F80800002808BFBDE8FF876B49486092
:1050D00001210174BDE8FF87480E00206463655F0D
:1050E0006B702020203A0000DD18000884010020A9
:1050F000C51700086463655F6B692020203A0000D3
:105100006463655F6B762020203A00006463655F0E
:105110006B642020203A00002DE9FF47264D804691
:105120002846FCF721FADFF8A090012623A32846A1
:1051300001210022CDE90066C847244FDFF890A086
:105140000B2428463D2100227B68CDE900460296CB
:10515000D04720A3284601210822CDE90066C84790
:10516000BB6828463D210822CDE900460296D0477B
:105170001BA3284601211022CDE90066C847FB6821
:1051800028463D211022CDE900460296D047284608
:1051900000F0EEFF0220FBF7FBFB062809D1D8F850
:1051A0000800002808BFBDE8FF8734494860012196
:1051B0000174BDE8FF8700BF480E00207069645F7E
:1051C0006B702020203A0000DD18000854010020F8
:1051D000C51700087069645F6B692020203A0000E1
:1051E0007069645F6B642020203A00002DE9FF4164
:1051F0001E4D80462846FCF7B7F91D4B0126284670
:1052000001210022CDE90066FCF768FB194F0B2451
:1052100028463D2100227B6BCDE900460296FCF733
:10522000D1FA154B284601210822CDE90066FCF78A
:1052300055FB3B6D28463D210822CDE900460296EC
:10524000FCF7C0FA284600F093FF0220FBF7A0FB12
:10525000062809D1D8F80800002808BFBDE8FF815A
:105260000649486001210174BDE8FF81480E002015
:10527000D5A70008380A002091A70008B80100202F
:105280002DE9FE43DFF8405400248046047428468C
:10529000FCF76AF9DFF8340408270121002208230B
:1052A0000294009701902846FCF7CCFADFF820041E
:1052B0000294702100220823CDE900702846FCF7F3
:1052C000C1FADFF81064DFF81094707899F80010D4
:1052D00081420DD1DFF80C040294782100220823CA
:1052E000CDE90070DFF8E003FCF7ACFA012512E02D
:1052F000DFF8E80378210022082390F82150DFF836
:10530000E0030295CDE90070DFF8BC03FCF79AFAE0
:10531000002D18BF012599F80000A0F120011329E4
:105320000FD8DFE801F00A171B1F424242424242F7
:1053300042424242424223272B2F0120DFF83434DD
:105340002BE0102822D0012824D070BB0120DFF8E8
:10535000303422E001200FF208431EE001200FF25A
:10536000EC331AE001200FF2D03316E001200FF2E7
:10537000B43312E001200FF298330EE001200FF257
:105380007C330AE001200FF2603306E00120DFF8F1
:10539000E83302E00120DFF8E433CDE90005DFF86F
:1053A000280309210022FCF799FA96F84600A8B1D3
:1053B000DFF82843DFF810530121DFF8C833182243
:1053C00094F82100CDE9001028460021FCF786FA68
:1053D00094F821000290DFF808030FE0DFF8E852AC
:1053E0000120DFF8A033002118220024CDE90000BD
:1053F0002846FCF773FADFF8EC02029401900820CB
:105400001E211822082300902846FCF71BFA96F864
:10541000580098B1DFF8C442AB4D0121DFF8683382
:10542000182294F82100CDE9001028462D21FCF720
:1054300055FA94F821000290A9480DE0A24D0120F0
:10544000DFF844332D211822CDE900002846FCF76F
:1054500045FA00200290A348019008204B21182211
:10546000082300902846FCF7EDF9DFF820030079C7
:1054700070B1954D0120DFF818335A211822CDE97B
:1054800000002846FCF72AFA00200290954811E017
:10549000924C8D4D0121DFF8F832182294F821004A
:1054A000CDE9001028465A21FCF718FA94F821009B
:1054B00002908B4801900820782118220823009040
:1054C0002846FCF7BFF93179A1F12000132800F23A
:1054D0006F80DFE800F00A2846737D7D7D7D7D7D4D
:1054E0007D7D7D7D7D7D0A28460A774DAB4B01246D
:1054F00001210822CDE900442846FCF7EFF9336B7F
:105500000B2728463D210822CDE900740294FCF7C0
:1055100059F9A34B284601211022CDE90044FCF79C
:10552000DDF9B36A3BE0684D9A4B01240121082262
:10553000CDE900442846FCF7D1F9736B0B272846C8
:105540003D210822CDE900740294FCF73BF9924B0F
:10555000284601211022CDE90044FCF7BFF9F36988
:105560001DE0594D934B012401210822CDE900444F
:105570002846FCF7B3F9B6F938300B2728463D2109
:105580000822CDE900740294FCF71CF98A4B2846E6
:1055900001211022CDE90044FCF7A0F9336D284623
:1055A0003D211022CDE900740294FCF70BF90FE0C5
:1055B00010290DD101200321804B02E0012003219D
:1055C00078A3CDE90010404800210822FCF786F9B5
:1055D0003D4800F0CDFD0120FBF7DAF905282AD17E
:1055E00099F80000A0F1200113290DD8DFE801F09F
:1055F000140A16181414141414141414141414146F
:105600001A1C1E20202014E0022801D2002010E0E5
:10561000102801D101200CE010200AE0212008E030
:10562000222006E0232004E0302002E0312000E0C8
:10563000322089F800000220FBF7AAF905282AD1B8
:1056400099F80000A0F1200113290DD8DFE801F03E
:105650001214161810101010101010101010101036
:105660001A1C0A0A332014E080B1102810D0012837
:1056700010200EE021200CE022200AE0232008E088
:10568000302006E0312004E0322002E0012000E07A
:10569000202089F800000120FBF77AF9062804BFD2
:1056A00099F8000070700220FBF772F9062809D102
:1056B000D8F80800002808BFBDE8FE830749486005
:1056C00001210174BDE8FE83480E0020DC7E000845
:1056D000547E0008380A002008000020B80100208D
:1056E000E47F00086C84000850554C5345204C6FF3
:1056F000636174696F6E20202000000050574D20B8
:1057000043757272656E74202020202020000000F6
:1057100050574D20537065656420202020202020A4
:105720002000000050574D204C6F636174696F6E0C
:1057300020202020200000004469676974616C20EB
:10574000547261636B202020200000004469676967
:1057500074616C2043757272656E742020000000C5
:105760004469676974616C2053706565642020200A
:10577000200000006EA7000870A60008D2A600084E
:105780004BA70008ECA70008E0A70008DA000020FB
:10579000E6A70008B2A70008BDA700089CA700085C
:1057A000A7A70008202020202020547261636B20CE
:1057B00020202000D5A7000891A70008E4A6000833
:1057C000826942B1136802E01A4652F80C3F002B7E
:1057D000FAD11160886070472DE9FE4380468769E1
:1057E000007C002800F0B780002088F81000786066
:1057F000396841B101220B4600E00132DB68002B21
:10580000FBD17A6000E00022531EC7E903007861F3
:1058100017E0BE689D19B5FBF2F404FB1255A842CF
:1058200008BFF960B04206F10106B6FBF2F508BF09
:10583000396105FB1266B04208BF7961C96811B1D0
:1058400001309042E5D3E14D2846FBF78DFE01265D
:105850000020DFF81896002100225F23CDE9000622
:105860002846C8471F24284600211F225F23CDE970
:105870000046C8472846002100220023CDE9004603
:10588000C8472846032100220323CDE90046C84724
:105890007868022825D31D284FF00101EE4E4FF005
:1058A00001099EBFC1B21E22B2FBF1F10138BA68F4
:1058B000C1F11E035A430123B2FBF0F00144013051
:1058C000C5B2CCB2304601212A46CDE90049FBF7EA
:1058D00059FE304602212A460223CDE90049FBF752
:1058E00051FEF86840B10368012005210122CDE98D
:1058F0000000D948FBF7F2FF386948B1036800207F
:1059000002210A22CDE90010D3480521FBF7E6FF6A
:10591000786940B10368012005211722CDE9000014
:10592000CD48FBF7DBFF3869406828B12022012110
:10593000CDE90020029105E001200290224801906B
:1059400020200090F048602100222023FBF77AFFFE
:10595000ED4800F00DFC01200124FBF719F80528A3
:1059600006D188F81040B86800B978680138B86086
:105970000220FBF70DF8052809D1012088F8100056
:10598000D7E901010131814228BF0021B96001201E
:10599000FAF7FEFF062805D1386918B1E4494860D6
:1059A000012101740220FAF7F3FF062809D1D8F883
:1059B0000800002808BFBDE8FE83DD4948600121DA
:1059C0000174BDE8FE8300BFD47C00082DE9FF41CF
:1059D0001E4D80462846FBF7C7FD01261CA328461E
:1059E00001210022CDE90066FBF778FF1B4F0B2455
:1059F00028463D2100223B88CDE900460296FBF770
:105A0000E1FE17A3284601210822CDE90066FBF735
:105A100065FF7B8828463D210822CDE90046029695
:105A2000FBF7D0FE284600F0A3FB0220FAF7B0FFF8
:105A3000062809D1D8F80800002808BFBDE8FF8172
:105A4000BB49486001210174BDE8FF81480E002078
:105A50007072696D6576616C203A0000DA00002092
:105A60007265637469667920203A0000FEB51D4DA9
:105A700004462846FBF778FD214E01271AA3284645
:105A800000210022CDE90077B0471EA3284600215F
:105A90000822CDE90077B0471DA328463621082209
:105AA000CDE90077B0471DA3284600211022CDE99B
:105AB0000077B0471FA3284600211822CDE90077C0
:105AC000B047284600F054FB0220FAF761FF062891
:105AD00007D1A068002808BFFEBDE5494860012144
