:020000040800F2
:100000003813002001010008BD3D0008F92B00084D
:10001000E930000825030008A9510008000000008D
:100020000000000000000000000000001948000867
:10003000790F000800000000F13D0008B14A0008F7
:100040001B0100081B0100081B0100081B01000820
:100050001B0100081B0100081B0100081B01000810
:100060001B0100081B0100081B0100081B01000800
:100070001B0100081B010008390F0008450F00088C
:100080001B0100081B0100081B0100081B010008E0
:10009000215100081B0100081B0100087D0F00080A
:1000A0001B0100081B0100081B0100081B010008C0
:1000B0001B010008C14B00081B0100081B010008C0
:1000C0001B0100081B0100081B0100085547000820
:1000D0001B010008B95000081B0100081B010008A3
:1000E0001B0100081B0100081B010008DFF80CD0F1
:1000F00000F006F9004800479D530008381300201F
:100100000648804706480047FEE7FEE7FEE7FEE7B1
:10011000FEE7FEE7FEE7FEE7FEE7FEE7714B0008BD
:10012000ED00000840EA01039B0703D009E008C97D
:10013000121F08C0042AFAD203E011F8013B00F8AC
:10014000013B521EF9D27047D2B201E000F8012BF8
:10015000491EFBD270470022F6E710B513460A4647
:1001600004461946FFF7F0FF204610BD80EA010261
:1001700010B502F00043400022D04A001FD0010E0B
:1001800001EB1261C0F35600C2F3560240F40000C6
:1001900042F40002A0FB022000047F39140400D0C6
:1001A000401C50EA124001D44000491EC2B20C0665
:1001B00004EBD010401C4008802A02D003E000204D
:1001C00010BD20F00100002900DA0020184310BD06
:1001D00030B480EA010202F0004530F0004221F024
:1001E000004013D090B1C30DD40DC2F31601C0F37B
:1001F0001600E41A41F4000140F400027D349142FB
:1002000001D3641C00E04900002C02DA30BC00205D
:1002100070474FF400000023914201D3891A034331
:1002200040084FEA4101F7D151B1914202D14FF05C
:10023000004105E002D24FF0010101E06FF0010141
:1002400003EBC450284430BC00F022B8C10F80EA50
:10025000E0700844CA079623002100F022B800F09D
:10026000004220F00040C10DC0F3160040F4000031
:100270007F2901DA00207047962903DCC1F196013D
:10028000C84001E096398840002AF4D040427047C7
:100290000029A8BF7047401C490008BF20F001009A
:1002A000704710B4B0FA80FC00FA0CF050EA010478
:1002B00004BF10BC704749B1CCF1200421FA04F40A
:1002C00011FA0CF118BF012121430843A3EB0C01E3
:1002D000CB1D4FEA00614FEA102042BF002010BC46
:1002E000704700EBC35010440029A4BF10BC7047F6
:1002F000401C490008BF20F0010010BC70470000FE
:10030000064C074D06E0E06840F0010394E8070062
:1003100098471034AC42F6D3FFF7ECFE3C5D000882
:100320005C5D0008FEE7000080B503F089FD002059
:1003300040F2C801C2F20001002200BF21F83200E1
:1003400001EBC20358600132032AF7D180BD0000DF
:100350002DE9F047002440F24816C2F2000600BF23
:1003600006EB4405B5F8C411688E4FF4804200F0E6
:1003700093FD68860134C92CF2D1B6F8C011708E95
:100380004FF4804200F0CCFD002872D004464FF0BC
:1003900000054FF00000C8BF012086F8560300BFDB
:1003A00006EB4500418E808E4FF4804200F0B8FD90
:1003B0000028014648BF41427A295EDA27295CDDE0
:1003C00000285CD0012803DB002C03DC57E000BFD1
:1003D000012C54DA681CA91CC8290546E0D396F8FC
:1003E00056034FF0000806F1320A43F6FF79002564
:1003F00000B300BF6C1C2046C82100F08BFD3AF80A
:1004000010702846C82100F085FD3AF81000874298
:100410003EBFA9EB0000C6E9D65008F10108C82C80
:100420002546E7D1B8F1010F1FD100207070BDE85B
:10043000F08700BF6C1C2046C82100F06BFD3AF825
:1004400010702846C82100F065FD3AF81000874278
:1004500082BFA9EB0700C6E9D65008F10108C82CF5
:100460002546E7D1B8F1010FDFD003207070BDE859
:10047000F08701207070BDE8F087022000E00120C5
:100480007070681C7060BDE8F087000040F2481092
:10049000C2F200000021416001800172C160C0E928
:1004A000D611C0F860137047B0B540F24814C2F2DC
:1004B0000004207A062857D8DFE800F004162857F1
:1004C0006675A400207800284ED0E0684FF47A7159
:1004D00003F09CFD002020824FF44841E16001219F
:1004E000217260706060B0BDE0680230E0604FF47F
:1004F0007A7103F08BFDE068B0F5C83F18BFB0BD5E
:10050000022020724FF44840E060B0BDE568280644
:100510001CD1208A411C218204EB400040F27472FD
:10052000C2F200021288428288B2102810D104F16F
:10053000120010214FF4804200F0C0FCA5F54841A4
:10054000090A04EB4101488600202082681CE06013
:10055000E0684FF47A7103F059FDE068B0F5C83FE8
:1005600082BF03202072B0BDB0BDE0680130E06002
:100570004FF47A7103F04AFDE068B0F5D23F02BF54
:1005800004202072B0BDB0BDE0680138E0604FF4D7
:100590007A7103F03BFDE068B0F5C83F02BF05206B
:1005A0002072B0BDB0BDE56828061DD1208A411C6F
:1005B000218204EB400040F27472C2F20002128801
:1005C000428288B2102811D104F1120010214FF498
:1005D000804200F073FCA5F54841090A04EB410193
:1005E000A1F8C40100202082681EE060E0684FF49A
:1005F0007A7103F00BFDE068C00A18289CBF062042
:100600002072B0BD00200021BDE8B04003F0FEBC68
:100610002DE9F04F85B040F24819C2F2000999F86F
:100620000800062840F07D8103F06AFDFFF790FE88
:1006300099F80100002840F05C810020C9F86003AF
:1006400040F20804C2F20004204604F0C3F9204638
:1006500004F0B8F9D9F8585399F85603002800F077
:100660009B80D9F8587307F1C900854280F229812F
:1006700009F13200019040F2080BC2F2000B0DF1BB
:10068000120800BF05F1010A5046C82100F042FCE3
:10069000019E36F810402846C82100F03BFC36F891
:1006A000101020464FF4804200F03AFC0446BD4250
:1006B000CDE902A522D1D9F85C73A74262DA4FEAEC
:1006C000072A0398060200BF9AFBF4F030444FF467
:1006D000484100F01FFCADF8120058464146012287
:1006E00004F0AEF9D9F860030130C9F860030AF5E7
:1006F000807A0137BC42E7D144E000BF07F1C8006F
:10070000854221D1D9F85C0301283BDB039807021D
:100710000026002596FBF4F038444FF4484100F0E1
:10072000F9FBADF8120058464146012204F088F961
:10073000D9E9D7010131C9F8601306F58076013592
:100740008542E7DB1EE000BF012C1BDB039807029C
:100750000026254696FBF4F038444FF4484100F05B
:10076000D9FBADF8120058464146012204F068F961
:10077000D9F860030130C9F8600306F58076013DC1
:10078000E8D100BFD9F8587307F1C8000399814236
:10079000029DFFF677AF94E0D9F85843C835A542DB
:1007A000C0F28F8009F13201029140F2080BC2F2CF
:1007B000000B0DF1120800BF2846C82100F0AAFB6B
:1007C000029E36F8107005F1010A5046C82100F06B
:1007D000A1FB36F8101038464FF4804200F0A0FB21
:1007E000074604F1C8008542039521D1D9F85C433E
:1007F000BC425FDA50464FEA042A06029AFBF7F041
:10080000301A4FF4484100F085FBADF8120058460D
:100810004146012204F014F9D9F860030130C9F807
:1008200060030AF5807A0134A742E7D142E000BFB5
:10083000A54221D1D9F85C0301283BDB4FEA0A2409
:100840000026002596FBF7F0201A4FF4484100F0EF
:1008500061FBADF8120058464146012204F0F0F861
:10086000D9E9D7010131C9F8601306F58076013561
:100870008542E7DB1EE000BF012F1BDB4FEA0A24A5
:1008800000263D4696FBF7F0201A4FF4484100F051
:1008900041FBADF8120058464146012204F0D0F861
:1008A000D9F860030130C9F8600306F58076013D90
:1008B000E8D100BFD9F8584303994D1EA1423FF734
:1008C0007BAF40F20800C2F2000004F0B7F8D9F89C
:1008D0006003B0F5804F09D199F8010048B940F2A2
:1008E0007470C2F20000012101710EE0042089F849
:1008F000010040F27470C2F200000021017140F268
:100900000800C2F2000004F065F8002089F8080031
:1009100040F2D861C2F20001012281F8582089F822
:10092000000005B0BDE8F08F41EA004070470000CC
:10093000014640F2D862C2F200021065906A0129B5
:1009400004DB00F58070D06403F060BB002918BFA1
:10095000A0F58070D06403F059BB000010B540F2E0
:100960000814C2F20004207818B94FF47A7000F02D
:1009700041F8607818B94FF4A07000F029F8A07819
:1009800018B94FF4487000F047F8E07818B94FF400
:10099000167000F00BF80020C4E90500C4E9070058
:1009A000C4E90900C4E90B0010BD0000B0F5806F78
:1009B00006D840F20811C2F200010861012000E0EF
:1009C000002040F20811C2F20001C8707047000018
:1009D000B0F5806F06D840F20811C2F200018860BD
:1009E000012000E0002040F20811C2F2000148702E
:1009F00070470000B0F5806F06D840F20811C2F2CF
:100A000000014860012000E0002040F20811C2F21D
:100A10000001087070470000B0F5806F06D840F202
:100A20000811C2F20001C860012000E0002040F27D
:100A30000811C2F20001887070470000F0B502464C
:100A400040F2D86EC2F2000EDEF81C50DEF828002C
:100A5000131A40F20812C2F20002491BCD11C2E97A
:100A600005354FF2105CCFF6FF7CB3F5486F02DD21
:100A70004FF4486304E013F5486F02DAACF5C8732D
:100A8000536142F67F03C0F20A03994202DD41F24C
:100A9000504107E04DF2FF73CFF6F573994202DC47
:100AA000ACF516619161151D38CDD2E9056173432E
:100AB000D361976A04FB067401FB054404F07F05CB
:100AC000E611C2E90A56156A05EBE415156244F20F
:100AD0000004CFF6D474B5F52F1F03DD4FF42F15A6
:100AE000156203E0A5422546B8BF15621569166A6E
:100AF00005FB01F7576205FB013131448B1213638B
:100B00004CF20045C0F22B05A94207DB4FF42F61E0
:100B1000CEF85010116300F5807015E0A14206DA9E
:100B2000CEF850C0C2F830C0A0F580700CE0CEF80E
:100B30005030B1F5806F02DB00F5807004E0B1F158
:100B4000FF3FD8BFA0F58070CEF84C00DEF8501003
:100B5000BDE8F04003F05ABA10B540F6C024C2F226
:100B60000004207810B9642000F038F8607810B9DB
:100B7000782000F021F8A07810B9502000F00AF891
:100B80000020C4E90400C4E90600C4E90800C4E97F
:100B90000A0010BDB0F5806F06D840F6C021C2F241
:100BA0000001C860012000E0002040F6C021C2F230
:100BB0000001887070470000B0F5806F06D840F6DD
:100BC000C021C2F200018860012000E0002040F650
:100BD000C021C2F20001487070470000B0F5806F7C
:100BE00006D840F6C021C2F200014860012000E0B2
:100BF000002040F6C021C2F20001087070470000DA
:100C00002DE9F04140F6C024C2F20004D4E90136D7
:100C10002169E769616140F2D868C2F20008D8F83A
:100C20001C20821AB2F5801FA8BF4FF4801244F234
:100C3000000CCFF6D47C0CF5DE108242D8BF024601
:100C400022615343A361606A02FB060630466FF3DC
:100C50009F20B512C4E9090507EBA620E061B0F5B5
:100C60002F1F03DD4FF42F10E06103E06045604665
:100C7000B8BFE061501AE168E26901FB00F7276242
:100C800001FB003010448112E1624CF2FF31C0F2EE
:100C90002B01884202DD4FF42F6005E0604504DA45
:100CA0004FF21050CFF6FF70E062E06AC0EB001028
:100CB000420048F21F50C5F2EB1082FB00014811C0
:100CC00000EBD171C8F85010D8F82800642A02DB74
:100CD00000F5807004E012F1630FB8BFA0F58070DA
:100CE000C8F84C0003F092F9E06AC8F85000BDE87B
:100CF000F081000040F2B852C2F20002126880088F
:100D000010648808D063704780B540F2EC01C2F2ED
:100D100000014A69831A1FD0D1F810C0012B1DDBD6
:100D2000002A36DB4B689C4448F6AD33C6F6DB033D
:100D30008CFB033E4FEA6E3303EBDE7303EB020ED4
:100D400044F6206203FB12C2C1E9042E8645A4BF0B
:100D50000022C1E904204EE048614CE0002A30DD69
:100D6000C868ACEB000C48F6AD33C6F6DB038CFB71
:100D70000330431303EBD070024444F6206300FBBE
:100D800013C0C1E90402002ADCBF0020C1E904004D
:100D900031E0C868844448F6AD33C6F6DB038CFB0B
:100DA0000330431303EBD070024444F6206300FB8E
:100DB00013C0C1E90402002AA4BF0020C1E9040055
:100DC00019E04B68ACEB030C48F6AD33C6F6DB0319
:100DD0008CFB033E4FEA6E3303EBDE7303EB020E34
:100DE00044F6206203FB12C2C1E9042E8645DCBF33
:100DF0000022C1E904204869886180BD10B540F235
:100E0000EC04C2F20004207818B944F2A01000F0FB
:100E10002BF8207A18B944F2A01000F00DF8002049
:100E2000C4E90400A06110BD40F2EC01C2F200016F
:100E30000022C1E904207047002848BF4042411EFB
:100E400049F23F02C0F20202914206D840F2EC01A0
:100E5000C2F20001C860012000E0002040F2EC0175
:100E6000C2F2000108727047002848BF4042411E8C
:100E700049F23F02C0F20202914206D840F2EC0170
:100E8000C2F200014860012000E0002040F2EC01C5
:100E9000C2F2000108707047034608444010591A16
:100EA00048BF4942B1EB620FD8BF7047511088422A
:100EB000A4BF401A70470844704700002DE9F04372
:100EC000B0F800C0022919D34B1E02304FEA620E5F
:100ED000C2F100094FEA6908664600BF30F8027B9C
:100EE000A7EB0C0575454C46D8BF00244545B8BF57
:100EF0001446F5192E19013BF0D100E0664696FB29
:100F0000F1F10029B8BF1144881AD8BF0846BDE8DE
:100F1000F08300000844B0FBF1F202FB11007047BF
:100F2000401AB0EB620FC8BF801A5142B0EB610F9C
:100F3000B8BF10447047000040F21C50C2F20000DD
:100F400000F058BB40F2D840C2F2000000F052BBA3
:100F500010B5D0E90FCE012404FA0EF4CCF8044009
:100F60000468636040681028084608BF1046A06007
:100F700008BF0A46E26010BD7047000070470000DD
:100F80007047000040F6A020C2F200000021C161BD
:100F900042F21000C4F20200016841F00401016055
:100FA000016841F0400101607047000040F6A02157
:100FB000C2F200010022CA6142F21001C4F2020131
:100FC0000A6842F002020A604860086840F0400087
:100FD0000860704740F6A022C2F200020023D361ED
:100FE00042F21002C4F20202136843F001031360DC
:100FF0000180704742F20C00C4F202000168C90689
:1010000001D4002108E040F6A021C2F20001CA6923
:1010100042F00202CA6110210268520709D540F667
:10102000A022C2F20002D36943F00103D36141F070
:1010300004010269D2070BD040F6A022C2F20002DE
:10104000D36943F00403D361026922F00102026113
:1010500001607047F0B581B0044600F0FDFD054623
:1010600042F20C06C4F202063068C00711D0671CB9
:1010700004D044B9032001B0F0BD00BF3068C00700
:1010800007D0002FFAD000F0E7FD401BA042F5D9B1
:10109000F0E73068800644BF202030603068C0062A
:1010A00008D43069C00705D1306840075EBF002012
:1010B00001B0F0BDFFF79EFF012001B0F0BD0000C0
:1010C00080B584B041F21800C4F20200016841F01A
:1010D00004010160006800F004000090009840F6F0
:1010E0000000C4F201004FF4807101610122CDE9DA
:1010F00000120021029102210391694600F094FC44
:1011000004B080BD7047000010B590F82040013C4D
:10111000012C0CD8D0F800C079B1DCF81040A4073D
:101120000FD100F1240101204FF4001268E000F11A
:10113000240101204FF4802262E0DCF80C40A40777
:1011400062D00CEB011CDCF8B04114F00404946094
:101150000CF5D87EDCF8B04119BFE4085460640D8A
:101160001460DEF8004004F00204D460DCF8B441FE
:1011700004F00F041461DCF8B441C4F30724946153
:10118000DCF8B441240C5461DCF8B8211A70026810
:1011900002EB0112D2F8B821120A5A70026802EB6F
:1011A0000112D2F8B821120C9A70026802EB0112F7
:1011B000D2F8B821120EDA70026802EB0112D2F8EE
:1011C000BC211A71026802EB0112D2F8BC21120A8A
:1011D0005A71026802EB0112D2F8BC21120C9A710A
:1011E000026802EB0112D2F8BC21120EDA7100681B
:1011F000002914BF00F1100100F10C010020202291
:101200000B681A430A6010BD00F1240101204FF45D
:101210000012F5E72DE9F04F81B0044600684669F9
:10122000D0F804908768D0F80CB0D0F810A0D0F8AF
:101230001880F10703D10025300740D447E0F907B3
:101240000ED001218160B80707D4780721D4380770
:1012500029D4204600F046F902E0204600F044F987
:101260000025F80526D520684FF480718160B80507
:1012700009D4780512D438051AD4204600F036F97E
:10128000F8031AD598E0204600F032F9F80314D597
:1012900092E04FF40065F805E5D40BE005F5005544
:1012A000F8030AD588E04FF48055F805DBD401E057
:1012B00005F58045F80300F17F80300707D51BF066
:1012C000100004D020681021C16045F4007570073B
:1012D00008D51BF0080005D020680821C160204611
:1012E00000F0B2F8B00706D52068C068800702D0C9
:1012F000204600F0ABF8700607D51AF0100004D0B5
:1013000020681021016145F48065B00608D51AF007
:10131000080005D0206808210161204600F0DCF8B3
:10132000F00606D520680069800702D0204600F04C
:10133000D5F8B00308D519F0100005D020681021A9
:101340004160204600F0CCF8F00308D519F0080001
:1013500005D0206808214160204600F0CFF8300415
:1013600064D55FEA49705ED506F4807008EA102003
:1013700028435FEA8871014648BF41F00201B20587
:1013800058BF01465FEA48700D4648BF45F0040566
:10139000700558BF0D46300545D518F0700042D095
:1013A00010380009052839D8DFE800F0032A2D306D
:1013B000333645F0080531E020684FF48031816014
:1013C000B8030AD478030FD4380313D4204600F0AE
:1013D00091F830073FF573AF79E7204600F08CF8BD
:1013E00030073FF56CAF72E705F5004530073FF574
:1013F00066AF6CE705F5803530073FF560AF66E70F
:1014000045F010050AE045F0200507E045F04005ED
:1014100004E045F0800501E045F4807520688169AD
:1014200021F070018161206804214160002D04BF1A
:1014300001B0BDE8F08F606A28436062204601B0C9
:10144000BDE8F04FFFF75EBE70470000B0B58AB050
:1014500003AA01AB0021FFF757FE08B10AB0B0BDE7
:101460000398122821D01028F8D1019C02F044FAE8
:101470002025202002F080FA204602F08DFA40F26A
:10148000D860C2F20000022180F86110057140F2BC
:101490003960C2F200000121017040F61830C2F23A
:1014A0000000002101700AB0B0BD9DF804000128C1
:1014B00006D00028D2D1102002F05EFA0AB0B0BDEA
:1014C000202002F059FA40F2D860C2F20000006910
:1014D00002F062FA0AB0B0BD704700007047000029
:1014E0007047000070470000704700007047000020
:1014F0007047000070470000704700007047000010
:1015000090F82110022912D101680A6822F00E0217
:101510000A600A6822F001020A60D0E90F12012372
:1015200003FA02F24A6080F82130002102E004212F
:1015300081630121002280F82020084670470000C6
:1015400090F82110022924D101680A6822F00E02C5
:101550000A600A6822F001020A60026840F2040C84
:10156000C4F2020C2F23C4F202039A4215DD302389
:10157000C4F202039A421CD04423C4F202039A42EA
:101580001AD05823C4F202039A421AD14FF480337E
:101590001FE004218163012070470823C4F2020385
:1015A0009A420CD01C23C4F202039A4209D11023A0
:1015B0000FE04FF480730CE04FF4805309E00123F7
:1015C00007E00CF168014FF080738A4208BF4FF4C6
:1015D0008013CCF800304FF480710184416B0029F6
:1015E00004BF0020704780B58847002080BD000000
:1015F000806B704710B5D0E90FCEDCF80020016891
:101600000B685C0726D5042404FA0EF4144021D09C
:101610000A6892065EBF0A6822F004020A60026845
:101620000421C4F202012F23C4F202039A4258DDBE
:101630003023C4F202039A426BD04423C4F2020363
:101640009A4269D05823C4F202039A4269D14FF4F6
:1016500080236EE09C0729D5022404FA0EF414407E
:1016600024D00A68920606D40A6822F00A020A60A8
:10167000012180F8211002680421C4F202012F2305
:10168000C4F202039A4238DD3023C4F202039A42C4
:1016900055D04423C4F202039A4253D05823C4F2D3
:1016A00002039A4253D14FF4003358E01B075FD531
:1016B000082303FA0EF31A4008BF10BD0A6822F08F
:1016C0000E020A60012101FA0EF2CCF804208163B7
:1016D0004FF480710184016B002949D0BDE81040AE
:1016E00008470823C4F202039A4218D01C23C4F20C
:1016F00002039A4215D140231BE00823C4F20203DF
:101700009A4222D01C23C4F202039A421FD1202302
:1017100025E04FF480630CE04FF4804309E004239C
:1017200007E001F168044FF08063A24208BF4FF464
:1017300080030B60C16AD9B1BDE8104008474FF47F
:1017400000730CE04FF4005309E0022307E001F1BD
:1017500068044FF00073A24208BF4FF400130B60FF
:10176000002180F82010816A11B1BDE810400847BF
:1017700010BD0000A8B310B540F2000CC4F2020C7A
:1017800002684FF6F873CBF6FD7313444CF6CD4167
:10179000CCF6CC41A3FB01136FF0030101EA9301E6
:1017A000C0E90FC1116843F6F07321EA030CD0E9D8
:1017B0000131D0E903E443EA0C03194341EA0E0185
:1017C00021434369194383691943C369194311606C
:1017D000002181634FF480720284BDE81040084606
:1017E000704701210846704710B5044690F8200064
:1017F000012820D0012084F8200094F8210001283D
:1018000016D10020A063022084F82100D4F800C083
:10181000DCF8000020F00100CCF800002046FFF7C3
:1018200097FB2068E26A01683AB141F00E010AE0D4
:10183000002084F82000022010BD21F00401016086
:10184000016841F00A010160016841F00101016095
:10185000002010BDB0B5044600F0FEF9054640F288
:101860001800C2F200000078611C18BF044400BFD9
:1018700000F0F2F9401BA042FAD3B0BD2DE9F041CF
:10188000054640F6A028C2F2000898F81800012882
:1018900004BF0220BDE8F0810C46012088F8180042
:1018A0002E684CF25030FFF7D5FB022E02D120B14A
:1018B000012038E080B1012035E0FFF763FB4CF2F6
:1018C0005030FFF7C7FB42F21001C4F202010A6870
:1018D00022F004020A6026E04FF0FF302060D5E9D4
:1018E000026006EB802086421AD242F21007C4F250
:1018F000020700BF3046FFF759FB4CF25030FFF7AC
:10190000A9FB396821F00201396058B906F58066F3
:10191000D5E9020100EB81208642EBD3002002E0F2
:10192000012000E02660002188F81810BDE8F08151
:1019300042F21000C4F20200016841F0800101602F
:10194000002070472DE9F04F81B0814640F6A02578
:10195000C2F20005287E012802BF022001B0BDE8C6
:10196000F08F1C4692460E46012028764CF25030ED
:10197000FFF770FBD8BBB9F1020F4F4618BF042721
:10198000B9F1010F08BF4F46002042F21005C4F222
:1019900002054FF020096FF01F0B4FF0000800BF49
:1019A000A9EB001104FA01F102012AFA02F2114333
:1019B0000BEB0012002AA8BF24FA02F189B206EB51
:1019C0004000FFF707FB4CF25030FFF743FB29685C
:1019D00021F00101296030B908F101085FFA88F0AF
:1019E0008742DDD8002040F6A025C2F20005002184
:1019F000297601B0BDE8F08F42F20400C4F2020083
:101A0000C16809065CBF0020704740F22311C4F290
:101A10006751016048F6AB11CCF6EF510160C06828
:101A2000C0F3C010704700002DE9F04F82B00E687F
:101A3000002E00F0018141F20042C4F201020423B1
:101A4000904208BF03230093002340F2004EC4F2EB
:101A5000010E01254FF6FF7CC1F2100C0F274FF04D
:101A6000000A4FF0000900BF05FA0AFB16EA0B084E
:101A700000F0D9804C68644510DC122C50D8DFE8A7
:101A800004F0330A41454F4F4F4F4F4F4F4F4F4F89
:101A90004F4F4F484C00D1F80C9041E04FF6FF7289
:101AA000C1F2210294420FDC0022C1F211029442E1
:101AB0001AD00022C1F21202944215D00022C1F2C3
:101AC0002102944210D02BE00022C1F22202944263
:101AD0000AD00022C1F23102944205D00022C1F2A4
:101AE000320294421CD100BF8A6842B1012A14BF5D
:101AF000C0F814B0C0F810B04FF0080910E04FF073
:101B000004090DE0CA6802F1080909E04FF0000974
:101B100006E0CA6802F1040902E0CA6802F10C0991
:101B2000B8F5807F1A4628BF203A07FA02F44FF032
:101B30000F07054628BF04352E6826EA040409FA73
:101B400002F222432A60CA79D20603D40F27012564
:101B500069E000BFE34641F21802C4F202021446F3
:101B6000126842F001022260226802F00102019232
:101B700003F00C0607FA06F2019C4FEA9A04AEF550
:101B80007E7757F8245025EA020C40F60002C4F292
:101B90000102904212D040F60042C4F2010290428B
:101BA0000AD041F20002C4F201029042009A4FF0C2
:101BB000010508BF022203E0012200E00022012506
:101BC000B24042EA0C0247F824204E68F203DEF8E5
:101BD000002054BF22EA080242EA0802DC460F272E
:101BE000CEF80020B203DEF8042054BF22EA080237
:101BF00042EA0802CEF80420F202DEF8082054BFC0
:101C000022EA080242EA0802CEF80820B20240F2B4
:101C10000C42C4F201021446126854BF22EA0802C0
:101C200042EA080222600AF1010A0E6836FA0AF254
:101C300003F104037FF418AF02B0BDE8F08F000099
:101C40008068084018BF012070470000002A08BFC4
:101C5000090401617047000040F63430C2F2000010
:101C60000068704740F21800C2F20000007840F6A9
:101C70003431C2F200010A68104408607047000065
:101C800080B542F20000C4F20200016841F0100188
:101C90000160032000F062F8002000F005F800F079
:101CA00029F8002080BD0000B0B5044640F21800BD
:101CB000C2F2000000784FF47A71B1FBF0F040F20C
:101CC0000401C2F200010968B1FBF0F000F02AFD46
:101CD00001250F2C0CD858B900254FF0FF302146B4
:101CE000002200F02BF840F21C00C2F20000046059
:101CF0002846B0BD82B041F21800C4F2020001686B
:101D000041F001010160016801F0010101910199B7
:101D1000416841F080514160406800F0805000907F
:101D200000980420C4F201000168022262F31A61E3
:101D3000016002B07047000003F038BA70B5144675
:101D40000D46064603F042FA2946224602F038F8CC
:101D500001463046BDE8704003F040BA03F050BA87
:101D60002DE9F04182B004460078C00741F21C061C
:101D7000C4F202065FD03068C0000BD4306840F077
:101D800080503060306800F08050019001984FF032
:101D9000010801E04FF0000847F20007C4F2000715
:101DA0003868C00512D4386840F480703860FFF796
:101DB00053FF05463868C00508D4FFF74DFF401BA8
:101DC0006428F7D9032002B0BDE8F081706810F4F0
:101DD000407023D0616801F4407188421ED0706861
:101DE00040F24041C4F2422101220A6000220A600E
:101DF00020F440717160C00710D0FFF72DFF054639
:101E000041F288377068800708D4FFF725FF411B2F
:101E10000320B942F6D902B0BDE8F081706861686C
:101E200020F4407008437060B8F1000F1EBF3068A6
:101E300020F0805030602068810707D556F8181CC4
:101E4000A26821F44041114346F8181CC0065EBF49
:101E5000002002B0BDE8F08156F8180CE16820F4CB
:101E60008000084346F8180C002002B0BDE8F0815D
:101E70002DE9F04381B0002800F0AE800D46044605
:101E800042F20008C4F20208D8F8000000F007008F
:101E900088420DD2D8F8000020F007002843C8F887
:101EA0000000D8F8000000F00700A84240F094803D
:101EB0002068810741F20409C4F2020917D54107DD
:101EC00042BFD9F8001041F4E061C9F800100107E1
:101ED00042BFD9F8001041F46051C9F80010D9F898
:101EE0000010A26821F0F0011143C9F80010C007EA
:101EF0002DD06068012804D159F8041C89036BD5E2
:101F000008E059F8041C022802D1890164D501E0D7
:101F1000890761D5D9F8001021F003010843C9F8F9
:101F20000000FFF799FE064641F28837D9F8000015
:101F3000616800F00C00B0EB810F08D0FFF78CFE59
:101F4000801BB842F2D9032001B0BDE8F083D8F875
:101F5000000000F00700A8420CD9D8F8000020F0DB
:101F600007002843C8F80000D8F8000000F0070078
:101F7000A84231D12068410707D5D9F80010E2689E
:101F800021F4E0611143C9F80010000708D5D9F821
:101F90000000216920F4605040EAC100C9F8000047
:101FA00000F048F8D9F80010C1F3031145F22052AF
:101FB000C0F60002515CC84040F20401C2F20001C8
:101FC000086040F21C00C2F200000068FFF76CFEDF
:101FD000002001B0BDE8F083012001B0BDE8F0832E
:101FE00040F20400C2F200000068704780B5FFF7BD
:101FF000F7FF41F20401C4F202010968C1F30221B2
:1020000045F23052C0F60002515CC84080BD00006D
:1020100080B5FFF7E5FF41F20401C4F2020109684F
:10202000C1F3C22145F23052C0F60002515CC840F3
:1020300080BD000041F20401C4F202010A6802F00E
:102040000C0341F60030C0F2B700042B08BF704704
:10205000082B0CD1C2F3834C0CA313F80C30D20321
:102060000AD440F60010C0F23D005843704741F2D8
:102070000020C0F27A00704758430968C1F340411C
:1020800006A2515CB0FBF1F0704700BF02030405EB
:10209000060708090A0B0C0D0E0F101001020000B4
:1020A0002DE9F04182B0002800F046810446007816
:1020B000C00741F20006C4F202064AD0706800F080
:1020C0000C00042817D0706800F00C00082802D11A
:1020D0007068C0030FD4606898B1B0F5803F06D037
:1020E0003168B0F5A02F21D141F4802030603068F4
:1020F00040F4803020E0306880032AD5606840BB1F
:102100001AE1306820F480303060306820F480209C
:102110003060FFF7A1FD05463068800319D5FFF751
:102120009BFD411B03206429F6D94CE121F480304A
:102130003060306820F480203060FFF78DFD054668
:102140003068800305D4FFF787FD401B6428F7D96A
:10215000D2E0207880072FD5706810F00C0F07D0E0
:10216000706800F00C0008280AD17068C00307D41A
:102170003068800719D52069012840F0DD8014E01F
:1021800021690020C4F2422000297AD00121016097
:10219000FFF762FD054600BF3068800705D4FFF7F2
:1021A0005BFD401B0228F7D9A6E03068616920F08A
:1021B000F80040EAC10030602078000727D5A06908
:1021C00088B10020C4F242200121C0F88014FFF73A
:1021D00043FD0546706A800717D4FFF73DFD401B9D
:1021E0000228F7D988E00020C4F242200021C0F87C
:1021F0008014FFF731FD0546706A800707D5FFF7A9
:102200002BFD401B0228F7D976E001F0F3FD207882
:10221000400740F17C80F069C0000BD4F06940F0C9
:102220008050F061F06900F08050019001984FF00B
:10223000010801E04FF0000847F20007C4F2000770
:102240003868C0050FD4386840F480703860FFF7F4
:1022500003FD05463868C00505D4FFF7FDFC401BAB
:102260006428F7D948E0E068D8B1012805D0316A80
:1022700005282DD141F004003062306A40F00100A1
:102280002CE000210160FFF7E7FC0546306880077D
:102290007FF592AFFFF7E0FC411B03200229F5D93F
:1022A00091E0306A20F001003062306A20F00400D2
:1022B0003062FFF7D1FC054641F28837306A80076B
:1022C0001ED5FFF7C9FC411B0320B942F6D97AE0BD
:1022D00021F001003062306A20F004003062FFF724
:1022E000BBFC054641F28837306A800708D4FFF707
:1022F000B3FC401BB842F7D9032002B0BDE8F0811F
:10230000B8F1000F1EBFF06920F08050F061E7695E
:10231000002F57D0706800F00C00082810D1012F52
:102320000AD07068216A00F480328A4204D1616A5E
:1023300000F47010884245D0012002B0BDE8F08161
:1023400040F20008C4F242280020C8F86000FFF7FD
:1023500083FC0546022F09D13068800110D5FFF7B4
:102360007BFC411B03200229F6D92CE03068800158
:1023700028D5FFF771FC411B03200229F6D922E082
:10238000206AB0F5803F05D17168A26821F4003160
:10239000114371607168626A104321F4741108433B
:1023A00070600120C8F86000FFF756FC044600BFCB
:1023B0003068800106D4FFF74FFC011B032002297F
:1023C000F6D900E0002002B0BDE8F08170470000BF
:1023D00010B584B004460068416882684B0605D594
:1023E00002F04103012B01D1216C05E00B0608D559
:1023F00012F0020305D0616C204604B0BDE8104025
:1024000008478B065AD512F0600357D012F04003EC
:1024100016D094F85130032B07D100210291C168E6
:10242000029180680290029848E0636D43F00403D3
:10243000636500230393C368039383680393039B3B
:1024400012F020020CD0626D42F00102626500229F
:10245000019282680192026822F040020260019AB1
:10246000626D5AB3426822F0E0024260012284F8B1
:102470005120890724D0416821F003014160E06CBC
:1024800060B144F26171C0F600014163FFF758F892
:1024900000281EBF606D40F040006065A06C68B110
:1024A00044F26171C0F600014163FFF749F828B1B9
:1024B000606D40F04000606504B010BD04B010BD18
:1024C000204604B0BDE81040FFF780BFB0B5A8B308
:1024D00005460024846290F8510020B985F85040E8
:1024E000284600F02FF8022085F85100286801687E
:1024F00021F040010160D5E901C2D5E9033142EA8A
:102500000C021A4311436A691143AA6902F4007369
:102510001943EB6919432B6A1943AB6A19430160EC
:10252000042101EA12414160C16921F40061C161E5
:102530006C65012085F851002046B0BD012420467D
:10254000B0BD0000704700002DE9F04381B00446A3
:1025500090F85000012802BF022001B0BDE8F083CE
:102560001E4615460F46012084F85000FFF774FB05
:10257000814694F8511001290BD06068B0F5827F34
:1025800074D10220042940F0C380A168002940F0E2
:10259000BF800120002F18BF002D00F0B980002E51
:1025A00000F0B68094F8510004281CBF052084F880
:1025B000510000206065E687A563A6872763A6868D
:1025C000C4E91000E6862068016849065EBF01681C
:1025D00041F040010160DDF820806168E268B1FAF5
:1025E00081F14909731EB3FA83F35B091943B2F50C
:1025F000006F3DD139B1216B0988C160B81C2063DF
:10260000E08E0138E086012608F10105E08E10B960
:10261000E08F002868D02068816889070DD5E18E99
:10262000012E0AD149B1216B0988C160216B0231A9
:102630002163E18E0139E18600268168C9070BD04C
:10264000E18F49B1C068A16B0880A06B0230A06324
:10265000E08F0138E0870126FFF7FEFA002DD5D084
:10266000A0EB09004045D1D3032051E002204FE008
:1026700039B139780173206B01302063E08E013865
:10268000E086012608F10105E08E08B9E08F58B315
:102690002068816889070DD5E18E012E0AD149B1E4
:1026A000216B09780173206B01302063E08E0138C3
:1026B000E086002620688168C9070BD0E18F49B108
:1026C000C068A16B0870A06B0130A063E08F013877
:1026D000E0870126FFF7C0FA002DD5D0A0EB090056
:1026E0004045D1D3032013E0204641464A4602F03C
:1026F0003DF818B120206065012009E0A1680020A4
:1027000031B900902168CA680092896800910099E7
:10271000002184F85010012184F8511001B0BDE867
:10272000F083000002F0ACB990F83C300222012B9B
:1027300019D080B580F83D2002685368D2F808C0EF
:1027400023F0700ED1E9003143EA0E0353602CF000
:10275000800319439160002280F83C20012180F819
:102760003D10BDE8804010467047000070B50D4632
:10277000044690F83C100220012908BF70BD84F87F
:102780003D00012684F83C604FEAB200032836D8A9
:10279000DFE800F0020A12222068294602F058FA07
:1027A000206850F8181F0EE02068294602F07EFAD3
:1027B000206850F8181F16E02068294602F0A8FA91
:1027C000206850F81C1F41F008010160016821F0E9
:1027D0000401016029690FE02068294602F0CAFA65
:1027E000206850F81C1F41F400610160016821F469
:1027F00080610160296909020268114301600020BB
:1028000084F83C0084F83D6070BD0000002804BFDF
:102810000120704710B5044690F83D0028B900200B
:1028200084F83C00204600F00DF8022084F83D00BA
:102830002068211D02F0C6F9012084F83D00002027
:1028400010BD00007047000010B50446006801226A
:1028500002F0EEF9206842F64441C4F20101A1F110
:102860004402904203D10A6842F400420A6081683F
:1028700001F0070106291EBF016841F00101016056
:10288000002010BD10B504460068C16821F49071A5
:10289000C160416921F0010141614169490613D5D7
:1028A000416921F040014161606B68B100214163E1
:1028B000FEF726FE40B1606BFEF79AFE202803D19A
:1028C0001020E063032010BD0020E085202184F863
:1028D0003A1010BD7047000010B504460268106839
:1028E000D16853695FEA007C52D001F4907203F022
:1028F0000103D21850D0C2071FBF11F48072E26BDF
:1029000042F00102E263420705D5002B1EBFE26BD5
:1029100042F00202E263820705D5002B1EBFE26B84
:1029200042F00402E263BCF1000F05D5002B1EBF8C
:10293000E26B42F00802E263E26B002A4BD00840EF
:10294000800602D5204602F009FB2068406900F0AD
:102950004000E16B01F00801401837D0204602F03A
:10296000A9FA2068416949062BD5416921F0400147
:102970004161606B28B344F6C151C0F60001416368
:10298000FEF7DEFD38B3606B416BBDE810400847D1
:1029900001EA000292060FD40840010607D440065F
:1029A00058BF10BD2046BDE8104002F091BA204645
:1029B000BDE8104002F056BB2046BDE8104002F0D2
:1029C000CDBA2046BDE81040FFF784BF2046FFF790
:1029D00081FF0020E06310BD002804BF0120704784
:1029E00010B5044690F8390028B9002084F8380062
:1029F000204600F021F8242084F839002068C168BE
:102A000021F40051C160204602F0E4FA2068016917
:102A100021F490410161416921F02A014161C168BD
:102A200041F40051C1600020E063202184F8391096
:102A300084F83A1010BD000070470000B0B582B0B5
:102A4000054690F83A00202809D113460A4641B1BC
:102A50004BB195F83800012807D102243AE002244E
:102A600038E0012436E0012434E00024EC63AA625B
:102A7000012085F83800AB85222085F83A00686B84
:102A800044F6556CC0F6000C44F61D61C0F600011A
:102A900044F6CD5EC0F6000E00F1280787E802502C
:102AA000446329680431FEF79FFE01942868016899
:102AB000019141680191019985F83840C16841F45C
:102AC0008071C160416941F001014161416941F09A
:102AD00040014161204602B0B0BD000070B501F078
:102AE0009DFE60B304460068FFF7CCFEA068006856
:102AF0004068C0F58070A4F80E0304F5037504F572
:102B0000867682B228463146FDF70CFBB4F80E03F8
:102B1000D4F814130844C4F81403206831464FF461
:102B20008072FFF78BFFB4F80E13022938BF70BD17
:102B3000D4F818231AB12846BDE87040104770BD7C
:102B400070470000B0B5054690F83900202806D13E
:102B500041B1134632B195F83800012805D102245D
:102B60002046B0BD01242046B0BDEB840024EC63B8
:102B70002962012085F83800AB84212085F83900CE
:102B8000286B44F6856CC0F6000C44F65D62C0F616
:102B9000000244F6CD5EC0F6000E00F1280787E87B
:102BA000045044632A680432FEF71EFE28686FF062
:102BB0004001016085F83840416941F08001416180
:102BC0002046B0BD10B501F029FE002808BF10BD99
:102BD0000446002102F05AF9206804F586714FF48A
:102BE0008072FFF72BFFD4F81C0310B1BDE8104032
:102BF000004710BD70470000FEE7000040F25C6136
:102C0000C2F20001886048610A68D1E903C3C1E9E2
:102C10000002801AC3EB831244F6206300FB0320FA
:102C2000604482110A6100F03F00C8608A61704709
:102C300040F25C60C2F200000021C0E90011C0E96E
:102C40000211C0E9041181617047000040F25C622A
:102C5000C2F20002C2E900009060116170470000FA
:102C60002DE9F04140F27865C2F200056C6AEE6A27
:102C7000871B2AD0A4B3012FA8BF012C63DA07EA6F
:102C80000400B0F1FF3F7CDDB7F1FF3F00F3978018
:102C9000012CC0F294806869296A081A48F6AD319F
:102CA000C6F6DB0180FB0112511301EBD2710A1948
:102CB00044F6206301FB1300C5E90802002A00F373
:102CC0003F810020C5E908003AE1E86941428C42B1
:102CD0001DDB84421BDC0020C5E90800A8622FE14F
:102CE000E868296A012FB4BF081A084448F6AD31D4
:102CF000C6F6DB0180FB0112511301EBD27144F6E1
:102D0000206201FB12002144C5E9080118E1012CF1
:102D100075DB6869296A081A48F6AD31C6F6DB0129
:102D200080FB0112511301EBD2710A1944F62063A2
:102D300001FB1300C5E90802002A00F3018100200D
:102D4000C5E90800FCE0D5F80480444574DD6869F5
:102D5000296A081A48F6AD31C6F6DB0180FB01127C
:102D6000511301EBD2710A1944F6206301FB1300E1
:102D7000C5E90802002A00F3E3800020C5E9080045
:102D8000DEE06868C0F1000844457DDA6869296AB8
:102D9000084448F6AD31C6F6DB0180FB0112511341
:102DA00001EBD2710A1944F6206301FB1300C5E957
:102DB0000802002AA4BF0020C5E90800C0E0012FD6
:102DC000C0F2BE80B4F1FF3F00F3BA806869296A9F
:102DD000084448F6AD31C6F6DB0180FB0112511301
:102DE00001EBD2710A1944F6206301FB1300C5E917
:102DF0000802002AA4BF0020C5E90800A0E0B4F141
:102E0000FF3F00F39D806869296A084448F6AD31A8
:102E1000C6F6DB0180FB0112511301EBD2710A19D6
:102E200044F6206301FB1300C5E90802002AA4BF91
:102E30000020C5E9080083E02046FDF707FA0146B7
:102E4000FDF794F9A969FDF791F9FDF708FA8742B2
:102E500045DD444574DAE868296A084448F6AD312E
:102E6000C6F6DB0180FB0112511301EBD2710A1986
:102E700044F6206301FB1300C5E908024245A4BFE4
:102E80000020C5E908085BE02046FDF7DFF90146B0
:102E9000FDF76CF9A969FDF769F9FDF7E0F9002F75
:102EA00048BF7F42874233DD444549DDE868296AEF
:102EB000081A48F6AD31C6F6DB0180FB011251134A
:102EC00001EBD2710A1944F6206301FB1300C5E936
:102ED00008024245DCBF0020C5E9080830E0686907
:102EE000296A081A48F6AD31C6F6DB0180FB0112EB
:102EF000511301EBD2710A1944F6206301FB130050
:102F0000C5E90802002A1BDC0020C5E9080017E01B
:102F10006869296A084448F6AD31C6F6DB0180FBD2
:102F20000112511301EBD2710A1944F6206301FB1F
:102F30001300C5E90802002AA4BF0020C5E9080063
:102F4000D5E90901014448F6AD32C6F6DB0281FB42
:102F500002235A1302EBD372931944F6206702FB43
:102F60001711C5E90A13C5E90C30BDE8F08100006E
:102F700010B540F27864C2F20004207828B941F21A
:102F80000000C0F2270000F05DF8207A28B942F274
:102F90000000C0F2A17000F06DF8207C28B942F268
:102FA0000000C0F2A17000F029F800204FF4484161
:102FB000C4E90710C4E90900C4E90B00606310BD4F
:102FC00040F27862C2F200020023C2E90831C2E98D
:102FD0000A30704710B541F20000C0F2270000F03F
:102FE00031F842F20004C0F2A174204600F042F829
:102FF0002046BDE8104000F001B80000002848BF9E
:103000004042411E43F6FF72C0F64272914211D80F
:1030100010B540F27864C2F200046061FDF716F961
:1030200001464FF07C50FDF7D3F8A0610120BDE8C8
:10303000104000E0002040F27861C2F20001087404
:1030400070470000002848BF4042411E40F6FF7212
:10305000C0F22702914206D840F27861C2F2000124
:103060004860012000E0002040F27861C2F20001D7
:1030700008707047002848BF4042411E43F6FF7267
:10308000C0F64272914206D840F27861C2F2000165
:10309000C860012000E0002040F27861C2F2000127
:1030A0000872704780B54FF0FF3000210022FEF714
:1030B00045FE252002210022BDE88040FEF73EBEED
:1030C00040F61030C2F200000121017040F204000D
:1030D000C2F20000006841F25971CDF2B711A0FBB5
:1030E0000101880BFFF71EBBFEE7000010B54FF68D
:1030F000FF72C9B14FF0000C4AF2010ECFF6FF7E0D
:1031000010F80C3082EA0304002300BFC4F34E021F
:10311000E40718BF82EA0E020133082B1446F5D3E8
:103120000CF1010C8C45EBD190B210BDB0B501385B
:103130000B2843D8DFE800F006421F422F424A5EC8
:103140004242424340F22000C2F20000418800881F
:10315000FDF7EAFB044600F0CFFB40F2D860C2F274
:10316000000020210171202000F006FC2046BDE86F
:10317000B04000F011BC40F22000C2F20000C18853
:103180008088FDF7D1FB0446FFF774FF2046BDE8B9
:10319000B040FFF733BF40F22000C2F20000418987
:1031A0000089FDF7C1FB40F24061C2F20001CA682C
:1031B00002F205229042C4BF4861B0BDB0BD40F2EA
:1031C000D860C2F2000010210171B0BD40F22000B1
:1031D000C2F20000C1898089FDF7A6FB40F2406180
:1031E000C2F200018A6802F205229042BCBF086167
:1031F000B0BDB0BD40F22004C2F20004208A022813
:1032000007D0012818BFB0BD00F0A4FC0020208228
:10321000B0BD0025002000F0D7FB2582B0BD000026
:103220000A46014640F28070C2F2000001F064BE1E
:103230002DE9F0410829C0F0828004460078082872
:103240007DD1881E255C214411F8016C45EA0627D2
:1032500081B22046FFF74AFF874203D046EA0521A4
:1032600081426CD16078618809BA0D0C10282ED08B
:10327000062862D0032862D12079627942EA0020D0
:1032800041190D295BD840F23C01C2F200014FF414
:1032900042730B8052008A70002868D000270326F2
:1032A00040F2200CC2F2000C002300BF2F443CF877
:1032B00017703C0AB2B28C54721C92B28F54023610
:1032C00001339FB2B842F1D8300451D137E02079B0
:1032D000617941EA002670190D2830D8A079B0EB49
:1032E000460F18BFBDE8F081B6B1002040F22008BB
:1032F000C2F20008002700BF411904EB4000B0F8FB
:10330000070000BA000C28F8110088B2FFF70EFF82
:103310000137B8B28642EFD840F23C00C2F200005A
:1033200041F208010180A1788170E178C1702179B2
:1033300001716179417106261AE00C2D01D9BDE8B1
:10334000F081A08800BA000C40F22001C2F2000116
:1033500021F815002846FFF7E9FEA08840F23C015D
:10336000C2F20001888020680860062600E003267B
:10337000B4B240F23C05C2F2000528462146FFF7F0
:10338000B5FE2855000A711C89B26854B01C81B280
:103390002846BDE8F041FFF743BF0000FFF748BFF4
:1033A00080B540F2D860C2F20000D0F810C040F200
:1033B0002001C2F20001A1F816C040F24062C2F240
:1033C0000002D2E904E24A81A1F80EE040F27860FE
:1033D000C2F20000C068C88040F2AC43C2F20003F1
:1033E0001B684B824FEA1C438B82120C0A814FEA06
:1033F0001E428A81000C888080BD0000B0F1FF3F32
:1034000012DD48F2A061C0F201018842BCBF002079
:1034100070474DF21F61C0F2130188421CDC43F675
:103420004001CFF6706111E047F66011CFF6FE71F2
:103430008842C4BF0020704742F6E111CFF6EC711C
:1034400088421BDB4CF2C071C0F28F114FF48372C3
:1034500000FB02100015704749F2BF11C0F22101B4
:1034600088421FDC42F6E041CFF2DD71692200FBA9
:1034700002104FF4967101EB2050704746F64161FF
:10348000CFF6DE7188421EDB4DF22031C0F62201FC
:10349000692200FB02104FF6D461CFF6FF7101EBF9
:1034A0002050704746F20051CFF62E11342200FB17
:1034B00002104FF4C37101EB2050B0F5D77FA8BFC5
:1034C0004FF4D770704749F60031C0F2D161342211
:1034D00000FB02104FF67A61CFF6FF7101EB20512D
:1034E0004FF65260CFF6FF7011F5D77FC8BF084680
:1034F00070470000F0B581B040F27477C2F2000767
:10350000788840F2BC01C2F200010A786AB140F248
:10351000D864C2F20004A168C4E90201401AB0F5FF
:10352000C84F0EDDA0F5484010E040F2D862C2F26C
:103530000002C2E90200C2E904000120087001B0E3
:10354000F0BD10F5C84FB8BF00F548402169D4E977
:1035500006230E18C3EB431344F6206500FB053029
:103560000244501102F01F02C4E90461C4E90620BC
:10357000FFF744FF20628119E06B421AC4E90A1286
:1035800094F8581094F8462011430ED1397961B15E
:1035900094F84710002900F06B8000F097F90020A4
:1035A000C4E9130000F014FD05E000F08FF90020DD
:1035B000C4E9130096E0616B41F20000C0F22700FD
:1035C000814201DD606306E04FF20000CFF6D87063
:1035D0008142B8BF6063B4F93800B0F52F6F02DDE7
:1035E0004FF42F6006E010F52F6F04DA4FF2105001
:1035F000CFF6FF70208794F8460010B194F83A0097
:1036000038B194F84700002824D094F83B000028F3
:1036100020D1012084F84800002084F8480000F000
:1036200055F900F069F92079A0F12001132900F281
:103630006D80DFE801F00A14185F6B6B6B6B6B6BCE
:103640006B6B6B6B6B6B0A141864E169A06AFFF714
:10365000B7FC5AE094F848000028DDD155E0E06955
:1036600001F07AF951E0B4F95000FDF7DDFB4CE0D0
:10367000217933293FF69FAFDFE811F038001201BE
:103680003700370037003700370037003700370082
:103690003700370037003700370037003400370075
:1036A0003700370037003700370037003700370062
:1036B0003700370037003700370037003800120175
:1036C0001601380037003700370037003700370061
:1036D0003700370037003700370037003800120155
:1036E0001601380000F00CFD65E764E7216CFDF77A
:1036F000A5F960E7E169A06A00F026FB05E0E16951
:10370000A06AFFF7A3FAA06A20632079332800F2A9
:103710005580DFE800F0373A535353535353535314
:103720005353535353535353535353535353535369
:103730005353535353531A222B3D53535353535301
:103740005353535353531A222B48206BFFF788FAD5
:1037500040F27860C2F2000022E0606B01F068F88D
:1037600040F6F020C2F20000806926E0B4F938008B
:10377000FDF7CAFA40F2EC00C2F200008069A4F83A
:1037800044001BE000F0F2F918E000F00DFA15E03B
:10379000D4E90C0100F014FA40F23C70C2F20000CF
:1037A000016B406B08E0206BFFF728FA40F25C6089
:1037B000C2F20000D0E90510E1632064608FA4F834
:1037C0004600226D002A114648BF5142207940F040
:1037D0001003322B12D18AB1E269002A48BF52424B
:1037E000B2F5205F0ADA626D44F24023C0F20F03A3
:1037F0009A4242D3012284F8582017E040F6B822BA
:10380000914211DBE269002A48BF5242B2F5205FC3
:103810000ADA616D4AF22012C0F2070291422ED3F9
:10382000012184F8581005E00022626540F6B822B4
:10383000914210DBE16D48F2A062C0F201029142B8
:103840000DD3012184F8601010280CD094F8581082
:1038500071B1042008E0002184F8601000E03231EA
:10386000E1651028F2D1002084F8610001B0F0BDBC
:1038700094F8601031B10320F6E73232D5E73231E7
:103880006165D7E7222814D0212819D0202805D136
:10389000206BE16B814211D1206C78B90120E3E704
:1038A000206CFDF7ADF986E6B4F94400FDF740F869
:1038B00081E6208FB4F844108142EFD00220D3E794
:1038C000606B216C8142E9D0F8E7000040F6C0202F
:1038D000C2F200000021C0E90911C16140F20810E4
:1038E000C2F20000C0E90A11016240F2CC60C2F2EB
:1038F0000000C0E90011704740F2D860C2F2000039
:10390000002180F85810416570470000B0B540F2C2
:10391000D864C2F20004207810B9212000F02CF8FD
:10392000A07810B9012000F02FF80025E5651020DF
:103930002071A4F86050C4E90255C4E90455C4E9F3
:103940000655256204F128002121FCF704FC84F8C7
:103950005850C4E913556565FDF7FEF8FCF7FEFF06
:10396000FFF706FB00F0DEFFFDF748FA00F0CCF9A8
:10397000BDE8B040FFF75CB940F2D861C2F2000187
:1039800001220A704870704740F2D861C2F200010B
:1039900001228A70C870704740F2D861C2F20001FB
:1039A000086340F24062C2F200021378072B18BF8E
:1039B000704713698342DCBF0B63704752698242D0
:1039C000A8BF0A637047000000F5001101F5E2216D
:1039D00042F20002C0F24E0291429EBF40F2D86114
:1039E000C2F200014863704770B540F24064C2F211
:1039F00000042178082906D80120884040F281126D
:103A0000104200D070BD6068013060600139052946
:103A1000F8D8DFE801F00315243C52662125212067
:103A2000FFF7AAFF40F2D860C2F2000005714FF420
:103A30004840FFF7C9FF002060600220207070BD81
:103A400040F2D865C2F2000595F8581000295FD100
:103A500095F8611004295BD06528D3D33BE00A2890
:103A600006D1FFF749FFD4E90101A1F20521216147
:103A7000322807D840F2D860C2F2000090F8610006
:103A80000128BFD1002060600420207070BDFFF7C6
:103A900033FF21252120FFF76FFF40F2D860C2F2EB
:103AA0000000057143F60000CFF6FF70FFF78CFFB2
:103AB000002060600520207070BD40F2D865C2F221
:103AC000000595F85810A1BB95F86110042930D075
:103AD0006528FFF497AF0020FFF776FF08202070DD
:103AE00070BD0A2806D1FFF707FF6068E16801F2A0
:103AF00005216161322808D840F2D860C2F2000086
:103B000090F86100012818BF70BD0720207070BDBB
:103B100010261020FFF730FF2E7100260020FFF73F
:103B200053FF2869A060FFF7E7FE6660032020705E
:103B300070BD10261020FFF71FFF2E7100260020F9
:103B4000FFF742FF2869E060FFF7D6FE66600620B7
:103B5000207070BD40F24060C2F200000021416060
:103B6000012101700120FFF70FBF000040F2CC607F
:103B7000C2F200000168826840F2D86CC2F2000C08
:103B8000CCF840204FF4D27302FB0311CA150B4648
:103B90006FF3DF53C0E90032DCF83C0000EBE1508A
:103BA000CCF83C007047000040F2CC60C2F200004C
:103BB000806840F2D861C2F20001086470470000DA
:103BC0002DE9F04381B00D46044640F23C77C2F245
:103BD0000007B86988420CD1F869A04209D1386958
:103BE00040F64051C0F20301884237DB01203875AE
:103BF00039E000203861C7E9065438757E6AD7F885
:103C00002C907019FCF722FB8046A81BFCF71EFBCA
:103C100001464046FCF7AAFA0546A4EB090040001D
:103C2000FCF714FB01462846FCF7D2FAFCF717FB19
:103C3000F860F868D7E90812084448F6AD31C6F6CE
:103C4000DB0180FB0113591301EBD3710A4444F6E5
:103C5000206301FB1300C7E908023BE03230386102
:103C6000387D0028E5D0786AD0B179683A6A0128B1
:103C70001ADB511A48F6AD32C6F6DB0281FB02238D
:103C80005A1302EBD37244F6206302FB1311104463
:103C9000C7E9081000281DDC0020C7E9080019E06A
:103CA0000020C7E9080015E0114448F6AD32C6F619
:103CB000DB0281FB02235A1302EBD37244F620632A
:103CC00002FB13111044C7E908100028A4BF00200C
:103CD000C7E9080007F1240207CA014448F6AD33DA
:103CE000C6F6DB0381FB0336731303EBD6731A446A
:103CF00044F6206603FB1611C7E90A12C7E90C2037
:103D000001B0BDE8F083000010B540F23C74C2F28F
:103D10000004207828B94AF20000C0F2861000F0B2
:103D20001FF8207A10B9C82000F032F80020C4E94A
:103D300003002075C4E90600C4E90800C4E90A00CC
:103D4000C4E90C0010BD000040F23C72C2F2000257
:103D5000002313751361C2E90831C2E90A307047C4
:103D6000002848BF4042411E43F6FF72C0F642722F
:103D7000914206D840F23C71C2F200014860012035
:103D800000E0002040F23C71C2F200010870704770
:103D9000A0F1320189B24CF21E32914206D840F2B3
:103DA0003C71C2F200014881012000E0002040F295
:103DB0003C71C2F2000108727047000070470000B9
:103DC00000F00700C31E38BF002380F0070004285E
:103DD00028BF04204FF0FF3C0CFA00F021EA00005D
:103DE00098400CFA03F122EA0101084370470000F1
:103DF0007047000081B040F20400C2F20000006889
:103E000044F6D351C1F26201A0FB0101480A0090BF
:103E100000BF0098411E00910028F9D101B0704701
:103E200081B041F21400C4F20200016841F00101C6
:103E30000160006800F001000090009801B0704738
:103E40002DE9F04186B00026059641F21807C4F22C
:103E50000207386840F008003860386800F0080051
:103E6000019001980396802002904FF00108CDF850
:103E7000108040F60044C4F2010402AD20462946F9
:103E8000FDF7D2FD386840F008003860386800F06F
:103E9000080001900198039640200290CDF8108010
:103EA00020462946FDF7C0FD06B0BDE8F0810000C0
:103EB0002DE9F04F85B041F21800C4F2020001680C
:103EC00041F004010160016801F0040101910199D0
:103ED000016841F004010160016801F004010191F1
:103EE0000199016841F004010160016801F00401D9
:103EF00001910199016841F004010160006800F03E
:103F000004000190019840F60004C4F2010420204E
:103F100060614FF0100AC4F814A04FF0080BC4F809
:103F200014B04FF00408C4F814804FF00109CDE933
:103F30000109002603960327049701AD2046294670
:103F4000FDF772FDCDE901A9CDE9036720462946B9
:103F5000FDF76AFDCDE901B9CDE9036720462946A1
:103F6000FDF762FDCDE90189CDE9036720462946C9
:103F7000FDF75AFD05B0BDE8F08F000080B584B0B4
:103F800041F21800C4F20200016841F0040101602E
:103F9000006800F004000090009840F60000C4F2B1
:103FA00001004FF4004101610122CDE9001200211E
:103FB0000291022103916946FDF736FD04B080BDF0
:103FC00080B5FFF775FFBDE8804000F07FB90000C5
:103FD00080B540F2E600C2F200000021818040F28C
:103FE000E000C2F20000818000200021FCF782FE88
:103FF00040F61000C4F20100202101601021016090
:10400000082101600421016080BD000000290A46EA
:1040100048BF4A42C72A0EDC40F2C002C2F2000288
:104020001268002A134648BF5342C72BDEBF114413
:1040300001EBD171491070B540F2C002C2F200022A
:10404000116000F580736FF39F2040F2E606C2F224
:10405000000630806FF39F2340F2E005C2F20005B6
:104060002B8045F23854C0F6000434F910207280D9
:1040700034F913006880002948BF494241F2DB331C
:104080005943C1F30B31002A48BF52424A43130B34
:10409000B380002848BF40424843010BA980C2F3C7
:1040A0000F31C0F30F30FCF725FEB5F9021040F6D2
:1040B0001000C4F20100012904DB2021016010215D
:1040C000416008E0B1F1FF3F4FF02001CCBF01603B
:1040D000416010210160B6F902100129BDE870406D
:1040E00004DB08210160042141607047B1F1FF3F0A
:1040F0004FF00801D4BF41600160042101607047A6
:1041000080B540F2E600C2F200000021818040F25A
:10411000E000C2F20000818000200021FCF7EAFDEF
:1041200040F61400C4F2010020210160102101605A
:10413000082101600421016080BD000080B500F00D
:10414000A3FA40F27A70C2F20000408840F2747123
:10415000C2F20001088040F20002C2F200021268BE
:1041600032F81000488080BD80B500F01FF8FFF7DE
:10417000E5FF40F2747CC2F2000C01208CF80400D0
:1041800040F20000C2F2000001684FF0000E4FF64E
:10419000FF73002031F810209A4208BF8CF804E029
:1041A0000130B0F5804F08BF80BDF3E780B540F225
:1041B0007A70C2F2000000210160FFF7DFFEBDE867
:1041C000804000F001B800002DE9F04786B04FF0C4
:1041D000000ACDF810A041F21807C4F202073868AF
:1041E00040F008003860386800F00800019001983D
:1041F000386840F008003860386800F00800019026
:104200000198386840F008003860386800F008000D
:10421000019001984FF00208CDF80C800820029020
:104220000326059640F60044C4F2010402AD204680
:104230002946FDF7F9FBCDF80C8020200290059669
:1042400020462946FDF7F0FBCDF80CA04FF01009F1
:10425000CDF80890CDF810A020462946FDF7E4FBE4
:104260000420C4F20100016841F0E06141F0010165
:104270000160386840F480503860386800F480503D
:104280000190019840F26050C2F200004FF4827138
:1042900004F510524FF4006301274FF40076C0E993
:1042A0000021C0E902A3C0E90487C0E906690A2128
:1042B000C0E908AAC0E90AA1FEF708F9002818BF5A
:1042C000FCF75EFE06B0BDE8F08700002DE9F04384
:1042D0008FB000260D9641F21807C4F20207386825
:1042E00040F008003860386800F00800019001983C
:1042F000386840F008003860386800F00800019025
:1043000001984FF00208CDF830804FF400600B9018
:104310004FF00309CDF8389040F60044C4F2010490
:104320000BAD20462946FDF77FFBCDF830804FF4DA
:1043300080600B90CDF8389020462946FDF774FB3D
:104340000420C4F2010001684FF6FF42CFF6FF02DD
:10435000114041F0E06141F4007101600996CDE93E
:104360000766CDE90566CDE90366CDE901667868A3
:1043700040F001007860786800F00100009000983B
:1043800040F2B850C2F200004FF0804140F2FF32DC
:10439000C0E90016C0E9026206618661FEF736FADE
:1043A000002818BFFCF7ECFDCDE9086640F2B850D4
:1043B000C2F2000008A9FEF7B7F9002818BFFCF701
:1043C000DFFD00200290602101910390059040F2F2
:1043D000B850C2F2000001A90C22FEF7C7F900286C
:1043E00018BFFCF7CDFD40F2B850C2F2000001A9A1
:1043F0000822FEF7BBF9002818BFFCF7C1FD40F208
:10440000B854C2F2000420460C21FEF71DFA2046E3
:104410000821FEF719FA0FB0BDE8F08340F2F8501A
:10442000C2F2000043F60001C4F2010140F23C1266
:10443000C2F200025368C0E9001392F90110052985
:1044400088BF704710B54FF00C0C4FF0000E0BA258
:1044500052F821200FA353F8213014A454F821104E
:10446000C0E9023200F1100282E80250C0F81CE0FC
:10447000FEF7B2FABDE81040704700BF0000000030
:1044800000000000000000000020000000200000EC
:1044900000200000000000000010000000100000DC
:1044A00000000000001000000010000000000000EC
:1044B00000040000000600000000000000040000EE
:1044C000000600002DE9F04786B040F23C14C2F22D
:1044D0000004207810B9002000F0C6F8E07818B980
:1044E0004FF4964000F0AAF8A0786070A068606071
:1044F0000027049741F21806C4F20206306840F023
:1045000004003060306800F00400019001983068C9
:1045100040F004003060306800F004000190019821
:10452000306840F008003060306800F0080001900A
:1045300001984FF00108CDF80C804FF480400290B4
:104540004FF00309CDF8149040F60004C4F20104C2
:1045500004F5806002AD2946FDF766FA022003905B
:104560004FF400700290CDF8149020462946FDF7D4
:104570005BFA03974FF480600290CDF810802046DC
:104580002946FDF751FA40F21C54C2F200041020F3
:1045900040F2440AC4F2020A4FF080094FF4405836
:1045A000C4E900A0C4E90279C4E90477C4E9067843
:1045B0002046FDF7DFF8002818BFFCF7E1FC40F2C9
:1045C000F855C2F2000565622C6340F2D844C2F28D
:1045D000000420200AF11401C4E90017C4E902799B
:1045E000C4E90477C4E906082046FDF7C3F80028AB
:1045F00018BFFCF7C5FC65626C630E200421002225
:10460000FDF79CFB0E20FDF797FB0F2005210022F4
:10461000FDF794FB0F20FDF78FFB306840F48040DE
:104620003060306800F4804001900198FFF7F6FE9A
:104630002520FDF781FB06B0BDE8F087A0F51651F7
:104640004DF25002C0F20202914206D840F23C11F3
:10465000C2F200018860012000E0002040F23C111D
:10466000C2F20001C8707047052806D840F23C111C
:10467000C2F200018870012000E0002040F23C11ED
:10468000C2F20001087070472DE9F04F85B048F282
:104690000030C8F20040039004A80230029003A842
:1046A000871C40F61005C4F201054FF4004A4FF094
:1046B000FF3840F26054C2F200044FF0010940F2AA
:1046C0007A76C2F200064FF0000B00BFC5F804A0D6
:1046D000CDF80080204603A904AA0123FDF734FF8A
:1046E000C5F800A0C5F804A0CDF8008020463946E2
:1046F000029A0123FDF728FFC5F800A0BDF81000BD
:104700009DF8121041EA0020308080B20021002282
:1047100009FA01F3034218BF013201311029F7D120
:10472000D0070BD0002070710BF1010BBBF1030F10
:10473000CCD3707920B905B0BDE8F08F012070713D
:10474000308881087180C0F34000307105B0BDE849
:10475000F08F000040F26050C2F20000FDF738BE5A
:10476000406A0021C187C186FDF730BE10B51346EF
:104770000A460446802100F00BF800280FBF0020F5
:10478000606D40F02000606518BF032010BD000080
:104790002DE9F041044600688068084088420FD146
:1047A000984616460F46551C2DB1FDF755FAA0EB5D
:1047B0000800B04207D2206880683840B842F3D081
:1047C0000020BDE8F0812068416821F0E0014160EF
:1047D0006168B1F5827F0AD1A168B1F5004F02D0BE
:1047E000B1F5806F03D1016821F040010160A16A39
:1047F000B1F5005F07D1016821F400510160016843
:1048000041F400510160002084F85000012084F838
:1048100051000320BDE8F0817047000040F2807134
:10482000C2F200010A68824218BF002108467047A0
:1048300080B540F6F021C2F200014A69831A1FD008
:10484000D1F810C0012B1DDB002A36DB4B689C44DD
:1048500048F6AD33C6F6DB038CFB033E4FEA6E33FE
:1048600003EBDE7303EB020E44F6206203FB12C27D
:10487000C1E9042E8645A4BF0022C1E904204EE010
:1048800048614CE0002A30DDC868ACEB000C48F60B
:10489000AD33C6F6DB038CFB0330431303EBD07060
:1048A000024444F6206300FB13C0C1E90402002A5D
:1048B000DCBF0020C1E9040031E0C868844448F648
:1048C000AD33C6F6DB038CFB0330431303EBD07030
:1048D000024444F6206300FB13C0C1E90402002A2D
:1048E000A4BF0020C1E9040019E04B68ACEB030C45
:1048F00048F6AD33C6F6DB038CFB033E4FEA6E335E
:1049000003EBDE7303EB020E44F6206203FB12C2DC
:10491000C1E9042E8645DCBF0022C1E904204869B4
:10492000886180BD10B540F6F024C2F20004207802
:1049300028B94AF20000C0F2861000F02BF8207A65
:1049400028B94AF20000C0F2861000F00DF80020ED
:10495000C4E90400A06110BD40F6F021C2F20001DC
:104960000022C1E904207047002848BF4042411E90
:1049700043F6FF72C0F6427291429EBF40F6F021AC
:10498000C2F20001C86040F6F020C2F2000001212E
:1049900001727047002848BF4042411E43F6FF7233
:1049A000C0F64272914206D840F6F021C2F20001F0
:1049B0004860012000E0002040F6F021C2F2000132
:1049C0000870704710B50446FDF716F82068E060DF
:1049D00010BD00002DE9F04F85B00446FDF70CF83E
:1049E000A06830B34FF0000842F21007C4F202078B
:1049F0004FF001090DF1040AEB460025002600BF27
:104A0000CDF804802068CDF81090284403905046DB
:104A10005946FCF733FF4FF0FF30FCF71BFB3868BB
:104A200020F00200386005F580650136A0688642F6
:104A3000E6D3FCF77DFF05B0BDE8F08FFCF778BF4B
:104A400070B50D4606460068F168814217D31446DA
:104A500001EB420172681044814210D8002C08BF5B
:104A600070BD00BF2A88F16801200023FCF76AFFAF
:104A700010B9F0680230F0600235013CF2D170BD2F
:104A8000B0B501380024B4EB106F1EBF01242046DE
:104A9000B0BD4EF21005CEF2000568604FF0FF3059
:104AA0000F2100F09BFBAC60072028602046B0BDC2
:104AB00080B540F61030C2F20000007850B1FFF728
:104AC0003DFB40F24810C2F20000007828B1FBF72D
:104AD000EBFC04E0FDF7C6F811E0FEF70BFD40F239
:104AE0005860C2F20000017801310170C9B2142986
:104AF00005D30021017000F0CFFBFDF7B3F840F2C1
:104B0000B060C2F2000001680131016080BD0000A8
:104B1000B0B594B00024CDE90F44CDE90D44049420
:104B2000CDE9024401200A904FF48031CDE90B1405
:104B30000E900225CDE911514FF4801013900AA870
:104B4000FDF7AEFA0F20CDE9050507944FF480601C
:104B5000CDE9080405A80221FDF78AF901954FF473
:104B60000040039001A8FDF7FBF814B0B0BD0000B1
:104B700041F20000C4F20200016841F0010101604D
:104B800041680022CFF6FF021140416001684FF6F4
:104B9000FF72CFF6F66211400160016821F48021B6
:104BA0000160416821F4FE0141604FF41F01816002
:104BB0004EF60850CEF200004FF0006101607047E1
:104BC00070470000036842F6004CC4F2010C40F24A
:104BD000FF72C4F20002904205DCB0F1804F0AD0AF
:104BE00040F2004203E0604505D040F60002C4F206
:104BF000000290420BD180B523F45C7E4B68CA68FA
:104C000023F4407343EA0E031343BDE880404A692E
:104C100023F080031A4302608A68C2620A688262D3
:104C2000604504BF0969CCF830100121416170472B
:104C300001F01F01012303FA01FC036A23EA0C03BC
:104C4000036202FA01F1026A114301627047000037
:104C500070B5026A22F001020262026AD0F804E032
:104C6000D0F818C022F002020B688C6822432CF0A6
:104C7000730444EA030C42F60043C4F20103984271
:104C80000CD12EF44073CE68D1E90545234343EAA5
:104C9000050E22F00C0226F004031A43C0F804E0CB
:104CA000C0F818C049684163026270BD70B5026AFD
:104CB00022F010020262026AD0F804E0D0F818C0B4
:104CC00022F020020B688C6842EA04122CF4E644BD
:104CD00044EA032C42F60043C4F2010398420FD188
:104CE000CE68D1E905452EF4406343EA840343EAE4
:104CF000850E6FF0400303EA061322F0C0021A4348
:104D0000C0F804E0C0F818C049688163026270BD51
:104D100070B5026A22F480720262026AD0F804E07E
:104D2000D0F81CC022F400720B688C6842EA04229E
:104D30002CF0730444EA030C42F60043C4F201036E
:104D400098420FD1CE68D1E905452EF4405343EA8D
:104D5000041343EA051E330240F2FF44A34322F446
:104D600040621A43C0F804E0C0F81CC04968C1633F
:104D7000026270BDB0B5026A22F480520262026A19
:104D8000D0F804E0C56922F400520C688B6842EA4E
:104D9000033C25F4E64242EA042242F60043C4F210
:104DA0000103984204D14B692EF4804545EA831EE5
:104DB000C0F804E0C26149680164C0F820C0B0BD19
:104DC000406A0021C185C184FDF784BD10B5446AE5
:104DD0002068406994F83910212907D110F080002B
:104DE00004D00020E084204600F07CF82068406970
:104DF00094F83A10222907D110F0400004D0002086
:104E0000E085204600F056F8E06B40F01000E063CB
:104E10002046BDE81040FDF75DBD00000168406A16
:104E20000968890648BFFDF759BE0021C1850168A0
:104E3000CA6822F48072CA604A6922F001024A619B
:104E40004A6922F040024A61202180F83A10FDF7B9
:104E500045BE0000406AFDF773BE00000168406A6D
:104E60000968890648BFFDF7ADBE0021C18400680E
:104E7000416921F080014161C16841F04001C16098
:104E800070470000406AFDF7B5BE000040F2807236
:104E9000C2F20002904218BF704740F60040C4F2D0
:104EA000010000294FF4804114BF01220022FCF7C9
:104EB000CDBE00000168CA6822F49072CA604A69D7
:104EC00022F001024A61202180F83A107047000068
:104ED0000168CA6822F04002CA60202180F83910B7
:104EE000FDF770BE0168CA6822F0C002CA602021C6
:104EF00080F8391070470000F0B581B004460668AC
:104F000096F83900202805D11546B2F5807F03D9DF
:104F10000F4607E002261EE004F10C0738462A4639
:104F2000FBF700F93046FDF7ADFC20460121FFF705
:104F3000ADFF206839462A46FDF704FE28B1064633
:104F400020460021FFF7A2FF05E0D4F8140328440F
:104F5000C4F814030026304601B0F0BD90F83A10B2
:104F6000222918BF7047036881680269B1F5805F24
:104F700006D1816A5B6882B1DAB221F8012B10E0B8
:104F8000D3F804C0836A591C8162002A1ABF0CF04E
:104F90007F01197083F800C004E06FF35F2321F8EC
:104FA000023B8162C18D0139C185090400D070477F
:104FB0000168CA6822F02002CA60CA6822F48072BE
:104FC000CA604A6922F001024A61202180F83A1041
:104FD000FDF784BD10B5044600680169E26821F45C
:104FE000405111430161D4F808C0D4E904E3C16819
:104FF00041F20C6291434EEA0C021A431143C16024
:105000004169A26921F440711143416143F60001F5
:10501000C4F20101884202D0FCF7E8FF01E0FCF78E
:10502000F7FF19214843D4E900129200B0FBF2F0D7
:1050300048F21F52C5F2EB12A0FB023463096FF075
:10504000630403FB0400322404EB0010A0FB020203
:10505000F02000EA521000EB0310C2F34312104498
:10506000886010BD90F83910212923D10268836827
:10507000016AB3F5805F0AD10B886FF35F23536039
:105080000269002A14BF01310231016203E04B1CA6
:10509000036209785160C18C0139C184090418BFC9
:1050A00070470068C16821F08001C160C16841F0AB
:1050B0004001C1607047000010B582B040F2F85462
:1050C000C2F2000420680168C9060CD500210191D4
:1050D0000168019140680190019840F2F850C2F2D5
:1050E0000000FDF7FBFC2068016809070ED5406849
:1050F00040F28070C2F2000000F5867140F2F85074
:10510000C2F200004FF48072FDF798FC40F2F850B4
:10511000C2F2000002B0BDE81040FDF7DDBB0000A8
:1051200040F2B040C2F20000FCF774B810B504467B
:10513000D0F8180380B1206804F586714FF48072AE
:10514000FDF77CFC002818BFFBF71AFF20680068F9
:10515000C16841F01001C16020460021BDE8104047
:10516000FFF794BE40F28073C2F20003984211D15F
:1051700010B540F21C5CC2F2000C40F2F85EC2F2C4
:10518000000E40F2D844C2F20004C3E900EC9C6077
:10519000BDE810400023C0E9C333C0E9C531C0F801
:1051A0001C23FFF7C3BF0000FEE700000028B8BFC4
:1051B000704700F01F01012202FA01F140094EF28E
:1051C0000012CEF2000242F8201070474EF60C504A
:1051D000CEF200000068C0F30220704700F1604C7E
:1051E00000F00F034EF61452CEF200021A44B0F152
:1051F000FF3FC8BF0CF56442080110707047000003
:105200004EF60C51CEF200010A684FF6FF031A4029
:1052100060F30A2242F0806040F0FD700860704741
:10522000FBF782F8FBF74CFF4FF47A70FCF712FBA8
:10523000FEF7F6FDFFF746F940F28070C2F200007B
:1052400043F29D31C0F6000100240022FFF78AFFDF
:10525000FEF78AFFFEF7B4FEFBF718F9FEF756FBE0
:10526000FDF720FFFDF72CFF40F2D860C2F20000EE
:1052700080F8584010210171FDF7ACFEFDF778FE73
:1052800040F2C864C2F2000420680130206000F0DF
:105290000DF9FBF7BDF9F7E7B0B540F61430C2F2EF
:1052A000000001680131016040F62834C2F20004B8
:1052B00020680130206040F23965C2F2000528788C
:1052C000E0B140F2D860C2F2000090F8610001281D
:1052D00014D1FCF7C1FC0021297040F61831C2F24C
:1052E000000101220A7040F60C31C2F20001096887
:1052F000401A40F2AC41C2F20001086020684CF64E
:10530000CD41CCF6CC41A0FB0121CA0802EB8202C0
:10531000A0EB420232B940F62432C2F20002136816
:1053200001331360090901EB8101A0EB810131B95F
:1053300040F62C31C2F200010A6801320A6048F2DC
:105340001F51C5F2EB11A0FB01210A09322302FB18
:10535000130232B940F63032C2F200021368013350
:1053600013604909642201FB120131B940F61C3176
:10537000C2F200010A6801320A6044F6D351C1F258
:105380006201A0FB011291094FF47A7201FB120035
:10539000002804BF00202060B0BD0000FCF770FCB6
:1053A000FFF7B6FBFFF73CFFFEE70000B0B5FDF7E7
:1053B000F7FF40F60040C4F201004021FCF740FC3A
:1053C000B0FA80F14C0940F62035C2F20005297888
:1053D0000843000601D02C70B0BD40F24060C2F21C
:1053E00000000078072809D140F23860C2F20000BE
:1053F000017839B1002101702C70B0BDFEF7AAFB15
:105400002C70B0BD012101702C70B0BDB0B540F260
:105410004064C2F200042078072837D140F2386097
:10542000C2F20000007800283FD0FCF715FC40F2E3
:105430003C65C2F200052968401A142838BFB0BD87
:10544000FCF70AFC2860FEF757FA2020FEF794FAD2
:1054500040F61830C2F200000021017040F23960BD
:10546000C2F2000001210170FCF7F6FB40F60C319E
:10547000C2F20001086040F2C405C2F200052878BB
:1054800040B16069FEF788FA002007E0BDE8B0404F
:10549000FEF7AABA2069FEF77FFA012040F2D86130
:1054A000C2F2000120220A712870B0BD40F62430FB
:1054B000C2F20000016831B180B501390160FFF727
:1054C000A5FFBDE8804040F62C30C2F20000016824
:1054D00000291CBF0139016040F63030C2F20000E3
:1054E000016800291CBF0139016040F61C30C2F27E
:1054F00000000168002908BF704701390160FFF70B
:1055000055BF02E008C8121F08C1002AFAD170472F
:105510007047002001E001C1121F002AFBD1704733
:105520000000000000000000010203040607080953
:1055300000000000010203040000190032004B00CB
:1055400065007E009700B000C900E200FB00140176
:105550002D0146015F0178019101AA01C301DC011F
:10556000F5010E0227024002590272028B02A302C9
:10557000BC02D502EE0206031F0338035003690381
:1055800081039A03B203CB03E303FC0314042C044A
:1055900044045D0475048D04A504BD04D504ED0424
:1055A00005051D0534054C0564057C059305AB0513
:1055B000C205DA05F10508061F0637064E06650620
:1055C0007C069306AA06C106D706EE0605071B074A
:1055D000320748075E0775078B07A107B707CD0796
:1055E000E307F9070E0824083A084F0865087A0807
:1055F0008F08A508BA08CF08E408F8080D092209A1
:1056000037094B095F09740988099C09B009C40965
:10561000D809EC09FF09130A260A3A0A4D0A600A5A
:10562000730A860A990AAC0ABF0AD10AE40AF60A82
:10563000080B1B0B2D0B3E0B500B620B740B850BD9
:10564000970BA80BB90BCA0BDB0BEC0BFC0B0D0C6F
:105650001E0C2E0C3E0C4E0C5E0C6E0C7E0C8E0C3A
:105660009D0CAC0CBC0CCB0CDA0CE90CF80C060D48
:10567000150D230D320D400D4E0D5C0D690D770D8E
:10568000850D920D9F0DAC0DB90DC60DD30DDF0D1F
:10569000EC0DF80D040E100E1C0E280E340E3F0EED
:1056A0004B0E560E610E6C0E770E810E8C0E960E02
:1056B000A10EAB0EB50EBF0EC80ED20EDB0EE40E61
:1056C000EE0EF70EFF0E080F110F190F210F290F05
:1056D000310F390F410F480F500F570F5E0F650FF5
:1056E0006C0F720F790F7F0F850F8B0F910F970F34
:1056F0009C0FA20FA70FAC0FB10FB60FBB0FBF0FC0
:10570000C40FC80FCC0FD00FD40FD70FDB0FDE0F95
:10571000E10FE40FE70FEA0FEC0FEF0FF10FF30FBC
:10572000F50FF70FF80FFA0FFB0FFC0FFD0FFE0F31
:10573000FF0FFF0F00100010001000100010FF0FEF
:10574000FF0FFE0FFD0FFC0FFB0FFA0FF80FF70F07
:10575000F50FF30FF10FEF0FEC0FEA0FE70FE40F68
:10576000E10FDE0FDB0FD70FD40FD00FCC0FC80F18
:10577000C40FBF0FBB0FB60FB10FAC0FA70FA20F17
:105780009C0F970F910F8B0F850F7F0F790F720F63
:105790006C0F650F5E0F570F500F480F410F390FF9
:1057A000310F290F210F190F110F080FFF0EF70EE0
:1057B000EE0EE40EDB0ED20EC80EBF0EB50EAB0E13
:1057C000A10E960E8C0E810E770E6C0E610E560E8B
:1057D0004B0E3F0E340E280E1C0E100E040EF80D4C
:1057E000EC0DDF0DD30DC60DB90DAC0D9F0D920D57
:1057F000850D770D690D5C0D4E0D400D320D230D9D
:10580000150D060DF80CE90CDA0CCB0CBC0CAC0C2D
:105810009D0C8E0C7E0C6E0C5E0C4E0C3E0C2E0CF9
:105820001E0C0D0CFC0BEC0BDB0BCA0BB90BA80B05
:10583000970B850B740B620B500B3E0B2D0B1B0B48
:10584000080BF60AE40AD10ABF0AAC0A990A860ACA
:10585000730A600A4D0A3A0A260A130AFF09EC097C
:10586000D809C409B0099C09880974095F094B0962
:10587000370922090D09F808E408CF08BA08A50875
:105880008F087A0865084F083A0824080E08F907B7
:10589000E307CD07B707A1078B0775075E07480722
:1058A00032071B070507EE06D706C106AA069306B0
:1058B0007C0665064E0637061F060806F105DA0562
:1058C000C205AB0593057C0564054C0534051D0533
:1058D0000505ED04D504BD04A5048D0475045D041F
:1058E00044042C041404FC03E303CB03B2039A0323
:1058F00081036903500338031F030603EE02D50238
:10590000BC02A3028B0272025902400227020E025D
:10591000F501DC01C301AA01910178015F01460193
:105920002D011401FB00E200C900B00097007E00C9
:1059300065004B00320019000000E7FFCEFFB5FF05
:105940009BFF82FF69FF50FF37FF1EFF05FFECFE44
:10595000D3FEBAFEA1FE88FE6FFE56FE3DFE24FE7B
:105960000BFEF2FDD9FDC0FDA7FD8EFD75FD5DFDB1
:1059700044FD2BFD12FDFAFCE1FCC8FCB0FC97FCD9
:105980007FFC66FC4EFC35FC1DFC04FCECFBD4FBF0
:10599000BCFBA3FB8BFB73FB5BFB43FB2BFB13FBF6
:1059A000FBFAE3FACCFAB4FA9CFA84FA6DFA55FAE7
:1059B0003EFA26FA0FFAF8F9E1F9C9F9B2F99BF9BA
:1059C00084F96DF956F93FF929F912F9FBF8E5F870
:1059D000CEF8B8F8A2F88BF875F85FF849F833F804
:1059E0001DF807F8F2F7DCF7C6F7B1F79BF786F773
:1059F00071F75BF746F731F71CF708F7F3F6DEF6B9
:105A0000C9F6B5F6A1F68CF678F664F650F63CF6D3
:105A100028F614F601F6EDF5DAF5C6F5B3F5A0F5BE
:105A20008DF57AF567F554F541F52FF51CF50AF576
:105A3000F8F4E5F4D3F4C2F4B0F49EF48CF47BF4FF
:105A400069F458F447F436F425F414F404F4F3F349
:105A5000E2F3D2F3C2F3B2F3A2F392F382F372F35E
:105A600063F354F344F335F326F317F308F3FAF230
:105A7000EBF2DDF2CEF2C0F2B2F2A4F297F289F2CA
:105A80007BF26EF261F254F247F23AF22DF221F219
:105A900014F208F2FCF1F0F1E4F1D8F1CCF1C1F12B
:105AA000B5F1AAF19FF194F189F17FF174F16AF1F6
:105AB0005FF155F14BF141F138F12EF125F11CF177
:105AC00012F109F101F1F8F0EFF0E7F0DFF0D7F0B3
:105AD000CFF0C7F0BFF0B8F0B0F0A9F0A2F09BF0A3
