:020000040800F2
:1000000058130020010100082D350008AF28000812
:10001000492B000825030008BD450008000000002A
:100020000000000000000000000000002B3E00085F
:100030007D0D0008000000002F350008C93F0008B2
:100040001B0100081B0100081B0100081B01000820
:100050001B0100081B0100081B0100081B01000810
:100060001B0100081B0100081B0100081B01000800
:100070001B0100081B0100083D0D0008490D000888
:100080001B0100081B0100081B0100081B010008E0
:10009000414500081B0100081B0100087F0D0008F6
:1000A0001B0100081B0100081B0100081B010008C0
:1000B0001B010008B94000081B0100081B010008D3
:1000C0001B0100081B0100081B010008713D00080E
:1000D0001B010008FD4400081B0100081B0100086B
:1000E0001B0100081B0100081B010008DFF80CD0F1
:1000F00000F006F900480047C546000858130020E4
:100100000648804706480047FEE7FEE7FEE7FEE7B1
:10011000FEE7FEE7FEE7FEE7FEE7FEE76D400008CC
:10012000ED00000840EA01039B0703D009E008C97D
:10013000121F08C0042AFAD203E011F8013B00F8AC
:10014000013B521EF9D27047D2B201E000F8012BF8
:10015000491EFBD270470022F6E710B513460A4647
:1001600004461946FFF7F0FF204610BD80EA010261
:1001700010B502F00043400022D04A001FD0010E0B
:1001800001EB1261C0F35600C2F3560240F40000C6
:1001900042F40002A0FB022000047F39140400D0C6
:1001A000401C50EA124001D44000491EC2B20C0665
:1001B00004EBD010401C4008802A02D003E000204D
:1001C00010BD20F00100002900DA0020184310BD06
:1001D00030B480EA010202F0004530F0004221F024
:1001E000004013D090B1C30DD40DC2F31601C0F37B
:1001F0001600E41A41F4000140F400027D349142FB
:1002000001D3641C00E04900002C02DA30BC00205D
:1002100070474FF400000023914201D3891A034331
:1002200040084FEA4101F7D151B1914202D14FF05C
:10023000004105E002D24FF0010101E06FF0010141
:1002400003EBC450284430BC00F022B8C10F80EA50
:10025000E0700844CA079623002100F022B800F09D
:10026000004220F00040C10DC0F3160040F4000031
:100270007F2901DA00207047962903DCC1F196013D
:10028000C84001E096398840002AF4D040427047C7
:100290000029A8BF7047401C490008BF20F001009A
:1002A000704710B4B0FA80FC00FA0CF050EA010478
:1002B00004BF10BC704749B1CCF1200421FA04F40A
:1002C00011FA0CF118BF012121430843A3EB0C01E3
:1002D000CB1D4FEA00614FEA102042BF002010BC46
:1002E000704700EBC35010440029A4BF10BC7047F6
:1002F000401C490008BF20F0010010BC70470000FE
:10030000064C074D06E0E06840F0010394E8070062
:1003100098471034AC42F6D3FFF7ECFE3850000893
:1003200058500008FEE7000080B503F011F90649B7
:1003300000200022032A08BF80BD01EBC20321F880
:10034000320001325860F5E7E0010020F8B5B54C05
:1003500000250AE004EB45064FF48042B6F8C411CC
:10036000708E00F0B1FC70860135C92DF2D1B4F861
:10037000C001658E291AB1F5005FC8BFA1F58041A3
:1003800011F5005FB8BF01F58041002959D04FF049
:100390000000484F4FF01A03C8BF012084F85603ED
:1003A0001EE034F81300AEB2851BB5F5005FC8BF80
:1003B000A5F58045BD42B8BF05F58045002D2E4608
:1003C00048BF6E427A2E3EDA272E3CDDEDB3012D7A
:1003D00002DB002902DC38E0012936DA0133054668
:1003E000A3F11902C72ADCD93348002931DD0021E5
:1003F000C82243F6FF7C4FF0000E01F1C90501F160
:10040000C803C8294ED0B5FBF2F6013506FB00F74C
:10041000B3FBF2F6013346432744264407EB41077A
:1004200006EB4106B7F8C4710131B6F8C261B742B4
:10043000E7D2ACEB06034D1E0EF1010EC4E9D65314
:10044000DBE7012033E0022000E001206070626001
:10045000F8BD0021C82243F6FF7C4FF0000E01F1E9
:10046000C90501F1C803C8291CD0B5FBF2F6B3FBDE
:10047000F2F701350133464347432644274406EB50
:10048000410607EB41070131B6F8C461B7F8C27104
:10049000BE42E8D90EF1010EACEB06034D1EC4E9D5
:1004A000D653DCE7BEF1010F0CBF002003206070C3
:1004B000F8BD00BF00E0FFFF70FEFFFF59480021BC
:1004C000416001800172C160C0E9D611C0F86013BB
:1004D000704700BFB0B5534D287A062800F29A80C5
:1004E000DFE800F0041728525F6C99002878002894
:1004F00000F09080E8684FF47A7103F0F3F8002080
:100500004FF448412882E9600121297268706860CF
:10051000B0BDE8684FF47A710230E86003F0E2F8A9
:10052000E868B0F5C83F75D1022028724FF4484002
:10053000E860B0BDEC68200619D1F14A288A12881B
:10054000411C05EB40002982428288B2102810D15C
:1005500005F1120010214FF4804200F0C7FBA4F512
:100560004841090A05EB41014886002028820134F0
:10057000EC6020464FF47A7103F0B4F8E868B0F507
:10058000C83F47D9032044E0E8684FF47A7101304E
:10059000E86003F0A7F8E868B0F5D23F3AD104204C
:1005A00037E0E8684FF47A710138E86003F09AF8B0
:1005B000E868B0F5C83F2DD105202AE0EC68200698
:1005C0001AD1CF4A288A1288411C05EB40002982A3
:1005D000428288B2102811D105F1120010214FF487
:1005E000804200F083FBA4F54841090A05EB410174
:1005F000A1F8C40100202882013CEC6020464FF4A1
:100600007A7103F06FF8E868C00A182888BFB0BD97
:1006100006202872B0BD00200021BDE8B04003F0E4
:1006200061B800BF480200202DE9FE4FDFF8C4B2D8
:100630009BF80800062818BFBDE8FE8F03F0C8F835
:10064000FFF784FE9BF80100002840F04181AA4C8E
:100650000020CBF86003204603F062FC204603F044
:1006600057FC9BF85613DBF85803002900F08E80E6
:100670000BF132014FF4484A0DF10A09009101468D
:100680007EE001F1C802C826009DB2FBF6F303FB31
:10069000162201F1C903B3FBF6F735F8122007FB68
:1006A000163335F813309C1A944AB4F5005FC8BF6E
:1006B000A4F58044944201F10102B8BF04F58044DE
:1006C000814201921ED1DBF85C630AEB0025370200
:1006D00015E097FBF4F001222844B0FBFAF101FB8E
:1006E0001A004946ADF80A00834803F04DFCDBF8D8
:1006F000600307F5807701360130CBF86003A6422E
:10070000E7DB3AE0C8300AEB0128002500268142E9
:1007100016D030E095FBF4F001224044B0FBFAF132
:1007200001FB1A004946ADF80A00734803F02CFC9F
:10073000DBF8600305F5807501360130CBF8600306
:10074000DBF85C038642E5DB17E095FBF4F0012261
:100750004044B0FBFAF101FB1A004946ADF80A002B
:10076000654803F011FCDBF8600305F58075013680
:100770000130CBF86003A642E7DBDBF858030199B0
:1007800000F1C9029142FFF67CAF8FE00BF132011C
:1007900000F1C8074FF4484A0DF10A09009182E0C0
:1007A00007F1C901C826009DB1FBF6F202FB161144
:1007B00007F1C802B2FBF6F335F8111003FB16225D
:1007C00035F81220541A4D4900F1C802B4F5005F03
:1007D000C8BFA4F580448C4207F10101B8BF04F5FD
:1007E0008044974201971ED1DBF85C630AEB012538
:1007F000370215E097FBF4F00122281AB0FBFAF15A
:1008000001FB1A004946ADF80A003B4803F0BCFB67
:10081000DBF8600307F5807701360130CBF8600321
:10082000A642E7DB3BE00AEB0128002500268742D1
:1008300017D032E095FBF4F00122A8EB0000B0FBEA
:10084000FAF101FB1A004946ADF80A002A4803F004
:100850009BFBDBF8600305F5807501360130CBF8B2
:100860006003DBF85C038642E4DB18E095FBF4F000
:100870000122A8EB0000B0FBFAF101FB1A00494687
:10088000ADF80A001C4803F07FFBDBF8600305F5B8
:10089000807501360130CBF86003A642E6DB019F8C
:1008A000DBF85803013F8742BFF67AAF124803F0E6
:1008B00069FBDBF86003B0F5804F06D19BF80100BF
:1008C00030B90F480121017108E004208BF80100C4
:1008D0000B4800210171084803F022FBBD490020AC
:1008E00001228BF808008BF8000081F85820BDE841
:1008F000FE8F00BF480200201400002000E0FFFF30
:100900007A000020B34A014601291065906A02DB93
:1009100000F5807003E0002918BFA0F58070D06456
:1009200002F0E0BE5B48017821B9012101704FF46B
:100930007A714160417821B9012141704FF4A07171
:100940008160817821B9012181704FF44871C160C3
:10095000C17821B90121C1704FF41671016180B5D0
:1009600014302021FFF7F7FB80BD00BF2DE9F047D1
:10097000DFF854C90246484CDCF81CE0DCF82800DB
:10098000151AA1EB0E07434AFB11B5F5486FC2E9F2
:10099000055302DD4FF4486504E015F5486F02DAAF
:1009A00004F5FA6555613D498F4203DDA24641F2E7
:1009B000504106E03A49A246A1F5AF218F422146B7
:1009C00001DA0B4691615168002D2F4605FB01F6B7
:1009D000D66148BF6F42322F16DAD2E90294916A8B
:1009E000D2F8208009FB051103FB0411CC1101F0A2
:1009F0007F05C2E90A5408EBE115B5F5962F15629B
:100A000005DD4FF4962506E00025956203E015F517
:100A1000962F01DA224D15621169032F03FB01F4B1
:100A200003FB016101EB050654624FEAA621116345
:100A30000CDCBEF1000F48BFCEF1000EBEF1310F4D
:100A400004DC002191621163116210E0634B9E424D
:100A500007DB4FF42F61CCF85010116300F5807064
:100A60000BE016F52F1F0EDA0AF516611163CCF8AC
:100A700050100029B8BFA0F58070CCF84C00BDE83C
:100A8000F04702F02FBEB6F5806FCCF85010E5DAD3
:100A9000EFE700BF14020020B0EBFFFF7F280A0041
:100AA0000050FBFF4A4890F8281021B9012180F836
:100AB00028106421C16290F8291021B9012180F821
:100AC00029107821016390F82A1021B9012180F8BA
:100AD0002A105021416380B538302021FFF73BFBBD
:100AE00080BD00BF2DE9F041394CDFF8DC87D4E947
:100AF0000B35D8F81C20A16B666C821A3648E1636E
:100B0000B2F5801F8446A8BF4FF4801200F5DE10B6
:100B10008242D8BF02465343A2632364E06C02FBC7
:100B200005052846AF1206EBA5256FF39F20B5F506
:100B30002F1FC4E91307656403DD4FF42F106746C8
:100B400003E067466545604601DA05466064501A71
:100B5000616B01FB00F201FB0030A2641F4A2844D4
:100B600081129042616509DB4FF452714FF42F609E
:100B7000C8F850106065D8F8280018E0B8420ADAC2
:100B80001749A1F5F560C8F850106065D8F828003D
:100B9000A0F580700DE0C1EB01104200642092FBD3
:100BA000F0F1642AC8F85010D8F828000ADB00F5E4
:100BB0008070C8F84C0002F095FD606DC8F85000D8
:100BC000BDE8F08112F1640FD8BFA0F58070F0E7A6
:100BD00090000020500700200040D4FF00C42B00EC
:100BE000B8FCFFFF80B5DFF8DCC0DCF81420811A08
:100BF00048D0DCF81030012910DB002A1FDBDCF8BC
:100C0000041044F6206E194491FBFEF31A4403FBD2
:100C10001E118242CCE9041231DA36E0002A20DDCE
:100C2000DCF80C0044F62061181A90FBF1F31A442A
:100C300003FB1100002ACCE9040226DC0DE0DCF8FD
:100C40000C0044F62061184490FBF1F31A4403FBB6
:100C50001100002ACCE9040217DB0022CCE90422AF
:100C600013E0DCF8041044F6206E591A91FBFEF3F1
:100C70001A4403FB1E118242CCE9041205DC002158
:100C8000CCF81010CCF814000246CCF8182080BD27
:100C90000C48017821B9012101704FF42F514160B6
:100CA000017A21B9012101724FF42F51C160002155
:100CB000C0E904118161704702490022C1E90420A2
:100CC000704700BFF801002003460844591A4FEA54
:100CD000600048BF4942B1EB620FD8BF7047511066
:100CE0008842A4BF401A7047084470472DE9F0437A
:100CF000B0F800E0C2F100094FEA620C01254FEAAA
:100D0000690876460EE030F815704B460135A7EBC2
:100D10000E046445D8BF0023444506EB0704B8BF62
:100D20001346E6188D42EED396FBF1F10029B8BFC9
:100D30001144881AD8BF0846BDE8F083014800F086
:100D400039BB00BF18060020014800F033BB00BFCC
:100D5000D405002010B5D0E90FCE012404FA0EF41A
:100D6000CCF804400468636040681028084608BF57
:100D70001046A06008BF0A46E26010BD7047704789
:100D80007047000020480021C1610C48016841F013
:100D900004010160016841F040010160704700BF3B
:100DA00019490022CA6105490A6842F002020A6034
:100DB0004860086840F0400008607047102002401A
:100DC00027480168C90601D4002105E00E49CA6917
:100DD00042F00202CA6110210268520706D50A4A8F
:100DE00041F00401D36943F00103D3610269D207E2
:100DF00008D0054AD36943F00403D361026922F0A5
:100E00000102026101607047100B0020F8B5144E1A
:100E1000044600F07FFD0546671C3068C00709D016
:100E2000002FFAD024B100F075FD401BA042F4D988
:100E3000032012E03068800644BF20203060306814
:100E4000C00607D43069C00704D13068400701D418
:100E5000002002E0FFF7B4FF012001B0F0BD00BFA9
:100E60000C200240F8B50C480122016841F0040151
:100E700001604FF48071006800F004000090009859
:100E800006480161CDE9001200210291022103917F
:100E9000694600F067FC8FBD181002400008014051
:100EA00010B590F82040D0F800C0013CDCF808E014
:100EB000012C0DD81EF0E05F10D0CEF3016EBEF114
:100EC000030F11D100F1240101204FF4000234E09E
:100ED00000F1240101204FF480222EE000F12401D2
:100EE00001204FF4001228E0012000FA0EF01860F3
:100EF000D1E9023023B118434B6840EAC30302E052
:100F00000B6840EA43530CEB0E10C0F880310B69BC
:100F1000C0F88431097D012905D100F5C2710B6843
:100F200043F480730B605168C0F88C111168012282
:100F3000C0F8881100F5C07100200B681A430A60E0
:100F400010BD704710B590F82040013C012C71D8BD
:100F5000D0F800C000290CBFDCF80C40DCF81040D1
:100F6000A4076DD00CEB011CDCF8B0410CF5D87E69
:100F700014F004049460DCF8B04119BFE408546034
:100F8000640D14600029DEF8004004F00204D4600F
:100F9000DCF8B44104F00F041461DCF8B441C4F38C
:100FA00007249461DCF8B4414FEA14445461DCF83E
:100FB000B8211A70026802EB0112D2F8B8214FEA88
:100FC00012225A70026802EB0112D2F8B8214FEADD
:100FD00012429A70026802EB0112D2F8B8214FEA6D
:100FE0001262DA70026802EB0112D2F8BC211A71A7
:100FF000026802EB0112D2F8BC214FEA12225A71A8
:10100000026802EB0112D2F8BC214FEA12429A7137
:10101000026802EB0112D2F8BC214FEA1262DA71C7
:101020004FF0200200680CBF00F10C0100F110012C
:1010300000200AE000F1240101204FF4802204E0A6
:1010400000F1240101204FF400120B681A430A60DA
:1010500010BD00002DE9F84F044600684669D0F83D
:1010600004908768D0F80CB0D0F810A0D0F81880A1
:10107000F10701D1002549E0F9070ED00121816077
:10108000B80707D478071DD4380721D4204600F0CC
:1010900026F902E0204600F023F90025F8051CD5CA
:1010A00020684FF480718160B80507D478050CD4AE
:1010B000380510D4204600F014F90EE0204600F068
:1010C00011F90AE04FF40065E8E705F5005504E082
:1010D0004FF48055E2E705F58045F80316D5206802
:1010E0004FF480318160B80307D4780309D4380302
:1010F0000AD4204600F0F7F808E0204600F0F4F8A3
:1011000004E005F5004501E005F58035300707D519
:101110001BF0100004D02068102145F40075C16058
:10112000700708D51BF0080005D020680821C160B1
:10113000204600F08CF8B00706D52068C06880070C
:1011400002D0204600F084F8700607D51AF010008F
:1011500004D02068102145F480650161B00608D5EF
:101160001AF0080005D0206808210161204600F02F
:10117000B3F8F00606D520680069800702D0204643
:1011800000F0ABF8B00308D519F0100005D02068C6
:1011900010214160204600F0A1F8F00308D519F0B5
:1011A000080005D0206808214160204600F09DF825
:1011B000300441D55FEA49703BD506F480705FEAA0
:1011C000887108EA102040EA0500014648BF41F056
:1011D0000201B20558BF01465FEA48700D4648BF9C
:1011E00045F00405700558BF0D46300521D518F0AF
:1011F00070001ED010380009052815D8DFE800F06F
:101200000306090C0F1245F008050DE045F0100526
:101210000AE045F0200507E045F0400504E045F010
:10122000800501E045F480752068816921F0700136
:1012300081612068042141603DB1606A2843606299
:101240002046BDE8F84FFFF77CBEBDE8F88F704739
:10125000B0B58AB003AA01AB0021FFF773FE08B155
:101260000AB0B0BD039812281BD01028F8D1019CF9
:1012700001F09CFF2020202501F0D0FF204601F046
:10128000D3FF1148022180F86110057100F042FB84
:101290000E4908600E48012101700E4800210170BE
:1012A000DEE79DF80400012805D00028D8D11020E1
:1012B00001F0B4FFD4E7202001F0B0FF024800693C
:1012C00001F0B2FFCCE700BF500700204C0B00201C
:1012D000F4060020E8000020704770477047704710
:1012E00070477047704770477047704790F82110FB
:1012F000022912D1016801230A6822F00E020A6055
:101300000A6822F001020A60D0E90F1203FA02F221
:101310004A60002180F8213002E00421816301212C
:10132000002280F8202008467047000090F8211025
:1013300002291BD102686A4B11689A4221F00E0102
:101340001160116821F001011160644912D0654BF0
:101350009A4211D0644B9A4210D0644B9A4210D0FA
:10136000634B9A4210D14FF4803315E0042181631E
:101370000120704701230FE010230DE04FF480732C
:101380000AE04FF4805307E001F1680C4FF08073DE
:10139000624508BF4FF480130B604FF480710184E5
:1013A000416B19B180B58847002080BD002070478F
:1013B000806B704710B5D0E90FCEDCF800200168D3
:1013C0000B685C071ED5042404FA0EF4144019D0EF
:1013D0000A68434B92065EBF0A6822F004020A6064
:1013E00099423E4A5AD03F4B994246D03E4B994291
:1013F00045D03E4B994245D03D4B994245D14FF4A3
:1014000080234CE09C0721D5022404FA0EF41440FA
:101410001CD00A68920606D40A6822F00A020A6002
:10142000012280F821202E4B2C4A99423AD02D4B94
:10143000994239D02C4B994238D02C4B994238D014
:101440002B4B994238D14FF400333DE01B0744D574
:10145000082303FA0EF31A4008BF10BD0A6822F0F1
:101460000E020A60012101FA0EF2CCF80420816319
:101470004FF480710184016B2BE040230FE04FF4A7
:1014800080630CE04FF4804309E002F168044FF000
:101490008063A14208BF4FF4800300E0042313607F
:1014A000C16A16E002230FE020230DE04FF4007321
:1014B0000AE04FF4005307E002F168044FF00073B4
:1014C000A14208BF4FF400130021136080F82010E0
:1014D000816A11B1BDE81040084710BD0400024008
:1014E000080002401C00024030000240440002405C
:1014F0005800024040B32DE9F043154990E80C0133
:10150000144F00F10C0E9EE87050894617441421C8
:10151000B7FBF1F143F6F0778900C0E90F9111684C
:10152000B943194341EA080121432943314341EAC0
:101530000C0141EA0E01116000214FF480728163B9
:101540000284BDE8F04300E001210846704700BF77
:1015500000000240F8FFFDBF10B5044690F82000DF
:10156000012820D0012084F8200094F821000128CF
:1015700016D10020A063022084F82100D4F800C016
:10158000DCF8000020F00100CCF800002046FFF756
:10159000E1FB2068E26A01683AB141F00E010AE01D
:1015A000002084F82000022010BD21F00401016019
:1015B000016841F00A010160016841F00101016028
:1015C000002010BDB0B5044600F0A4F90546EE4871
:1015D000611C007818BF044400F09CF9401BA04235
:1015E000FAD3B0BD2DE9F041DFF84881054698F8FF
:1015F0001800012801D102201CE001200C4688F8C7
:1016000018004CF250302E68FFF700FC022E0CD16F
:1016100060B9FFF7B7FB4CF25030FFF7F7FB4649D4
:101620000A6822F004020A6001E030B101200021C2
:1016300088F81810C0B2BDE8F0814FF0FF303E4F7F
:1016400020600120A9680E4610E03046FFF7A8FB95
:101650004CF25030FFF7DAFB3968002821F0020124
:10166000396009D1A96806F580660020EA6801EBB7
:1016700082218E42E9D3DAE72660D8E72E48016856
:1016800041F0800101600020704700BF2DE9F84F54
:10169000DFF8A080814698F81800012801D10220C7
:1016A00045E001201C4692460E4688F818004CF290
:1016B0005030FFF7ABFBB8BBB9F1020F4F461E4DE0
:1016C0004FF0000B18BF0427B9F1010F08BF4F46B8
:1016D0006FF01F095FFA8BF0874224D900210201C5
:1016E000C8F81C102AFA02F2296841F001012960A9
:1016F0002021A1EB001104FA01F1114309EB0012C2
:10170000002AA8BF24FA02F126F810104CF250303B
:10171000FFF77CFB29680BF1010B002821F0010188
:101720002960D7D000E00020002188F8181001B00F
:10173000BDE8F08F100B0020102002400648C16861
:1017400009065CBF0020704704490160044901603C
:10175000C068C0F3C01070470420024023016745F1
:10176000AB89EFCD2DE9FC4F594A04234FF0000B14
:101770004FF001084FF00F0E4FF000090025904286
:1017800008BF032300930A6832FA05F308BFBDE8D7
:10179000FC8F08FA05F73A4200F096804A68032A5F
:1017A00016D9112A24D0122A26D04C4B9A4213D093
:1017B0004B4B9A4210D04B4B9A420DD04A4B9A4217
:1017C0000AD04A4B9A4207D0494B9A4204D020E0B3
:1017D000DFE802F00216191D8A6832B1012A4FF0C3
:1017E000080914BF4761076113E04FF0040910E0D6
:1017F000CA6802F104090CE0CA6802F10C0908E0A9
:10180000D1F80C9005E0CA6802F1080901E04FF038
:101810000009082D5A46044628BF203A28BF043440
:1018200026680EFA02F309FA02F226EA03031A43C3
:101830002260CA79D20647D5624A0BF00C0C1346D7
:10184000126842F001021A601A680EFA0CF302F0F4
:10185000010201921F4A019CAC08A2F57E7656F85F
:10186000242022EA030A234A904208D0224A9042C6
:1018700007D0224A009B904208BF022302E00023C7
:1018800000E0012303FA0CF242EA0A0246F824209F
:10189000104E4A68D303336854BFBB433B433360A5
:1018A0009303736854BFBB433B437360D302B36875
:1018B00054BFBB433B439202074AB36013461268CE
:1018C00054BFBA433A431A600BF1040B01355AE78F
:1018D00000140140000401400C04014000001110FC
:1018E0000000121000002110000022100000311032
:1018F0000000321000080140000C014000100140BF
:101900008068084018BF01207047002A08BF0904FA
:101910000161704705480068704700BF1A480349D5
:1019200000780A6810440860704700BF500B002020
:1019300080B5CC48016841F010010160032000F03F
:1019400071F8002000F004F800F020F8002080BDBD
:1019500070B50D4E04464FF47A713078B1FBF0F05B
:10196000CD490968B1FBF0F000F004FD01250F2C12
:1019700008D838B94FF0FF3021460022002500F08A
:1019800033F87460284670BD0000002082B00D4816
:101990000222016841F001010160016801F00101CA
:1019A00001910199416841F080514160406800F027
:1019B0008050009000980448016862F31A61016049
:1019C00002B070471810024004000140002808DBF4
:1019D00000F01F010122400902FA01F1014A42F818
:1019E0002010704700E100E080B5144B1B68C3F382
:1019F000022CBCF1030E8CF007034FF0FF3C38BF04
:101A00004FF0000E042B28BF04230CFA03F3994374
:101A10000CFA0EF301FA0EF19A431143BDE880402F
:101A200002F0CEBD05494FF6FF030A681A4060F385
:101A30000A22034810430860704700BF0CED00E025
:101A40000000FA052DE9FC4104460078A44EC007C9
:101A500056D0B069C0000BD4B0694FF0010840F017
:101A60008050B061B06900F080500190019801E0B1
:101A70004FF000082D4F3868C00510D4386840F486
:101A800080703860FFF746FF05463868C00506D409
:101A9000FFF740FF401B6428F7D9032042E0F069BC
:101AA00010F440701ED0616801F44071884219D072
:101AB0001F49F06901220A6000220A6020F4407187
:101AC000C007F1610ED0FFF725FF054641F28837C8
:101AD000F069800706D4FFF71DFF411B0320B942C0
:101AE000F6D91FE0F0696168B8F1000F20F440708A
:101AF00040EA0100F0611EBFB06920F08050B06183
:101B00002068810705D53168A26821F4404111435E
:101B10003160C00605D53068E16820F480000843D4
:101B20003060002002B0BDE8F08100BF00700040CE
:101B3000400442422DE9F843002800F08E80884698
:101B400048490446086800F0070040450AD2086882
:101B500020F0070040EA08000860086800F007006D
:101B600040457AD120685E4B8946810711D54107EF
:101B700042BF196841F4E0611960010742BF19686A
:101B800041F4605119601968A26821F0F001114315
:101B90001960C0072AD06068012804D153F8041CDA
:101BA000890309D459E053F8041C022802D18901A1
:101BB00002D452E0890750D519681D4621F003016F
:101BC00008431860FFF7A6FE064641F288372868EA
:101BD00061682B4600F00C00B0EB810F06D0FFF7D8
:101BE00099FE801BB842F2D9032037E0D9F80000F3
:101BF00000F0070040450DD9D9F8000020F007009B
:101C000040EA0800C9F80000D9F8000000F0070019
:101C1000404522D12068410705D51968E26821F4C2
:101C2000E06111431960000706D51868216920F4A6
:101C3000605040EAC10018601C4600F031F821688D
:101C4000094AC1F30311515CC840F54908600748CF
:101C50000068FFF77DFE002000E0012001B0BDE834
:101C6000F08300BF002002401E480008040000204E
:101C7000EB481B49094A00680968C1F30221515C1D
:101C8000C8407047E6481649044A00680968C1F32D
:101C9000C221515CC8407047100000202E48000847
:101CA0000F4910480A6802F00C03042B08BF704764
:101CB000082B12D1C2F3834C0BA3D20313F80C30C0
:101CC0005EBF0E485843704709680BA25843C1F3E2
:101CD0004041515CB0FBF1F070470948704700BFCC
:101CE00004100240001BB7000203040506070809A0
:101CF0000A0B0C0D0E0F10100102000000093D0030
:101D000000127A002DE9FC41002800F040810446D1
:101D10000078C14EC0074AD0706800F00C0004285B
:101D200017D0706800F00C00082802D17068C0035A
:101D30000FD4606898B1B0F5803F06D03168B0F537
:101D4000A02F21D141F480203060306840F48030F1
:101D500020E0306880032AD5606840BB17E1306816
:101D600020F480303060306820F480203060FFF74D
:101D7000D1FD05463068800319D5FFF7CBFD411B27
:101D800003206429F6D903E121F480303060306803
:101D900020F480203060FFF7BDFD054630688003E9
:101DA00005D4FFF7B7FD401B6428F7D9D1E02078B0
:101DB00080072BD5706810F00C0F07D0706800F00A
:101DC0000C00082809D17068C00306D43068800769
:101DD00015D52069012812D0D9E021698F48002942
:101DE0007CD001210160FFF795FD05463068800732
:101DF00005D4FFF78FFD401B0228F7D9A9E0306812
:101E0000616920F0F80040EAC100306020780007E6
:101E10002ED5A06978B181480121C0F88014FFF760
:101E200079FD0546706A800715D4FFF773FD401BE6
:101E30000228F7D98DE079480021C0F88014FFF717
:101E400069FD0546706A800712D5FFF763FD401BE8
:101E50000228F7D97DE072484FF4FA510068B0FBD0
:101E6000F1F0019000BF0198411E00280191F9D1C5
:101E70002078400776D5F069C0000BD4F0694FF0A8
:101E8000010840F08050F061F06900F0805000904F
:101E9000009801E04FF00008624F3868C0050FD489
:101EA000386840F480703860FFF734FD05463868C4
:101EB000C00505D4FFF72EFD401B6428F7D948E084
:101EC000E068D8B1012805D0316A05282DD141F04C
:101ED00004003062306A40F001002CE00021016013
:101EE000FFF718FD0546306880077FF58FAFFFF7D5
:101EF00011FD411B03200229F5D949E0306A20F089
:101F000001003062306A20F004003062FFF702FD09
:101F1000054641F28837306A80071CD5FFF7FAFC86
:101F2000411B0320B942F6D932E021F001003062B2
:101F3000306A20F004003062FFF7ECFC054641F205
:101F40008837306A800706D4FFF7E4FC401BB842AC
:101F5000F7D903201CE0B8F1000F1EBFF06920F094
:101F60008050F061E769002F53D0706800F00C00DA
:101F7000082810D1012F0AD07068216A00F480323D
:101F80008A4204D1616A00F47010884241D0012075
:101F900002B0BDE8F0812149002088460866FFF7BD
:101FA000B9FC0546022F0AD147463068800110D59A
:101FB000FFF7B0FC411B03200229F6D9E8E730689F
:101FC000800126D5FFF7A6FC411B03200229F6D984
:101FD000DEE7206AB0F5803F05D17168A26821F480
:101FE0000031114371607168626A104321F4741109
:101FF0000843706001203866FFF78CFC04463068A7
:10200000800106D4FFF786FC011B03200229F6D9C4
:10201000BEE70020BCE700BF0010024000004242C3
:102020001000002000700040704700001FB50446FB
:102030000068416882684B0605D502F04103012B18
:1020400001D1216C05E00B0608D512F0020305D082
:10205000616C204604B0BDE8104008478B0655D59A
:1020600012F0600352D012F0400316D094F85130B1
:10207000032B07D100210291C16802918068029070
:10208000029843E0636D43F0040363650023039308
:10209000C368039383680393039B12F020020CD060
:1020A000626D42F001026265002201928268019233
:1020B000026822F040020260019A626D32B3426807
:1020C000890722F0E00242604FF0010284F85120BB
:1020D0001DD0416821F003014160E06C40B10F491F
:1020E0004163FFF723F918B1606D40F0400060656F
:1020F000A06C58B109494163FFF718F9002808BFDF
:102100001FBD606D40F0400060651FBD1FBD2046D3
:1021100004B0BDE81040FFF787BF00BF7D3D000859
:1021200070B5B8B3002605464FF0000C866290F8F3
:10213000510030B9284685F8506000F02EF8D5F8E7
:1021400028C0022185F8511029680A6822F040024F
:102150000A60D5E90123D5E903041A4310436A69EB
:1021600020431043AA6902F400731843EB69184333
:102170002B6A184340EA0C000860042000EA124071
:102180004860C86920F40060C86101206E6585F868
:10219000510000E00126304670BD70472DE9F8433C
:1021A000044690F85000012801D10220C8E0012027
:1021B0001E4615460F4684F85000FFF7ABFB94F817
:1021C0005110814601296CD10120002F00F0B2800E
:1021D000002D00F0AF80002E00F0AC8094F851008C
:1021E000731EDDF82080B3FA83F304284FEA5313FB
:1021F0001CBF052084F8510000206065E687A563B8
:10220000A6872763A686C4E91000E68620680168D1
:1022100049065EBF016841F0400101606168E26803
:10222000B1FA81F1B2F5006F4FEA511141EA0301B1
:1022300045D131B137F8021BC1602763E08E013808
:10224000E086012608F10105E08E10B9E08F002834
:1022500079D02068816889070CD5E18E012E09D1DB
:1022600041B1216B002631F8022BC2602163E18E5F
:102270000139E1868168C9070AD0E18F41B1C068A0
:10228000A16B012621F8020BA163E08F0138E087E2
:10229000FFF740FB002DD7D0A0EB09004045D3D37A
:1022A00047E06068B0F5827F07D10220042941D160
:1022B000A16800293FF488AF3CE002203AE039B140
:1022C00039780173206B01302063E08E0138E0869D
:1022D000012608F10105E08E08B9E08F98B3206867
:1022E000816889070ED5E18E012E0BD151B1216B8A
:1022F000002609780173216B206801312163E18E8A
:102300000139E1868168C9070BD0E18F49B1C06806
:10231000A16B01260870A06B0130A063E08F01382B
:10232000E087FFF7F7FA002DD5D0A0EB0900404574
:10233000D1D30320002184F85010012184F85110DA
:1023400001B0BDE8F083204641464A4601F01CFD3D
:1023500018B1202060650120ECE7A1680020002969
:10236000E8D100902168CA680092896800910099BC
:10237000E0E70000411E0020B0EB116F1CBF012000
:102380007047044AF023516003490B7007219060A5
:102390001160704710E000E023ED00E090F83C3061
:1023A0000222012B19D080B580F83D2002685368C5
:1023B000D2F808C023F0700ED1E9003143EA0E03D1
:1023C00053602CF08003194391600022012180F8B2
:1023D0003C2080F83D10BDE880401046704700006A
:1023E00070B50D4690F83C1004460220012908BF44
:1023F00070BD84F83D004FEAB2000126032884F83E
:102400003C6036D8DFE800F0020A12222068294634
:1024100001F090FE206850F8181F0EE02068294651
:1024200001F0B4FE206850F8181F16E02068294615
:1024300001F0DCFE206850F81C1F41F0080101602B
:10244000016821F00401016029690FE02068294634
:1024500001F0FCFE206850F81C1F41F4006101608F
:10246000016821F480610160296909020268114351
:102470000160002084F83C0084F83D6070BDB0B17C
:1024800010B5044690F83D0028B9002084F83C00BF
:10249000204600F00EF80220211D84F83D0020683F
:1024A00001F00CFE012084F83D00002010BD012049
:1024B0007047704710B504460068012201F02AFEFB
:1024C00020680949884203D14A6C42F400424A64B8
:1024D000816801F0070106291EBF016841F0010172
:1024E0000160002010BD00BF002C014010B5044663
:1024F0000068C16821F49071C160416921F0010157
:1025000041614169490613D5416921F040014161AA
:10251000606B68B100214163FEF7E8FE40B1606B7B
:10252000FEF746FF202803D11020E063032010BDF2
:1025300000202021E08584F83A1010BD704700008B
:1025400070B50646006802680146C36851F8144F2A
:102550005FEA027C50D003F4907504F001042D1959
:1025600053D0D0071FBF13F48070F06B40F0010010
:10257000F063500704D51CB1F06B40F00200F0632B
:10258000900704D51CB1F06B40F00400F063BCF17F
:10259000000F04D51CB1F06B40F00800F063F06B45
:1025A00000286CD003EA0200800605D5304601F011
:1025B00025FF306800F114010868F16B00F040005D
:1025C00001F0080140184BD0304601F0D9FE3068C8
:1025D000416949063FD5416921F040014161706B75
:1025E000C8B32C494163FEF7A1FE002847D0706BA9
:1025F000416BBDE87040084703EA02018A0606D530
:102600003046BDE8704001F0F9BE03EA02010A0657
:102610000DD4490633D5C16821F04001C1602020A6
:1026200086F839003046BDE8704000F023B996F8CE
:102630003910212923D1B268316AB2F5805F15D1F2
:102640000A886FF35F2242603269002A14BF0131A9
:10265000023131620EE03046BDE87040FFF76EBFD8
:102660003046FFF76BFF0020F06370BD4A1C3262FA
:1026700009784160F18C0139F184090400D070BD02
:10268000C16821F08001C160C16841F04001C160B2
:1026900070BD00BF9942000850B310B5044690F8D1
:1026A000390028B9002084F83800204600F022F8CC
:1026B000242084F839002068C16821F40051C160E9
:1026C000204601F0D9FE2068016921F490410161A2
:1026D000416921F02A014161C16841F40051C160A2
:1026E00000202021E06384F8391084F83A1010BDEE
:1026F0000120704770470000BCB5054690F83A00CD
:10270000202807D113460A4631B12BB195F838007D
:10271000012803D102242FE001242DE00024012010
:10272000DFF85CC01749DFF848E1EC63AA6285F87E
:1027300038002220AB8585F83A00686B00F1280745
:1027400087E80250446329680431FEF705FF0194CD
:1027500028680168019141680191019985F8384024
:10276000C16841F48071C160416941F0010141617A
:10277000416941F040014161204602B0B0BD00BF57
:102780002F430008F942000870B5474E3168814276
:1027900018BF002600D070BD3068FFF7A7FEB068F4
:1027A00006F5867506F50374294600684068C0F58D
:1027B0008070A6F80E0382B22046FDF7B3FCB6F88F
:1027C0000E03D6F814134FF4807208442946C6F855
:1027D00014033068FFF790FFB6F80E13022938BFD4
:1027E00070BDD6F81823002AD5D02046BDE8704029
:1027F000104700BF70470000B0B5054690F839009B
:10280000202806D139B113462AB195F8380001289D
:1028100003D1022425E0012423E000240120EB84DD
:10282000DFF844C0114ADFF848E0EC63296285F81C
:1028300038002120AB8485F83900286B00F1280787
:1028400087E8045044632A680432FEF785FE28684E
:102850006FF04001016085F83840416941F0800126
:1028600041612046B0BD00BF5B430008354300080E
:10287000A542000810B5DD4C216881421CBF002430
:1028800010BD2046002101F06BFD206804F5867123
:102890004FF48072FFF730FFD4F81C0310B1BDE88D
:1028A0001040004710BD00BFEC0700207047FEE756
:1028B0001149886048610A68D1E903C3C1E900028F
:1028C000801AC3EB831244F6206300FB03206044AC
:1028D000821100F03F000A61C8608A61704700BF42
:1028E00080B505481C21FDF736FC80BD024AC2E9CF
:1028F0000000906011617047F80600202DE9F0415A
:10290000814DEE6A6C6A871B15D0FCB1012FA8BF00
:10291000012C30DA07EA0400B0F1FF3F5CDDB7F1CB
:10292000FF3F01DC012C48DA012FC0F29080B4F1A6
:10293000FF3F7BDD8BE0E86941428C4214DB84423F
:1029400012DC0024C5E90844AC6280E0E868296A2A
:10295000012FACBF0844081A44F6206190FBF1F443
:1029600004FB1100286271E0012C26DAB4F1FF3F6C
:102970005CDD00246BE0D5F8048044451DDC204676
:10298000FDF764FC0146FDF7F1FBA969FDF7EEFBDD
:10299000FDF765FC874210DD444558DAE868296A8E
:1029A000084444F6206190FBF1F2144402FB11004C
:1029B0004445C5E9080434DA49E06869296A081A17
:1029C00044F6206190FBF1F2144402FB1100002C4C
:1029D000C5E908043BDC37E06868C0F100084445FD
:1029E00024DB2046FDF732FC0146FDF7BFFBA96959
:1029F000FDF7BCFBFDF733FC002F00D57F4287427B
:102A000014DD444523DDE868296A081A44F620618C
:102A100090FBF1F2144402FB11004445C5E908049F
:102A200015DC00204446C5E9080810E06869296AF9
:102A3000084444F6206190FBF1F2144402FB1100BB
:102A4000002CC5E9080402DB00242C626C626C6374
:102A500044F62061A86A204490FBF1F2931902FB2E
:102A60001100EB62A8622B63BDE8F08110B5264C23
:102A7000207818B90120207013486060207A18B9B6
:102A8000012020721148E060207C10B90F4800F04E
:102A90001FF84FF448401821E06104F12000FDF7D1
:102AA0005AFB10BD184A0023C2E90831C2E90A30B6
:102AB000704700BF1449044801220A704860034867
:102AC000C8600A7200F004B80010270000E0930408
:102AD000002800D540420B4A411E91420ED810B545
:102AE000094C6061FDF7B2FB01464FF07C50FDF7E9
:102AF0006FFBA0610120BDE8104000E0002002490A
:102B000008747047FFBF27091407002080B54FF0F5
:102B1000FF3000210022FEF767FF2520022100225E
:102B2000BDE88040FEF760BF0548012101700548FF
:102B300044F620610068B0FBF1F0FFF71BBC00BF5A
:102B40002C01002010000020FEE70000B0B50D4D64
:102B50004FF6FF744FF0000C8C4504BFA0B2B0BD1F
:102B600010F80C305C40002307E0C4F34E02E40789
:102B700003F1010318BF6A401446072BF5D90CF185
:102B8000010CE9E701A0FFFFB0B508280CD003282D
:102B900016D0012821D16D480188408840EA0140C3
:102BA000BDE8B04000F052BB684C208A02280FD02C
:102BB000012818BFB0BD00F0EFFB00202082B0BD9F
:102BC00062488188C08840EA014004490860B0BD7D
:102BD0000020002500F03AFB2582B0BD080000204F
:102BE0000A460146014801F0D8BB00BFEC070020AF
:102BF0002DE9F041082976D304460078082872D1DF
:102C0000881E214411F8016C255C81B2204645EAFA
:102C10000627FFF79BFF874203D046EA0521814242
:102C200061D16188607809BA10284FEA11452AD02D
:102C3000062856D0032856D12079627942EA00202E
:102C400041190C294FD839494FF442735200DFF82B
:102C5000FCC003260B808A70354A1378ACF812301A
:102C600000230AE02F44B2B201333CF817703C0A4B
:102C70008C54721C023692B28F549FB2B842F1D873
:102C8000300441D12FE02079617941EA00267019A2
:102C90000C2828D8A079B0EB460F18BFBDE8F0810A
:102CA000DFF8A88000270CE0411904EB4000B0F8E1
:102CB000070000BA000C28F8110088B2FFF764FF83
:102CC0000137B8B28642EFD8184841F208010180B6
:102CD000A1788170E178C1702179017161794171C8
:102CE00011E00B2D01D9BDE8F081A088174900BA89
:102CF000000C21F815002846FFF746FFA0880B4975
:102D00008880206808600626084DB4B2214628460F
:102D1000FFF71CFF711C2855000A89B26854B01CCB
:102D200081B22846BDE8F041FFF75ABF600100209C
:102D3000A0000020FFF75CBF034804490069C88277
:102D4000000C8882704700BF500700204801002017
:102D5000B0F1FF3F07DD2449884207DB2349884261
:102D600010DC264908E02649884201DD0020704732
:102D70002449884212DB2A494FF4837200FB021077
:102D8000001570471A49884213DC1B49692200FB71
:102D900002104FF4967101EB205070471A49884297
:102DA00015DB1D49692200FB02101C4901EB205074
:102DB00070471049342200FB02104FF4C37101EB3D
:102DC0002050B0F5D77FA8BF4FF4D77070470F4998
:102DD000342200FB02100E4901EB20510D4811F581
:102DE000D77FC8BF08467047A08601001FD61300D2
:102DF000BF91210000652EF9E02CDDF7403870FE10
:102E00006079FEFFE129ECFF416EDEFF009BD106F9
:102E10007AFEFFFF52FEFFFF20D32208D4FEFFFF01
:102E2000C0C78F012DE9F041DFF8B085DFF83463CA
:102E300098F80010708859B1DFF8A445A168C4E97A
:102E40000201401AB0F5C84F0DDDA0F548400FE073
:102E5000DFF88C15C1E90200C1E90400012088F8FF
:102E60000000BDE8F08110F5C84FB8BF00F548403C
:102E70002169D4E9062344F62065C3EB43130F18F8
:102E800000FB0530C4E904710244501102F01F0236
:102E9000C4E90620FFF75CFF2062C119E06B421A0B
:102EA000C4E90A1294F8581094F8462011430ED140
:102EB000317961B194F84710002900F0648000F086
:102EC00067F90020C4E9130000F0FAFB06E000F007
:102ED0005FF90020C4E9130000F07AFC616BDF4861
:102EE000814201DD606303E09F488142B8BF6063B7
:102EF000B4F93800B0F52F6F02DD4FF42F6003E016
:102F000010F52F6F01DA9948208794F8460010B128
:102F100094F83A0038B194F84700002825D094F886
:102F20003B00002821D1012084F84800002584F8C6
:102F3000485000F02DF984F8585065652079A0F1CB
:102F40002001132900F24C80DFE801F00A14183E3A
:102F50004A4A4A4A4A4A4A4A4A4A4A4A0A14184380
:102F6000E169A06AFFF79EFD39E094F84800002867
:102F7000DCD134E0E06900F0C3FF30E0B4F9500088
:102F8000FDF79AFE2BE02179A1F12002132A00F22D
:102F9000C980DFE812F01500D000D400150014003D
:102FA0001400140014001400140014001400140081
:102FB0001400140014001500D000D40015008DE793
:102FC000216CFDF7D3FC89E7E169A06A00F0A2FA61
:102FD00005E0E169A06AFFF789FCA06A2063207917
:102FE000A0F12001132910D8DFE801F00A151B24F5
:102FF0003434343434343434343434340A151B2CFB
:10300000206BFFF77BFC5C4819E0012879D008BBF6
:1030100000F0CCF91EE0606B00F008FF55488069B5
:1030200017E0B4F93800FDF7DDFD51488069A4F8D8
:1030300044000FE0D4E90C0100F0D4F94F48016BD3
:10304000406B05E0206BFFF733FC4D48D0E90510DD
:10305000E1632064608FA4F84600226D002A1146C7
:1030600048BF5142207940F01003322B0FD172B18A
:10307000E269002A00D55242B2F5205F07DA626D9C
:10308000404B9A4238D3012284F8582014E040F68D
:10309000B82291420EDBE269002A00D55242B2F515
:1030A000205F07DA616D384A914227D3012184F805
:1030B000581005E00022626540F6B822914207DB15
:1030C000E16D324A914207D3012184F8601005E096
:1030D000002184F8601000E03231E165102801D150
:1030E00000203AE094F8581009B1042035E094F833
:1030F000601049B1032030E03232DCE732316165E3
:10310000DEE7D8F80C00A4E722281DD021281FD024
:10311000202805D1206BE16B81421DD1206CD8B9EC
:1031200001201AE010293FF4D7AE012903D000296D
:103130003FF446AFD2E6206CFDF7D4FCCEE6B4F9FE
:103140004400FDF7DFFBC9E6208FB4F8441001E02E
:10315000606B216C8142E3D0022084F86100BDE8FD
:10316000F08100BF7A00002000F0D8FF10F5FFFFCB
:10317000F8010020300B002014070020B4070020C5
:10318000F806002040420F0020A10700A0860100A1
:103190009248054A0021C0E913114164C2E90A11AD
:1031A0001162C0E901117047140200208C4800210F
:1031B00080F8581041657047B0B5894C207810B937
:1031C00042F201102080A07810B940F20110608016
:1031D000002510201C21E565207104F10800A4F8E9
:1031E0006050FCF7B8FF04F128002121FCF7B3FF81
:1031F00084F85850C4E913556565FDF753FCFDF795
:1032000091FBFFF733FC00F067FEFDF741FD00F096
:1032100067F9BDE8B040FFF763BB00BF704901220A
:103220000A704870704700BF6C4A6D49137C086390
:10323000072B18BF7047136A8342DCBF0B637047CC
:10324000526A8242A8BF0A63704700BF0349044A1A
:10325000014491429CBF62494863704700102700B7
:1032600000204E005D48027C082A06D8012140F269
:1032700081139140194200D070474169013A052AF3
:1032800001F101014161F7D8DFE802F00311293FA4
:103290004F5E534921220A7142F201120A804FF413
:1032A00048424A63022101740021416170474C4A3F
:1032B00092F858301BB992F86130042B3DD110219F
:1032C0000323117141F20101037411800021516344
:1032D000516582F858101269C0E9051270470A2931
:1032E00008D13F4A002382F8583053658269A2F220
:1032F00005220262322904D8394991F86110012966
:10330000BAD100214161042132E03549002242F264
:10331000011381F858204A650B8021230B711D4B46
:103320004B6305210174426170472D4A92F8583071
:1033300003BB92F86130042B1CD065299CD3082173
:1033400001740020506370470A2908D1244A0023E1
:1033500082F858305365C26902F20522426232296E
:1033600005D81F4991F86110012918BF704707213E
:103370000174704710210623117141F20101037499
:10338000118000215163516582F858104161116923
:10339000C16170470038FFFF1048002141610121E1
:1033A00001740F4840F20111418070470B484FF4FF
:1033B000D273DFF82CC0C268416802FB0311CCF85D
:1033C00040200B46CA156FF3DF53C0E90132DCF829
:1033D0003C0000EBE150CCF83C007047900000202E
:1033E000500700202DE9F8434F4F04460D46B869B9
:1033F000884209D1F869A04206D138693749884224
:1034000031DB0120387532E000203861C7E906540D
:103410003875D7F82480D7F82C9008EB0500FCF716
:1034200015FF0646A5EB0800FCF710FF01463046E5
:10343000FCF79CFE0546A4EB09004000FCF706FFE4
:1034400001462846FCF7C4FEFCF709FFF860396A1C
:1034500044F62062014491FBF2F308EB030003FB06
:103460001211396228E032303861387D90B1786AC3
:1034700000B379683A6A012810DB511A44F62062D9
:1034800091FBF2F3184403FB12110028C7E908105E
:1034900013DC0FE0F868D7F82480D8E7114444F62D
:1034A000206291FBF2F3184403FB12110028C7E9D4
:1034B000081002DB0020386278627863D7E90A12CC
:1034C000084444F6206190FBF1F31A4403FB110019
:1034D000FA62B8623A63BDE8F88300BF400D0300AA
:1034E0001148017819B90121017009494160017A37
:1034F00019B901210172C821418180B50021C0E9BB
:103500000311017518302021FCF725FE80BD00BF96
:103510000060EA00044A002313751361C2E9083110
:10352000C2E90A30704700BFB407002070477047F7
:1035300081B00648016841F001010160006800F0B7
:1035400001000090009801B0704700BF14100240C5
:103550002DE9F04186B00026534F164C02AD4FF0D6
:10356000010805962946386840F008003860386838
:1035700000F00800019001980396802002902046F8
:10358000CDF81080FEF7EEF83868294640F00800C4
:103590003860386800F008000190019803964020D8
:1035A00002902046CDF81080FEF7DCF806B0BDE8AA
:1035B000F08100BF000C01402DE9F04F85B0E448D8
:1035C0003A4C4FF0100A4FF0080B4FF0010901ADD3
:1035D000DFF8C88600260327016841F00401016076
:1035E000016801F0040101910199016841F00401B1
:1035F0000160016801F0040101910199016841F045
:1036000004010160016801F0040101910199016860
:1036100041F0040101600421006800F00400019001
:10362000019820206061C4F814A0C4F814B061614E
:10363000CDE901092046294603960497C047204654
:103640002946CDE901A9CDE90367C04720462946AF
:10365000CDE901B9CDE90367C0470420CDF8089052
:10366000294601902046CDE90367C04705B0BDE873
:10367000F08F00BFF8B5B6480122016841F004019F
:1036800001604FF40041006800F0040000900098D1
:1036900006480161CDE90012002102910221039147
:1036A0006946FEF75FF88FBD181002400008014020
:1036B00080B5FFF781FFBDE8804000F051B9000000
:1036C0004C480021C1810181ED4800680164C1635B
:1036D0003E48202101601021016008210160042181
:1036E0000160704700290A4648BF4A42C72A0BDCDE
:1036F000404A1268002A134648BF5342C72BDEBF18
:10370000114401EBD171491080B500F58072DFF8EA
:10371000E4C02D4B6FF39F2000296FF39F22CCF85C
:103720000010ACF80A0033F910E033F91200ACF8DD
:103730000420ACF80CE0ACF8060000D5494241F298
:10374000DB32BEF1000F734602FB01F1C1F30B3116
:1037500048BFCEF10003002801FB03F34FEA133208
:10376000ACF80E20024648BF4242012802FB01F19C
:103770004FEA1132ACF80820C14AC1F38D3112680A
:103780001164C3F38D31D163104904DB202008603C
:103790001020486008E0B0F1FF3F4FF02000CCBFA0
:1037A00008604860102008600820BEF1010F03DBAC
:1037B00008600420486080BDBEF1FF3FCCBF0860B8
:1037C00048600420086080BD3648000810080140A9
:1037D00008480021C1810181A94800680164C163D2
:1037E00005482021016010210160082101600421A9
:1037F00001607047800000201408014080B500F08F
:1038000057FA1948124A41881268C18032F81110DB
:10381000018180BD80B500F01DF8FFF7EFFFDFF8F4
:103820004CC501204FF0000E4FF6FF738CF80A00D4
:10383000074801680020B0F5804F08BF80BD31F80F
:10384000102001309A4208BF8CF80AE0F3E700BF6D
:103850000C00002080B5044800210160FFF70AFF3A
:10386000BDE8804000F002B8740000202DE9F04F60
:1038700085B04FF0000A7D4F4FF0020801AD354C86
:103880000326CDF80CA02946386840F008003860BF
:10389000386800F0080000900098386840F0080090
:1038A0003860386800F0080000900098386840F0F0
:1038B00008003860386800F0080000900098CDF8E3
:1038C0000880082001906A4804968346A04720207B
:1038D000CDF808802946019058460496A0474FF03D
:1038E000100958462946CDF808A0CDF80490CDF827
:1038F0000CA0A0475F48184A4FF400634FF40076CD
:10390000016811430BF5105201604FF48271386861
:1039100040F4805038603868012700F480500090EF
:1039200000980E48C0E900210A21C0E902A3C0E9BD
:103930000487C0E90669C0E908AAC0E90AA1FEF740
:10394000EFFB08B1FDF71CFA05B0BDE8F08F00BF32
:103950001810024065170008010000075C060020EF
:103960002DE9F0438FB00026CA4F414C0BAD4FF00C
:1039700002084FF003090D962946386840F0080008
:103980003860386800F0080001900198386840F00D
:1039900008003860386800F0080001900198CDF800
:1039A00030804FF400600B902046CDF83890FDF742
:1039B000D9FE4FF48060CDF8308029460B90204628
:1039C000CDF83890FDF7CEFE2A482B4A0168114009
:1039D0002A4A1143016001A81C21CDE90866FCF7C1
:1039E000BAFB78684FF0804140F2FF3240F00100AE
:1039F0007860786800F00100009000982048C0E9E5
:103A00000016C0E9026206618661FEF738FD08B162
:103A1000FDF7B6F91A4808A9CDE90866FEF7BEFC1D
:103A200008B1FDF7ADF9002060210C220290019150
:103A300003900590124801A9FEF7D2FC08B1FDF7EA
:103A40009FF90F4801A90822FEF7CAFC08B1FDF74B
:103A500097F90B4C0C212046FEF72CFD204608213F
:103A6000FEF728FD0FB0BDE8F08300BF181002403C
:103A7000000C014004000140FFFCFFF800020007B9
:103A8000B4060020124813494268C0E9031290F9B5
:103A90000110052988BF704710B50FA214A31AA4FE
:103AA0004FF00C0C4FF0000E52F8212053F821304B
:103AB00054F82110C0E9053200F11C0282E80250DE
:103AC000C0F828E00C30FEF7E7FDBDE81040704775
:103AD0002800002000380140000000000000000025
:103AE0000000000000200000002000000020000076
:103AF00000000000001000000010000000000000A6
:103B00000010000000100000000000000004000091
:103B10000006000000000000000400000006000095
:103B20002DE9F04F85B0DFF8688198F8000028B9DA
:103B3000012088F80000002088F8020098F80300AF
:103B400010B1D8F8080006E0012088F803004FF40F
:103B50001650C8F80800C8F8040000264D494E4C1D
:103B60004FF0010901AD4D4F4FF0030A98F80200E4
:103B7000039688F80100086840F0040008600868AF
:103B800000F0040000900098086840F0040008600D
:103B9000086800F0040000900098086840F00800F1
:103BA00008600868294600F0080000900098CDF8E9
:103BB00008904FF48040019004F58060CDF810A08B
:103BC000B8470220294602904FF400700190204629
:103BD000CDF810A0B8474FF48060029629460190B6
:103BE0002046CDF80C90B8472E492D4C10204FF0B0
:103BF000800A4FF44059C4E900102046C4E9026A23
:103C0000C4E904668B46C4E90669FDF773FC08B194
:103C1000FDF7B6F8244D08F10C0720200BF1140134
:103C2000C8F83C406762C5E90016C5E9026AC5E903
:103C30000466C5E906092846FDF75CFC08B1FDF7F6
:103C40009FF80E2004210022C8F840506F62FDF753
:103C5000CBFE164C0E20A0470F2005210022FDF7B9
:103C6000C3FE0F20A0470B488346006840F4804005
:103C7000CBF80000DBF8000000F4804000900098D2
:103C8000FFF700FF2520A04705B0BDE8F08F00BF7B
:103C900028000020181002400008014065170008A5
:103CA0001806002044000240D4050020CD19000869
:103CB0002DE9F04F85B02B482B4E2F4C2B4F4FF456
:103CC000004A4FF0FF384FF001094FF0000B03900E
:103CD00004A80230029003A80230019030E0204690
:103CE00003A904AA0123C6F804A0CDF80080FEF7BA
:103CF00055FAC6F800A0C6F804A0CDF8008020460A
:103D00000123DDE90112FEF749FAC6F800A00022FE
:103D10000023BDF810009DF8121041EA002081B286
:103D2000388005E009FA02F501320D4218BF01336F
:103D3000102AF7D1D9070AD000200BF1010B7871B6
:103D4000BBF1020FCBD9787948B1388801E0012165
:103D50007971C0F3400180B280083971788005B074
:103D6000BDE8F08F0083008410080140740000203B
:103D70000148FEF75BB900BF5C060020406A0021E5
:103D8000C187C186FEF750B910B513460A46802197
:103D9000044600F00AF800280FBF0020606D40F0D4
:103DA0002000606518BF032010BD2DE9F041984642
:103DB00016460F460446551C206880683840B842B5
:103DC0001CBF0020BDE8F081002DF5D0FDF7A2FD5D
:103DD000A0EB0800B042EFD32068416821F0E00179
:103DE00041606168B1F5827F0AD1A168B1F5004FE9
:103DF00002D0B1F5806F03D1016821F0400101606C
:103E0000A16AB1F5005F07D1016821F4005101609A
:103E1000016841F400510160002084F85000012045
:103E200084F851000320BDE8F081704780B5DFF8C9
:103E3000DCC0DCF81420811A48D0DCF810300129ED
:103E400010DB002A1FDBDCF8041044F6206E194456
:103E500091FBFEF31A4403FB1E118242CCE90412CB
:103E600031DA36E0002A20DDDCF80C0044F620616F
:103E7000181A90FBF1F31A4403FB1100002ACCE955
:103E8000040226DC0DE0DCF80C0044F62061184446
:103E900090FBF1F31A4403FB1100002ACCE9040261
:103EA00017DB0022CCE9042213E0DCF8041044F60E
:103EB000206E591A91FBFEF31A4403FB1E11824235
:103EC000CCE9041205DC0021CCF81010CCF8140069
:103ED0000246CCF8182080BD0C48017819B90121A0
:103EE000017006494160017A19B901210172034943
:103EF000C1600021C0E90411816170470060EA00DF
:103F000002490022C1E90420704700BF300B0020A5
:103F100010B50446FDF712FC2068E06010BD0000FB
:103F20002DE9F04F85B00446FDF708FC144F4FF023
:103F300000084FF001090DF1040AEB4600250026A8
:103F400015E0CDF8048059462068CDF8109028443B
:103F500003905046FDF746FB4FF0FF30FCF756FF4D
:103F6000386805F58065013620F002003860A068E9
:103F70008642E6D3FDF782FB05B0BDE8F08F00BFB7
:103F800010200240FDF77ABB70B506460D4600686A
:103F9000F168814206D3144601EB42017268104475
:103FA000814200D970BD002C08BF70BD2A88F1681D
:103FB00001200023FDF76AFB10B9F0680230F060C1
:103FC0000235013CEFE7000010B50E4C207898B1A7
:103FD000FFF714FC0C48007810B1FCF77BFA01E005
:103FE000FEF720FF607801306070C0B2142805D35E
:103FF0000020607000F02CFBFDF790FC6068013041
:10400000606010BD2C01002048020020B0B594B0C3
:10401000002401204FF480310225CDE90F44CDE981
:104020000D440494CDE902440A90CDE90B140E909E
:104030004FF48010CDE9115113900AA8FDF762FEEC
:104040000F200221CDE905054FF480600794CDE9EA
:10405000080405A8FDF76EFD4FF40040019503909C
:1040600001A8FDF7EFFC14B0B0BD00000E480F4AE8
:10407000016841F001010160416811400C4A416052
:10408000016811400160016821F4802101604168EC
:1040900021F4FE0141604FF41F01816005484FF09B
:1040A00000610160704700BF001002400000FFF88F
:1040B000FFFFF6FE08ED00E070470000B0B50368B2
:1040C000744DB0F1804F07D0104CA04204D0A842EC
:1040D00002D00F4CA04207D14C6823F45C73CA682D
:1040E00024F44074234313434A6923F08003A84215
:1040F00042EA030202608A68C2620A68826204BFFE
:104100000969296301214161B0BD00BF000400407D
:104110000008004001F01F01012303FA01FC036ABB
:1041200002FA01F123EA0C030362026A11430162FD
:104130007047000070B5026A22F001020262026A52
:10414000D0F804E0D0F818C08C680B6822F00202A6
:1041500022432CF0730444EA030C4E4B98420CD1DA
:10416000CE68D1E905452EF4407322F00C022343BA
:1041700043EA050E26F004031A43C0F804E0C0F831
:1041800018C049684163026270BD00BF70B5026A21
:1041900022F010020262026AD0F804E0D0F818C0DF
:1041A0008C680B6822F0200242EA04122CF4E644E8
:1041B00044EA032C374B98420FD1CE68D1E905452C
:1041C0002EF4406322F0C00243EA840343EA850EE2
:1041D0006FF0400303EA06131A43C0F804E0C0F886
:1041E00018C049688163026270BD00BF70B5026A81
:1041F00022F480720262026AD0F804E0D0F81CC097
:104200008C680B6822F4007242EA04222CF07304DA
:1042100044EA030C1F4B98420FD1CE68D1E9054503
:104220002EF4405322F4406243EA041340F2FF4468
:1042300043EA051E3302A3431A43C0F804E0C0F862
:104240001CC04968C163026270BD00BFB0B5026A9C
:1042500022F480520262026AD0F804E0C5698B68D9
:104260000C6822F4005242EA033C0A4B25F4E64271
:1042700042EA0422984204D14B692EF4804545EA73
:10428000831EC0F804E0C26149680164C0F820C020
:10429000B0BD00BF002C0140406A0021C185C1842F
:1042A000FEF74CB910B5446A2068416994F839208A
:1042B000212A0BD111F0800108D00021E184C168CE
:1042C00021F0C001C160202184F83910406994F8C0
:1042D0003A10222907D110F0400004D00020E085D8
:1042E000204600F04DF8E06B40F01000E0632046FF
:1042F000BDE81040FEF722B90168406A09688906E6
:1043000048BFFEF741BA0021C1850168CA6822F49E
:104310008072CA604A6922F001024A614A6922F049
:1043200040024A61202180F83A10FEF72DBA406A17
:10433000FEF760BA0168406A0968890648BFFEF75F
:1043400099BA0021C1840068416921F0800141616E
:10435000C16841F04001C1607047406AFEF7A6BAEB
:10436000B84A904218BF7047002904484FF4804172
:1043700014BF01220022FDF7C8BA00BF000C0140A3
:104380000168CA6822F49072CA604A6922F0010288
:104390004A61202180F83A107047F8B50668044653
:1043A00096F83900202805D11546B2F5807F03D94B
:1043B0000F4607E002261EE004F10C072A463846A5
:1043C000FBF7B0FE3046FEF791F820460121FFF7DB
:1043D000C7FF206839462A46FEF70EFA28B106467E
:1043E00020460021FFF7BCFF05E0D4F814030026A7
:1043F0002844C4F81403304601B0F0BD90F83A10D8
:10440000222918BF7047816803680269B1F5805F8F
:1044100006D1816A5B688AB1DAB221F8012B11E01A
:10442000D3F804C0836A002A03F1010181621ABF34
:104430000CF07F01197083F800C004E06FF35F2374
:1044400021F8023B8162C18D0139C185090400D088
:1044500070470168CA6822F02002CA60CA6822F464
:104460008072CA604A6922F001024A61202180F804
:104470003A10FEF789B9000010B5044600680169DA
:10448000E26821F44051114341F20C620161D4F819
:1044900008C0D4E904E3C16891434EEA0C021A4310
:1044A0001143C1604169A26921F440711143416126
:1044B0001149884202D0FDF7DBFB01E0FDF7E2FB8A
:1044C00019214843D4E900126FF063049200B0FB55
:1044D000F2F06422B0FBF2F303FB0400322404EB9D
:1044E0000010B0FBF2F000F0F00200F00F0002EB61
:1044F00003121044886010BD003801401CB52D4CDB
:1045000020680168C9060AD500210191016801915E
:104510004068019001982046FEF736F9206801684E
:10452000090708D540684FF48072464800F5867147
:104530002048FEF7E1F81F48BDE81C40FEF700B830
:104540009948FCF787BD00BF10B50446D0F81803A2
:1045500078B1206804F586714FF48072FEF7CCF8CC
:1045600008B1FCF70DFC20680068C16841F010013B
:10457000C16020460021BDE81040FFF7F1BE0000F9
:10458000304B98420AD110B5DFF824C0DFF824E0A0
:10459000094CC3E900EC9C60BDE810400023C0E971
:1045A000C333C0E9C531C0F81C23FFF7CDBF00BF3E
:1045B0001806002034000020D4050020FEE700008B
:1045C00010B5074C00F00F03044AB0F1FF3F23443D
:1045D000C8BF83180801187010BD00BF00E400E0D8
:1045E00014ED00E0FBF7A0FEFCF73CFC4FF47A7002
:1045F000FCF7E8FFFEF79CFFFFF792FA114812491B
:1046000000220024FFF7BCFFFFF704F9FFF750F882
:10461000FBF754FFFEF7D0FDFEF778FAFEF784FAB9
:104620005F48102180F858400171FEF743FAFEF709
:104630001DFA064C20680130206000F0C3F8FBF73B
:10464000F3FFF7E7EC070020352D00084C070020AA
:104650006A484168026A01314160511C0A22B1FB7B
:10466000F2F2016202EB8202A1EB420212B902698C
:10467000013202611422B1FBF2F202EB8202A1EBE1
:10468000820212B94269013242613222B1FBF2F375
:1046900003FB121212B98269013282616422B1FBFA
:1046A000F2F303FB121212B9C2690132C2614FF474
:1046B0007A72B1FBF2F303FB121101B170470021D2
:1046C00001627047FDF734F9FFF7A0FCFFF78AFF9E
:1046D000FEE700002DE9F0413048484D384F304E9C
:1046E00000886880D7E90401326985F8241085F8CC
:1046F000262085F82800090AAB6885F82B3085F854
:104700002510110A85F82710010A000C85F82910D8
:1047100085F82A00FEF710FB2878224C88B100208B
:10472000294605F1240205F10C0301F82C0B1E4863
:10473000FCF7B6FB28B120464FF480710022FDF74C
:10474000E4F804F580604021FDF7DAF8B0FA80F172
:104750004C096978084300061CD13878072817D11E
:10476000FEF724FD2020FEF759FDDFF8408098F881
:10477000000000280CBF78693869FEF755FD20203D
:10478000307198F8000080F0010088F8000001E026
:10479000FEF702FE6C70BDE8F08100BF7A000020D9
:1047A0005007002000080140AC0500202400002034
:1047B00003480078072818BFFEF754BD704700BFB4
:1047C000A000002010B50D4C206918B101382061FF
:1047D000FFF7EEFF606908B101386061A06918B1A8
:1047E0000138A061FEF7A8FAE06928B10138E0615C
:1047F000BDE81040FFF76EBF10BD00BFE80000200D
:1048000002E008C8121F08C1002AFAD17047704799
:10481000002001E001C1121F002AFBD170470000F7
:104820000000000000000102030406070809000060
:104830000000010203040000190032004B00650073
:104840007E009700B000C900E200FB0014012D01BA
:1048500046015F0178019101AA01C301DC01F50164
:104860000E0227024002590272028B02A302BC020E
:10487000D502EE0206031F033803500369038103C8
:104880009A03B203CB03E303FC0314042C04440493
:104890005D0475048D04A504BD04D504ED0405056F
:1048A0001D0534054C0564057C059305AB05C20563
:1048B000DA05F10508061F0637064E0665067C0672
:1048C0009306AA06C106D706EE0605071B073207A0
:1048D00048075E0775078B07A107B707CD07E307F2
:1048E000F9070E0824083A084F0865087A088F0867
:1048F000A508BA08CF08E408F8080D092209370905
:104900004B095F09740988099C09B009C409D809D1
:10491000EC09FF09130A260A3A0A4D0A600A730ACB
:10492000860A990AAC0ABF0AD10AE40AF60A080BF9
:104930001B0B2D0B3E0B500B620B740B850B970B57
:10494000A80BB90BCA0BDB0BEC0BFC0B0D0C1E0CF4
:104950002E0C3E0C4E0C5E0C6E0C7E0C8E0C9D0CC8
:10496000AC0CBC0CCB0CDA0CE90CF80C060D150DDC
:10497000230D320D400D4E0D5C0D690D770D850D2B
:10498000920D9F0DAC0DB90DC60DD30DDF0DEC0DC5
:10499000F80D040E100E1C0E280E340E3F0E4B0E9A
:1049A000560E610E6C0E770E810E8C0E960EA10EB9
:1049B000AB0EB50EBF0EC80ED20EDB0EE40EEE0E21
:1049C000F70EFF0E080F110F190F210F290F310FCE
:1049D000390F410F480F500F570F5E0F650F6C0FC7
:1049E000720F790F7F0F850F8B0F910F970F9C0F11
:1049F000A20FA70FAC0FB10FB60FBB0FBF0FC40FA5
:104A0000C80FCC0FD00FD40FD70FDB0FDE0FE10F85
:104A1000E40FE70FEA0FEC0FEF0FF10FF30FF50FB5
:104A2000F70FF80FFA0FFB0FFC0FFD0FFE0FFF0F34
:104A3000FF0F00100010001000100010FF0FFF0FFC
:104A4000FE0FFD0FFC0FFB0FFA0FF80FF70FF50F1E
:104A5000F30FF10FEF0FEC0FEA0FE70FE40FE10F89
:104A6000DE0FDB0FD70FD40FD00FCC0FC80FC40F42
:104A7000BF0FBB0FB60FB10FAC0FA70FA20F9C0F4C
:104A8000970F910F8B0F850F7F0F790F720F6C0FA0
:104A9000650F5E0F570F500F480F410F390F310F41
:104AA000290F210F190F110F080FFF0EF70EEE0E31
:104AB000E40EDB0ED20EC80EBF0EB50EAB0EA10E6D
:104AC000960E8C0E810E770E6C0E610E560E4B0EEE
:104AD0003F0E340E280E1C0E100E040EF80DEC0DB9
:104AE000DF0DD30DC60DB90DAC0D9F0D920D850DCB
:104AF000770D690D5C0D4E0D400D320D230D150D1A
:104B0000060DF80CE90CDA0CCB0CBC0CAC0C9D0CB3
:104B10008E0C7E0C6E0C5E0C4E0C3E0C2E0C1E0C85
:104B20000D0CFC0BEC0BDB0BCA0BB90BA80B970B9A
:104B3000850B740B620B500B3E0B2D0B1B0B080BE4
:104B4000F60AE40AD10ABF0AAC0A990A860A730A6D
:104B5000600A4D0A3A0A260A130AFF09EC09D80925
:104B6000C409B0099C09880974095F094B09370910
:104B700022090D09F808E408CF08BA08A5088F082B
:104B80007A0865084F083A0824080E08F907E30771
:104B9000CD07B707A1078B0775075E0748073207E0
:104BA0001B070507EE06D706C106AA0693067C0674
:104BB00065064E0637061F060806F105DA05C2052A
:104BC000AB0593057C0564054C0534051D050505FD
:104BD000ED04D504BD04A5048D0475045D044404EE
:104BE0002C041404FC03E303CB03B2039A038103F4
:104BF0006903500338031F030603EE02D502BC020B
:104C0000A3028B0272025902400227020E02F50132
:104C1000DC01C301AA01910178015F0146012D0168
:104C20001401FB00E200C900B00097007E0065009F
:104C30004B00320019000000E7FFCEFFB5FF9BFFDD
:104C400082FF69FF50FF37FF1EFF05FFECFED3FE1A
:104C5000BAFEA1FE88FE6FFE56FE3DFE24FE0BFE50
:104C6000F2FDD9FDC0FDA7FD8EFD75FD5DFD44FD86
:104C70002BFD12FDFAFCE1FCC8FCB0FC97FC7FFCAC
:104C800066FC4EFC35FC1DFC04FCECFBD4FBBCFBC1
:104C9000A3FB8BFB73FB5BFB43FB2BFB13FBFBFAC5
:104CA000E3FACCFAB4FA9CFA84FA6DFA55FA3EFAB1
:104CB00026FA0FFAF8F9E1F9C9F9B2F99BF984F982
:104CC0006DF956F93FF929F912F9FBF8E5F8CEF834
:104CD000B8F8A2F88BF875F85FF849F833F81DF8C2
:104CE00007F8F2F7DCF7C6F7B1F79BF786F771F72D
:104CF0005BF746F731F71CF708F7F3F6DEF6C9F66F
:104D0000B5F6A1F68CF678F664F650F63CF628F681
:104D100014F601F6EDF5DAF5C6F5B3F5A0F58DF567
:104D20007AF567F554F541F52FF51CF50AF5F8F419
:104D3000E5F4D3F4C2F4B0F49EF48CF47BF469F49B
:104D400058F447F436F425F414F404F4F3F3E2F3DE
:104D5000D2F3C2F3B2F3A2F392F382F372F363F3EA
:104D600054F344F335F326F317F308F3FAF2EBF2B6
:104D7000DDF2CEF2C0F2B2F2A4F297F289F27BF247
:104D80006EF261F254F247F23AF22DF221F214F28D
:104D900008F2FCF1F0F1E4F1D8F1CCF1C1F1B5F198
:104DA000AAF19FF194F189F17FF174F16AF15FF159
:104DB00055F14BF141F138F12EF125F11CF112F1D1
:104DC00009F101F1F8F0EFF0E7F0DFF0D7F0CFF004
:104DD000C7F0BFF0B8F0B0F0A9F0A2F09BF094F0EB
:104DE0008EF087F081F07BF075F06FF069F064F081
:104DF0005EF059F054F04FF04AF045F041F03CF0CD
:104E000038F034F030F02CF029F025F022F01FF0CB
:104E10001CF019F016F014F011F00FF00DF00BF07B
:104E200009F008F006F005F004F003F002F001F0DC
:104E300001F000F000F000F000F000F001F001F0EF
:104E400002F003F004F005F006F008F009F00BF0B2
:104E50000DF00FF011F014F016F019F01CF01FF027
:104E600022F025F029F02CF030F034F038F03CF04E
:104E700041F045F04AF04FF054F059F05EF064F024
:104E800069F06FF075F07BF081F087F08EF094F0B0
:104E90009BF0A2F0A9F0B0F0B8F0BFF0C7F0CFF0EF
:104EA000D7F0DFF0E7F0EFF0F8F001F109F112F1DF
:104EB0001CF125F12EF138F141F14BF155F15FF183
:104EC0006AF174F17FF189F194F19FF1AAF1B5F1E2
:104ED000C1F1CCF1D8F1E4F1F0F1FCF108F214F2F7
:104EE00021F22DF23AF247F254F261F26EF27BF2C5
:104EF00089F297F2A4F2B2F2C0F2CEF2DDF2EBF256
:104F0000FAF208F317F326F335F344F354F363F39B
:104F100072F382F392F3A2F3B2F3C2F3D2F3E2F3A9
:104F2000F3F304F414F425F436F447F458F469F474
:104F30007BF48CF49EF4B0F4C2F4D3F4E5F4F8F40A
:104F40000AF51CF52FF541F554F567F57AF58DF561
:104F5000A0F5B3F5C6F5DAF5EDF501F614F628F689
:104F60003CF650F664F678F68CF6A1F6B5F6C9F67E
:104F7000DEF6F3F608F71CF731F746F75BF771F743
:104F800086F79BF7B1F7C6F7DCF7F2F707F81DF8DD
:104F900033F849F85FF875F88BF8A2F8B8F8CEF84E
:104FA000E5F8FBF812F929F93FF956F96DF984F99A
:104FB0009BF9B2F9C9F9E1F9F8F90FFA26FA3EFAC4
:104FC00055FA6DFA84FA9CFAB4FACCFAE3FAFBFAD1
:104FD00013FB2BFB43FB5BFB73FB8BFBA3FBBCFBC0
:104FE000D4FBECFB04FC1DFC35FC4EFC66FC7FFC9A
:104FF00097FCB0FCC8FCE1FCFAFC12FD2BFD44FD63
:105000005DFD75FD8EFDA7FDC0FDD9FDF2FD0BFE1A
:1050100024FE3DFE56FE6FFE88FEA1FEBAFED3FEC4
:10502000ECFE05FF1EFF37FF50FF69FF82FF9BFF6D
:10503000B5FFCEFFE7FF0000585000080000002039
:1050400028000000004800088050000828000020C8
:10505000301300001048000801000000100000009C
:1050600000770100007C00080024F400007C0008A8
:10507000008000002000000000000000010000008F
:04000005080000ED02
:00000001FF
