:020000040800F2
:10000000B80E0020010100087B3400081D280008FC
:10001000992B000801030008A5400008000000001B
:10002000000000000000000000000000C13B0008CC
:10003000AF0E0008000000007D340008B33D00084A
:100040001B0100081B0100081B0100081B01000820
:100050001B0100081B0100081B0100081B01000810
:100060001B0100081B0100081B0100081B01000800
:100070001B0100081B0100081B0100081B010008F0
:100080001B0100081B0100081B0100081B010008E0
:10009000994000081B0100081B010008B10E000870
:1000A0001B0100081B0100081B0100081B010008C0
:1000B0001B010008B93E00081B0100081B010008D5
:1000C0001B0100081B0100081B0100081D3B000864
:1000D0001B0100081B0100081B0100081B01000890
:1000E0001B0100081B0100081B010008DFF80CD0F1
:1000F00000F0F4F80048004701420008B80E002064
:100100000648804706480047FEE7FEE7FEE7FEE7B1
:10011000FEE7FEE7FEE7FEE7FEE7FEE7693E0008D2
:10012000ED000008D2B201E000F8012B491EFBD21D
:1001300070470022F6E710B513460A4604461946F2
:10014000FFF7F0FF204610BD80EA010210B502F073
:100150000043400022D04A001FD0010E01EB126183
:10016000C0F35600C2F3560240F4000042F400020D
:10017000A0FB022000047F39140400D0401C50EA88
:10018000124001D44000491EC2B20C0604EBD0104C
:10019000401C4008802A02D003E0002010BD20F05F
:1001A0000100002900DA0020184310BD30B480EAB5
:1001B000010202F0004530F0004221F0004013D06F
:1001C00090B1C30DD40DC2F31601C0F31600E41AAA
:1001D00041F4000140F400027D34914201D3641CDB
:1001E00000E04900002C02DA30BC002070474FF4D8
:1001F00000000023914201D3891A034340084FEACB
:100200004101F7D151B1914202D14FF0004105E0D7
:1002100002D24FF0010101E06FF0010103EBC45085
:10022000284430BC00F022B8C10F80EAE0700844D6
:10023000CA079623002100F022B800F0004220F007
:100240000040C10DC0F3160040F400007F2901DA20
:1002500000207047962903DCC1F19601C84001E0F7
:1002600096398840002AF4D0404270470029A8BF40
:100270007047401C490008BF20F00100704710B4CF
:10028000B0FA80FC00FA0CF050EA010404BF10BC84
:10029000704749B1CCF1200421FA04F411FA0CF1B1
:1002A00018BF012121430843A3EB0C01CB1D4FEAEA
:1002B00000614FEA102042BF002010BC704700EBE5
:1002C000C35010440029A4BF10BC7047401C490013
:1002D00008BF20F0010010BC70470000064C074D1D
:1002E00006E0E06840F0010394E807009847103406
:1002F000AC42F6D3FFF7FEFE844B0008A44B000887
:10030000FEE7000080B503F0BAF840F22C010020AF
:100310000022C2F2000100BF21F8320001EBC2034B
:100320000132032A5860F7D180BDB0B58AB00020F1
:100330006C4601251421CDE9050020460795FFF7FD
:10034000F8FE40F2044021460895C2F2000000F099
:1003500099FE08B100F0ADFD0AB0B0BD2DE9F04145
:1003600040F2A0000021C2F2000000BF00EB4102F9
:10037000578EB2F8C451EE197D1B48BF6D42730809
:10038000B5F5005F06DDB6F5804F34BF03F50053C9
:10039000A3F5005301315386C929E7D1B0F8C01144
:1003A000448E611AB1F5005FC8BFA1F5804111F517
:1003B000005FB8BF01F58041002962D04EF2000C09
:1003C0004FF000024FF01A06C8BF0122CFF6FF7CA3
:1003D00080F8562330F81630A7B2DC1BB4F5005F66
:1003E000C8BFA4F580446445B8BF04F58044002C20
:1003F000274648BF67427A2F45DA272F43DD002C76
:1004000043D0012C02DB002902DC3EE001293CDA6A
:10041000A6F11807721C1C46C82F1646DAD34FF0F7
:10042000000CC922C823002936DD48F21F584FF6B8
:10043000706443F6FF7E0026C5F2EB18CFF6FF741A
:10044000A3FB08570133BD0905FB040505EB460571
:10045000B5F8C271A2FB085101328909751C01FB74
:10046000040101EB4601B1F8C411B9423EBFAEEB45
:100470000701C0E9D6610CF1010CC82D2E46DFD171
:1004800036E0012139E0022100E001214170A6F1AE
:1004900019014160BDE8F08148F21F5E4FF67061BE
:1004A00043F6FF780025C5F2EB1ECFF6FF7100BFC3
:1004B000A2FB0E670132BE0906FB010606EB4506EC
:1004C000B6F8C471A3FB0E640133A4096E1C04FBCF
:1004D000010404EB4504B4F8C241A74282BFA8EB73
:1004E0000704C0E9D6540CF1010CC82E3546DFD103
:1004F000BCF1010F14BF032100214170BDE8F08160
:1005000040F2A0000021C2F20000416001800172AF
:10051000C160C0E9D611C0F860137047B0B540F2B1
:10052000A005C2F20005287A062800F2A080DFE8C4
:1005300000F004172855626F9F002878002800F00B
:100540009680E8684FF4FA6103F07DF800204FF4DC
:1005500048412882E9600121297268706860B0BD55
:10056000E8684FF4FA610230E86003F06CF8E8687C
:10057000B0F5C83F7BD1022028724FF44840E860B4
:10058000B0BDEC6820061CD140F2F852288AC2F2B5
:1005900000021288411C05EB40002982428288B289
:1005A000102810D105F1120010214FF4804200F004
:1005B00051FCA4F54841090A05EB41014886002099
:1005C00028820134EC6020464FF4FA6103F03BF8D6
:1005D000E868B0F5C83F4AD9032047E0E8684FF41F
:1005E000FA610130E86003F02EF8E868B0F5D23F18
:1005F0003DD104203AE0E8684FF4FA610138E86040
:1006000003F021F8E868B0F5C83F30D105202DE0AF
:10061000EC6820061DD140F2F852288AC2F200028E
:100620001288411C05EB40002982428288B21028C2
:1006300011D105F1120010214FF4804200F00AFCA4
:10064000A4F54841090A05EB4101A1F8C4010020C5
:100650002882013CEC6020464FF4FA6102F0F3FF7F
:10066000E868C00A182888BFB0BD06202872B0BD4F
:1006700000200021BDE8B04002F0E5BF2DE9F04FB9
:1006800085B040F2A00BC2F2000B9BF808000628D0
:1006900040F0F38103F05EF8FFF760FE9BF8010085
:1006A000002840F0D28140F208040020C2F2000489
:1006B000CBF86003204603F025FB204603F01AFB2D
:1006C0009BF85613DBF85803002900F0D58048F258
:1006D0001F5840F208060BF132014FF4484C0DF15F
:1006E000120E0446C5F2EB18C2F20006019100BFDB
:1006F00004F1C8014FF0C809019DA1FB08239A0924
:1007000002FB191104F1C902A2FB083735F81110D8
:10071000BB09002703FB192235F812204EF2000511
:10072000CFF6FF75531AB3F5005FC8BF0127A3EBDF
:100730008733BF03AB424FF00005B8BF01258442A9
:1007400003EB853A4FEA853504F10103CDE9023424
:100750002ED1DBF85C33534580F284802A4439443F
:100760000CEB00241F02D21A551A00BF97FBFAF0B7
:100770002044A0FB0812910B012201FB1C007146D2
:10078000ADF81200304603F0F3FADBF8600340F2F4
:1007900008060DF1120E4FF4484C07F58077013D25
:1007A000C2F2000600F10100CBF86003DED159E08F
:1007B000C83084422AD1DBF85C03012852DB03985D
:1007C000002400270CEB002594FBFAF02844A0FB42
:1007D0000812910B012201FB1C007146ADF81200BA
:1007E000304603F0C5FADBE9D70140F208060137CD
:1007F0000DF1120E4FF4484C04F58074C2F200065D
:1008000001318742CBF86013DEDB2BE0BAF1010F38
:1008100028DB039800240CEB0029A818C01B451AFC
:1008200094FBFAF04844A0FB0812910B012201FB53
:100830001C007146ADF81200304603F099FADBF85F
:10084000600340F208060DF1120E4FF4484C04F517
:100850008074013DC2F2000600F10100CBF8600394
:10086000DED100BFDBF85803039A029C00F1C801F7
:100870008A42FFF63DAFD0E048F21F5840F208062A
:100880000BF1320200F1C8014FF4484C0DF1120E89
:10089000C5F2EB18C2F20006029200BF8A46C931C7
:1008A000C825029CA1FB08239A0902FB15110AF135
:1008B000C802A2FB083734F81110BB094EF200073A
:1008C00003FB15220025CFF6FF7734F8122000F144
:1008D000C804531AB3F5005FC8BF0125A3EB8533E5
:1008E000AD03BB424FF00007B8BF0127A245CDF8CA
:1008F0000CA003EB87394FEA87370AF101032DD1AA
:10090000DBF85C03484580F281803A4429440CEBD3
:1009100003240702121A551A97FBF9F0201AA0FBBC
:100920000812910B012201FB1C007146ADF8120068
:10093000304603F01DFADBF8600340F208060DF1C3
:10094000120E4FF4484C07F58077013DC2F20006C5
:1009500000F10100CBF86003DED157E0824529D1D8
:10096000DBF85C03012851DB0CEB03250024002796
:1009700094FBF9F0281AA0FB0812910B012201FB4D
:100980001C007146ADF81200304603F0F1F9DBE9C6
:10099000D70140F2080601370DF1120E4FF4484C12
:1009A00004F58074C2F2000601318742CBF860136F
:1009B000DEDB2BE0B9F1010F28DBB8180CEB032AC2
:1009C0000024401B451A00BF94FBF9F0AAEB00007D
:1009D000A0FB0812910B012201FB1C007146ADF82F
:1009E0001200304603F0C4F9DBF8600340F2080659
:1009F0000DF1120E4FF4484C04F58074013DC2F223
:100A0000000600F10100CBF86003DDD1039ADBF8AA
:100A10005803511E82423FF741AF40F20800C2F234
:100A2000000003F0A3F9DBF86003B0F5804F09D1B3
:100A30009BF8010048B940F2F8500121C2F20000D1
:100A400001710EE004208BF8010040F2F850002103
:100A5000C2F20000017140F20800C2F2000003F08F
:100A600051F940F25C5100200122C2F200018BF8E2
:100A700008008BF8000081F8582005B0BDE8F08F21
:100A800040F25C520146C2F2000201291065906AF0
:100A900002DB00F5807003E0002918BFA0F580702C
:100AA000D06402F0D0BD40F26C00C2F200000178C8
:100AB00021B9012101704FF448714160417821B999
:100AC000012141704FF4A0718160817821B9012129
:100AD00081704FF44871C160C17821B90121C170A2
:100AE0004FF41671016180B514302021FFF721FB0E
:100AF00080BD2DE9F04140F25C5C02464FF260049B
:100B0000C2F2000CCFF6FF74DCF81C50DCF82800B1
:100B1000131A40F26C024D1BC2F20002E911B3F548
:100B2000486FC2E9053102DD4FF4486304E013F574
:100B3000486F02DA04F5487353614DF27F0646F2BE
:100B4000000EC0F20706CFF6F07EB54202DD4FF48C
:100B50007A6403E00EF5FA26B54201DA2146946183
:100B6000161D70CE176A03FB04F8C2F81C80946A45
:100B700005FB034301FB063303F07F04DD1107EBA4
:100B8000E313B3F57A2FC2E90A45136202DD4FF48D
:100B90007A2502E07345754601DA2B461562146921
:100BA00004FB01F504FB01814AF200440B44C0F24E
:100BB0000F0455629912A342116305DB4FF47A7159
:100BC000CCF85010116310E0734509DA4FF6184164
:100BD000A0F58070CFF6FF71CCF85010116306E0DD
:100BE000B3F5806FCCF8501007DB00F58070CCF8BF
:100BF0004C00BDE8F04102F026BDB3F1FF3FD8BF85
:100C0000A0F58070F3E740F22860C2F2000001789E
:100C100019B90121017064214160417819B901219C
:100C2000417078218160817819B90121817050214A
:100C3000C16080B510302021FFF77BFA80BDF0B590
:100C400040F2286340F25C5C46F2000EC2F2000300
:100C5000C2F2000CCFF6F07ED3E90145DCF81C208F
:100C60001969DE69821A5961AEF5C040B2F5801F7C
:100C7000A8BF4FF480128242D8BF024602FB04F0A4
:100C80001A6198615C6A02FB05442546A71206EBCF
:100C9000A4246FF39F25B4F57A2FC3E90957DC61CB
:100CA00002DD4FF47A2502E07445754601DA2C46E0
:100CB000DD61511ADA6802FB010002FB01F502193D
:100CC0004AF200401D62C0F20F0091128242D962C6
:100CD00005DB4FF47A71CCF85010D96212E07245FE
:100CE0000BDA4FF61841CFF6FF71CCF85010D962ED
:100CF000DCF82800A0F5807008E0B2F5806FCCF831
:100D0000501009DBDCF8280000F58070CCF84C00AE
:100D1000BDE8F04002F097BCDCF82800B2F1FF3FDC
:100D2000D8BFA0F58070F1E780B540F2500CC2F258
:100D3000000CDCF81420811A66D0DCF81030012990
:100D400018DB002A2EDBDCF8041001EB030E48F65A
:100D5000AD33C6F6DB038EFB03314B1303EBD171CE
:100D600044F620630A4401FB13E18242CCE90412F9
:100D700047DA4CE0002A2EDDDCF80C0048F6AD31F5
:100D8000C6F6DB01181A80FB0113591301EBD3716E
:100D900044F620630A4401FB1300002ACCE9040254
:100DA00035DC14E0DCF80C0048F6AD31C6F6DB01AA
:100DB000184480FB0113591301EBD37144F62063EF
:100DC0000A4401FB1300002ACCE904021FDB0022C5
:100DD000CCE904221BE0DCF80410A3EB010E48F67A
:100DE000AD33C6F6DB038EFB03314B1303EBD1713E
:100DF00044F620630A4401FB13E18242CCE9041269
:100E000005DC0021CCF81010CCF814000246CCF818
:100E1000182080BD40F25000C2F20000017821B9D4
:100E2000012101704FF4FA614160017A21B9012179
:100E300001724FF4FA61C1600021C0E904118161BF
:100E4000704740F250010022C2F20001C1E90420C3
:100E500070470000B0F800C001291FD92DE9F04308
:100E6000C2F100094B1E02304FEA620E66464FEA9D
:100E7000690800BF30F8027B4C46A7EB0C057545AE
:100E8000D8BF0024454506EB0705B8BF1446013B13
:100E900005EB0406EED1B446BDE8F0439CFBF1F14E
:100EA0000029B8BF1144881AD8BF08467047704758
:100EB0007047704742F20C00C4F202000168C90694
:100EC00001D4002108E040F20861C2F20001CA69C1
:100ED00042F00202CA6110210268520709D540F2AD
:100EE000086241F00401C2F20002D36943F0010339
:100EF000D3610269D2070BD040F20862C2F200024D
:100F0000D36943F00403D361026922F00102026154
:100F100001607047F0B581B0044600F048FE42F22F
:100F20000C060546C4F202063068C0070FD0671CE5
:100F300002D034B903201DE03068C00707D0002F6D
:100F4000FAD000F034FE401BA042F5D9F2E7306839
:100F5000800644BF202030603068C00607D4306966
:100F6000C00704D13068400701D4002002E0FFF739
:100F7000A1FF012001B0F0BD80B584B041F218009E
:100F80000122C4F20200016841F0040101604FF443
:100F90008071006800F004000090009840F60000A6
:100FA000C4F201000161CDE9001200210291022189
:100FB0000391694600F0F0FC04B080BD90F8202059
:100FC000013A012A04D8006800F11402002004E06C
:100FD00000F1240201204FF48021136819431160AD
:100FE000704710B590F82040D0F800C0013CDCF804
:100FF00008E0012C0DD81EF0E05F10D0CEF3016E9A
:10100000BEF1030F11D100F1240101204FF40002C1
:1010100034E000F1240101204FF480222EE000F1A1
:10102000240101204FF4001228E0012000FA0EF004
:101030001860D1E9023023B118434B6840EAC3037A
:1010400002E00B6840EA43530CEB0E10C0F880310D
:101050000B69C0F88431097D012905D100F5C27101
:101060000B6843F480730B605168C0F88C111168F1
:101070000122C0F8881100F5C07100200B681A43E6
:101080000A6010BD026890F82030013B012B27D880
:10109000B0B5D2F80002012340F00100C2F800020E
:1010A0004C6904F01F0003FA00F0D2F81C326FEA1A
:1010B000000C8343C2F81C32CB69012B16D06BBBEA
:1010C000D2F80C3202EBC40E03EA0C03C2F80C3265
:1010D000CB688D8845EA0343CEF840328E4614E053
:1010E000416A41F48021416201207047D2F80C32FC
:1010F00002EBC40E0343C2F80C320D688B8843EA3E
:101100000543CEF8403201F10C0E02EBC4038C68AB
:10111000BEF8005045EA0445C3F844528B69D2F842
:10112000045245EA0004002B08BF05EA0C04C2F88B
:1011300004420B69D2F8145245EA0004002B08BFA0
:1011400005EA0C04C2F81442096A0129BDE8B0405E
:1011500002BFD2F81C120843C2F81C02D2F80002E7
:1011600020F00100C2F8000200207047704710B55F
:1011700090F82040013C012C71D8D0F800C0002923
:101180000CBFDCF80C40DCF81040A4076DD00CEB71
:10119000011CDCF8B0410CF5D87E14F00404946016
:1011A000DCF8B04119BFE4085460640D14600029F4
:1011B000DEF8004004F00204D460DCF8B44104F02E
:1011C0000F041461DCF8B441C4F307249461DCF823
:1011D000B4414FEA14445461DCF8B8211A70026833
:1011E00002EB0112D2F8B8214FEA12225A700268BB
:1011F00002EB0112D2F8B8214FEA12429A7002684B
:1012000002EB0112D2F8B8214FEA1262DA700268DA
:1012100002EB0112D2F8BC211A71026802EB011232
:10122000D2F8BC214FEA12225A71026802EB011275
:10123000D2F8BC214FEA12429A71026802EB011205
:10124000D2F8BC214FEA1262DA714FF02002006836
:101250000CBF00F10C0100F1100100200AE000F1C8
:10126000240101204FF4802204E000F12401012038
:101270004FF400120B681A430A6010BD2DE9F04FBD
:1012800081B0044600684669D0F804908768D0F8B9
:101290000CB0D0F810A0D0F81880F10701D10025CB
:1012A00049E0F9070ED001218160B80707D478071B
:1012B0001DD4380721D4204600F018FA02E0204659
:1012C00000F015FA0025F8051CD520684FF4807150
:1012D0008160B80507D478050CD4380510D42046B1
:1012E00000F006FA0EE0204600F003FA0AE04FF4A0
:1012F0000065E8E705F5005504E04FF48055E2E7A6
:1013000005F58045F80316D520684FF480318160DB
:10131000B80307D4780309D438030AD4204600F070
:10132000E9F908E0204600F0E6F904E005F500459B
:1013300001E005F58035300707D51BF0100004D01B
:101340002068102145F40075C160700708D51BF0B6
:10135000080005D020680821C160204600F061F92E
:10136000B00706D52068C068800702D0204600F08C
:1013700059F9700607D51AF0100004D02068102122
:1013800045F480650161B00608D51AF0080005D063
:10139000206808210161204600F079F9F00606D5A1
:1013A00020680069800702D0204600F071F9B00380
:1013B00008D519F0100005D02068102141602046A2
:1013C00000F067F9F00308D519F0080005D020688F
:1013D00008214160204600F08FF9300441D55FEAD2
:1013E00049703BD506F480705FEA887108EA1020E6
:1013F00040EA0500014648BF41F00201B20558BF6E
:1014000001465FEA48700D4648BF45F00405700587
:1014100058BF0D46300521D518F070001ED0103889
:101420000009052815D8DFE800F00306090C0F12A3
:1014300045F008050DE045F010050AE045F02005EF
:1014400007E045F0400504E045F0800501E045F483
:1014500080752068816921F0700181612068042114
:10146000416045B1606A28436062204601B0BDE832
:10147000F04FFFF77BBE01B0BDE8F08FB0B5C8B14B
:10148000044690F8200010B9204600F075F8206856
:10149000016821F00201016000F089FB054600BFF0
:1014A00020684168890707D500F081FB401B0B28A5
:1014B000F6D312E00120B0BD016841F001010160E6
:1014C00000F075FB054600BF20684168C9070BD1D5
:1014D00000F06DFB401B0B28F6D3606A052140F439
:1014E00000306062012044E0217E026822F0800327
:1014F000012908BF42F080030360617E026822F088
:101500004003012908BF42F040030360A17E026846
:1015100022F02003012908BF42F020030360E17E8E
:10152000026842F01003012908BF22F01003036093
:10153000217F026822F00803012908BF42F0080356
:101540000360617F026822F00403012908BF42F0B2
:1015500004030360D4E901C2D4E9033561691A4385
:101560002A431143ACF101021143C1610020012162
:10157000606284F82010B0BDB0B586B0002146F29C
:101580000042CDE90411CDE90211C4F20002006865
:10159000904244D141F2180040F6004402ADC4F23A
:1015A0000200C4F20104426842F0007242604268E4
:1015B00002F000720192019A026842F00802026091
:1015C000006800F008000190019803914FF48070CA
:1015D000029004912046294600F0DEF902202946B7
:1015E00003904FF40070029003200590204600F015
:1015F000D3F9042049F6FF72C4F20100CFF6FF02CE
:1016000001681140002241F0E06141F48041016035
:101610001420002100F047FB142000F035FB06B039
:10162000B0BD704770B58AB003AA01AB0021FFF7C7
:101630009EFD08B10AB070BD0398122812D0102880
:10164000F8D140F25C550020019C2026C2F2000532
:1016500085F85800202001F067FD204601F06CFD60
:101660002E71E7E79DF80400012805D00028E1D19C
:10167000102001F059FDDDE7202001F055FD40F27A
:101680005C50C2F20000006901F056FDD2E77047DD
:1016900070477047B0B5044690F8200001281CD16F
:1016A000022084F820002068016821F00101016017
:1016B00000F07DFA054600BF20684068C00712D0E0
:1016C00000F075FA401B0B28F6D3606A40F4003036
:1016D0006062052084F8200003E0606A40F4002086
:1016E00060620120B0BD00206062B0BD70477047ED
:1016F0007047704770477047704790F82110022973
:1017000023D102682F2340F2040CC4F20203C4F276
:10171000020C11689A4221F00E011160116821F04B
:101720000101116015DD3023C4F202039A421CD07E
:101730004423C4F202039A421AD05823C4F202038B
:101740009A421AD14FF480331FE0042181630120B3
:1017500070470823C4F202039A420CD01C23C4F23F
:1017600002039A4209D110230FE04FF480730CE07A
:101770004FF4805309E0012307E00CF168014FF0BA
:1017800080738A4208BF4FF480134FF48071CCF805
:1017900000300184416B19B180B58847002080BDBD
:1017A00000207047B0B5044600F001FA054640F24B
:1017B0001800611CC2F20000007818BF044400BF8A
:1017C00000F0F5F9401BA042FAD3B0BD2DE9F0437B
:1017D00081B040F208660546C2F20006307E01285C
:1017E00001D1022056E00120884630764CF250307C
:1017F0002C68FFF78FFB022C18D1002847D142F24A
:1018000010040020F061C4F20204206840F00400DB
:101810002060206840F0400020604CF25030FFF71C
:1018200079FB216821F00401216031E078BB4FF0A1
:10183000FF30C8F80000D5E9027007EB802087422E
:1018400025D242F210044FF00009C4F2020400BF96
:10185000C6F81C90206840F0020020606760206895
:1018600040F0400020604CF25030FFF753FB2168FD
:10187000002821F0020121600FD1D5E9020107F50E
:10188000806700EB81208742E2D3002000E0012046
:101890000021317601B0BDE8F083C8F80070F7E7A9
:1018A00042F21000C4F20200016841F080010160C0
:1018B000002070472DE9F04F81B040F20868814662
:1018C000C2F2000898F81800012801D1022049E06E
:1018D00001201C4692460E4688F818004CF2503003
:1018E000FFF718FBD8BBB9F1020F4F4642F21005C3
:1018F0004FF000004FF0000B18BF0427B9F1010FA3
:10190000C4F2020508BF4F466FF01F090021020113
:10191000C8F81C102AFA02F2296841F00101296076
:101920002021A1EB001104FA01F1114309EB00128F
:10193000002AA8BF24FA02F126F810104CF2503009
:10194000FFF7E8FA2968002821F00101296006D193
:101950000BF1010B5FFA8BF08742D7D800200021F2
:1019600088F8181001B0BDE8F08F42F20400C4F20C
:101970000200C16809065CBF0020704740F22311D5
:10198000C4F26751016048F6AB11CCF6EF5101602B
:10199000C068C0F3C01070472DE9F04F82B0D1F895
:1019A00000B0BBF1000F00F0F58041F200420423CB
:1019B00040F2004C4FF6FF7701254FF0000A4FF040
:1019C0000009C4F20102C4F2010CC1F210079042F6
:1019D00008BF03230093002305FA0AF81BEA080F47
:1019E00000F0CF804E68BE4208DC032E34D8DFE81A
:1019F00006F028023E42D1F80C9043E04FF6FF7209
:101A0000C1F2210296420DDC0022C1F2110296427F
:101A100017D00022C1F21202964212D00022C1F267
:101A200021020CE00022C1F22202964209D00022DB
:101A3000C1F23102964204D00022C1F23202964233
:101A400020D18A6882B1012A4FF0080914BFC0F87A
:101A50001480C0F8108015E0112E0FD0122E04BF94
:101A6000CA6802F10C090DE04FF004090AE0CA68E7
:101A700002F1080906E04FF0000903E0CA6802F12C
:101A8000040900BFBAF1080F1A4605464FF00F0EC1
:101A900028BF203A28BF04352E680EFA02F409FA4E
:101AA00002F226EA040422432A60CA79D20601D44B
:101AB000012566E041F21802BB46ACF57E7703F0E3
:101AC0000C06C4F202021446126842F001022260BF
:101AD000226802F0010201920EFA06F2019C4FEA1E
:101AE0009A0457F8245025EA020E40F60002C4F288
:101AF0000102904211D040F60042C4F2010290422D
:101B000009D041F200020125C4F201029042009A7C
:101B100008BF022203E0012200E000220125B240BA
:101B200042EA0E0247F824205F464E68F203DCF8D2
:101B3000002054BF22EA080242EA0802CCF8002042
:101B4000B203DCF8042054BF22EA080242EA080289
:101B5000CCF80420F202DCF8082054BF22EA080284
:101B600042EA0802CCF80820B20240F20C42C4F269
:101B700001021446126854BF22EA080242EA08022F
:101B80002260D1F800B00AF1010A04333BFA0AF2EC
:101B90007FF422AF02B0BDE8F08F8068084018BF24
:101BA00001207047002A08BF09040161704740F214
:101BB000B460C2F200000068704740F2180040F2C2
:101BC000B461C2F20000C2F2000100780A68104459
:101BD0000860704780B542F20000C4F2020001685C
:101BE00041F010010160032000F08BF8002000F0AC
:101BF00004F800F028F8002080BDB0B5044640F29B
:101C000018004FF47A71C2F200000078B1FBF0F0D6
:101C100040F20401C2F200010968B1FBF0F000F0EB
:101C20003AFD01250F2C0CD858B94FF0FF30214652
:101C30000022002500F037F840F21C00C2F200003C
:101C400004602846B0BD82B041F218000222C4F2FE
:101C50000200016841F001010160016801F0010129
:101C600001910199416841F080514160406800F064
:101C70008050009000980420C4F20100016862F3D3
:101C80001A61016002B0704700280BDB00F01F01F1
:101C90000122400902FA01F14EF20012CEF20002D6
:101CA00042F82010704710B500F00F034EF60C5E9E
:101CB00000F1604CB0F1FF3FA3F10403CEF2000E3F
:101CC000734403F10C04C8BF0CF56444DEF8000053
:101CD0004FF0FF3CC0F30220C31E80F0070038BF66
:101CE0000023042828BF04200CFA00F021EA000099
:101CF0000CFA03F1984022EA010108430001207028
:101D000010BD4EF60C514FF6FF03CEF200010A68EB
:101D10001A4060F30A2242F0806040F0FD700860D3
:101D2000704700002DE9F04182B00446007841F28E
:101D30000406C4F20206C0075CD0B069C0000BD430
:101D4000B0694FF0010840F08050B061B06900F018
:101D500080500190019801E04FF0000847F2000721
:101D6000C4F200073868C00510D4386840F48070A9
:101D70003860FFF71CFF05463868C00506D4FFF73A
:101D800016FF401B6428F7D9032045E0F06910F4E2
:101D9000407021D0616801F4407188421CD040F24B
:101DA0004041F0690122C4F242210A6000220A6027
:101DB00020F44071C007F1610ED0FFF7F8FE054630
:101DC00041F28837F069800706D4FFF7F0FE411B27
:101DD0000320B942F6D91FE0F0696168B8F1000F3D
:101DE00020F4407040EA0100F0611EBFB06920F0AD
:101DF0008050B0612068810705D53168A26821F460
:101E0000404111433160C00605D53068E16820F4D7
:101E1000800008433060002002B0BDE8F08100007F
:101E20002DE9F04381B0002800F0AA8042F20008BA
:101E300004460D46C4F20208D8F8000000F007007E
:101E400088420DD2D8F8000020F007002843C8F8D7
:101E50000000D8F8000000F00700A84240F0908091
:101E6000206841F20409C4F20209810717D541072D
:101E700042BFD9F8001041F4E061C9F80010010731
:101E800042BFD9F8001041F46051C9F80010D9F8E8
:101E90000010A26821F0F0011143C9F80010C0073A
:101EA0002BD06068012804D159F8041C890309D497
:101EB00066E059F8041C022802D1890102D45FE0CF
:101EC00089075DD5D9F8001021F003010843C9F84E
:101ED0000000FFF76CFE064641F28837D9F8000093
:101EE000616800F00C00B0EB810F06D0FFF75FFED9
:101EF000801BB842F2D9032043E0D8F8000000F07C
:101F00000700A8420CD9D8F8000020F007002843A9
:101F1000C8F80000D8F8000000F00700A8422FD150
:101F20002068410707D5D9F80010E26821F4E06184
:101F30001143C9F80010000708D5D9F8000021693D
:101F400020F4605040EAC100C9F8000000F01CF81D
:101F5000D9F8001044F27232C0F60002C1F3031146
:101F6000515CC84040F20401C2F20001086040F236
:101F70001C00C2F200000068FFF73FFE002000E0F6
:101F8000012001B0BDE8F08341F2040141F60030C8
:101F9000C4F20201C0F2B7000A6802F00C03042B7D
:101FA00008BF7047082B0CD1C2F3834C0CA3D2039B
:101FB00013F80C300AD440F60010C0F23D0058432C
:101FC000704741F20020C0F27A007047096808A209
:101FD0005843C1F34041515CB0FBF1F0704700BF82
:101FE00002030405060708090A0B0C0D0E0F10105A
:101FF000010200002DE9F04182B0002800F0548178
:102000000446007841F20006C4F20206C0074AD036
:10201000706800F00C00042817D0706800F00C0005
:10202000082802D17068C0030FD4606898B1B0F579
:10203000803F06D03168B0F5A02F21D141F4802037
:102040003060306840F4803020E0306880032AD56A
:10205000606840BB28E1306820F480303060306830
:1020600020F480203060FFF7A2FD05463068800331
:1020700019D5FFF79CFD411B03206429F6D914E113
:1020800021F480303060306820F480203060FFF729
:102090008EFD05463068800305D4FFF788FD401BA0
:1020A0006428F7D9E2E0207880072FD5706810F017
:1020B0000C0F07D0706800F00C00082809D1706878
:1020C000C00306D43068800719D52069012816D0CE
:1020D000EAE021690020C4F24220002900F08B8050
:1020E00001210160FFF763FD054600BF30688007EE
:1020F00005D4FFF75CFD401B0228F7D9B6E0306835
:10210000616920F0F80040EAC100306020780007E3
:1021100038D5A06988B100200121C4F24220C0F85E
:102120008014FFF744FD0546706A800717D4FFF757
:102130003EFD401B0228F7D998E000200021C4F2A0
:102140004220C0F88014FFF732FD0546706A800710
:1021500018D5FFF72CFD401B0228F7D986E040F286
:10216000040044F6D351C2F20000C1F262010068DB
:10217000A0FB0101480A019000BF0198411E002800
:102180000191F9D12078400779D5F069C0000BD4CE
:10219000F0694FF0010840F08050F061F06900F004
:1021A00080500090009801E04FF0000847F20007CF
:1021B000C4F200073868C0050FD4386840F4807056
:1021C0003860FFF7F4FC05463868C00505D4FFF712
:1021D000EEFC401B6428F7D948E0E068D8B101283C
:1021E00005D0316A05282DD141F004003062306AF3
:1021F00040F001002CE000210160FFF7D8FC05460B
:10220000306880077FF582AFFFF7D1FC411B0320C8
:102210000229F5D949E0306A20F001003062306AC5
:1022200020F004003062FFF7C2FC054641F2883717
:10223000306A80071CD5FFF7BAFC411B0320B94266
:10224000F6D932E021F001003062306A20F004005B
:102250003062FFF7ACFC054641F28837306A8007F0
:1022600006D4FFF7A4FC401BB842F7D903201CE0BA
:10227000B8F1000F1EBFF06920F08050F061E769EF
:10228000002F57D0706800F00C00082810D1012FE3
:102290000AD07068216A00F480328A4204D1616AEF
:1022A00000F47010884245D0012002B0BDE8F081F2
:1022B00040F200080020C4F24228C8F86000FFF78E
:1022C00076FC0546022F09D13068800110D5FFF752
:1022D0006EFC411B03200229F6D9E6E73068800135
:1022E00028D5FFF764FC411B03200229F6D9DCE75F
:1022F000206AB0F5803F05D17168A26821F40031F1
:10230000114371607168626A104321F474110843CB
:1023100070600120C8F86000FFF749FC044600BF68
:102320003068800106D4FFF742FC011B032002291C
:10233000F6D9BAE70020B8E7704710B584B0044674
:102340000068416882684B0605D502F04103012B05
:1023500001D1216C05E00B0608D512F0020305D06F
:10236000616C204604B0BDE8104008478B0658D584
:1023700012F0600355D012F0400316D094F851309B
:10238000032B07D100210291C1680291806802905D
:10239000029846E0636D43F00403636500230393F2
:1023A000C368039383680393039B12F020020CD04D
:1023B000626D42F001026265002201928268019220
:1023C000026822F040020260019A626D4AB34268DC
:1023D000890722F0E00242604FF0010284F85120A8
:1023E00021D0416821F003014160E06C58B143F60F
:1023F0002931C0F600014163FFF77FF918B1606D24
:1024000040F040006065A06C58B143F62931C0F639
:1024100000014163FFF771F918B1606D40F04000B1
:10242000606504B010BD204604B0BDE81040FFF761
:1024300083BF70B5B8B3002605464FF0000C866226
:1024400090F8510030B9284685F8506000F02EF819
:10245000D5F828C0022185F8511029680A6822F0B1
:1024600040020A60D5E90123D5E903041A43104369
:102470006A6920431043AA6902F400731843EB69A8
:1024800018432B6A184340EA0C000860042000EA55
:1024900012404860C86920F40060C86101206E6580
:1024A00085F8510000E00126304670BD70470000FD
:1024B0002DE9F04381B0044690F85000012801D185
:1024C0000220CAE001201E4615460F4684F850003F
:1024D000FFF76DFB94F85110814601296DD1012061
:1024E000002F00F0B480002D00F0B180002E00F02D
:1024F000AE8094F85100731EDDF82080B3FA83F3A8
:1025000004284FEA53131CBF052084F85100002013
:102510006065E687A563A6872763A686C4E91000E1
:10252000E6862068016849065EBF016841F0400107
:1025300001606168E268B1FA81F1B2F5006F4FEABB
:10254000511141EA030146D131B137F8021BC16094
:102550002763E08E0138E086012608F1010500BFFF
:10256000E08E10B9E08F00287AD020688168890752
:102570000CD5E18E012E09D141B1216B002631F835
:10258000022BC2602163E18E0139E1868168C907AF
:102590000AD0E18F41B1C068A16B012621F8020B7E
:1025A000A163E08F0138E087FFF701FB002DD7D052
:1025B000A0EB09004045D3D348E06068B0F5827FC6
:1025C00007D10220042942D1A16800293FF487AF36
:1025D0003DE002203BE039B139780173206B0130D6
:1025E0002063E08E0138E086012608F1010500BF76
:1025F000E08E08B9E08F98B32068816889070ED50E
:10260000E18E012E0BD151B1216B002609780173A7
:10261000216B206801312163E18E0139E1868168F7
:10262000C9070BD0E18F49B1C068A16B01260870C2
:10263000A06B0130A063E08F0138E087FFF7B7FAA5
:10264000002DD5D0A0EB09004045D1D303200021B7
:1026500084F85010012184F8511001B0BDE8F083D6
:102660002046802142464B4601F064FA38B1606D45
:1026700040F020006065202060650120E7E7A16848
:1026800000200029E3D100902168CA68009289687F
:1026900000910099DBE7411E0020B0EB116F1CBFD9
:1026A000012070474EF21002F023CEF2000251607A
:1026B0004EF62351CEF200010B700721906011609D
:1026C000704790F83C300222012B19D080B580F879
:1026D0003D2002685368D2F808C023F0700ED1E99B
:1026E000003143EA0E0353602CF0800319439160DC
:1026F0000022012180F83C2080F83D10BDE8804098
:102700001046704770B50D4690F83C100446022004
:10271000012908BF70BD84F83D004FEAB2000126D0
:10272000032884F83C6036D8DFE800F0020A122261
:102730002068294601F0F8FB206850F8181F0EE0C9
:102740002068294601F01EFC206850F8181F16E08A
:102750002068294601F048FC206850F81C1F41F011
:1027600008010160016821F00401016029690FE09E
:102770002068294601F06AFC206850F81C1F41F4CB
:1027800000610160016821F480610160296909022A
:10279000026811430160002084F83C0084F83D6029
:1027A00070BDB0B110B5044690F83D0028B90020C6
:1027B00084F83C00204600F00EF80220211D84F829
:1027C0003D00206801F079FB012084F83D000020E5
:1027D00010BD012070477047006801F01F01012201
:1027E00002FA01F1026A8A430262026A114301623B
:1027F00042F60041C4F20101884203D14A6C42F41E
:1028000000424A64816801F0070106291EBF016881
:1028100041F001010160002070470000FEE740F236
:10282000E041C2F20001886048610A68D1E903C34F
:10283000C1E90002801AC3EB831244F6206300FB57
:1028400003206044821100F03F000A61C8608A6181
:10285000704780B540F2E0401C21C2F20000FDF755
:1028600068FC80BD40F2E042C2F20002C2E9000012
:102870009060116170472DE9F04140F2FC45C2F2D1
:102880000005EE6A6C6A871B16D004B3012FA8BF3F
:10289000012C38DA07EA0400B0F1FF3F72DDB7F12E
:1028A000FF3F01DC012C57DA012FC0F2B480B4F1F4
:1028B000FF3F40F39880AEE0E86941428C421BDB69
:1028C000844219DC0024C5E90844AC62A3E0E8684E
:1028D000296A012FACBF0844081A48F6AD31C6F684
:1028E000DB0180FB0112511301EBD27444F620612D
:1028F00004FB110028628DE0012C2DDAB4F1FF3FBA
:1029000071DD002487E0D5F80480444524DC2046AE
:10291000FDF78AFC0146FDF717FCA969FDF714FCD9
:10292000FDF78BFC874217DD444574DAE868296AB5
:10293000084448F6AD31C6F6DB0180FB01125113A5
:1029400001EBD27144F620620C4401FB12004445B5
:10295000C5E9080442DA5EE06869296A081A48F69F
:10296000AD31C6F6DB0180FB0112511301EBD271D0
:1029700044F620620C4401FB1200002CC5E9080457
:1029800049DC45E06868C0F1000844452BDB20467F
:10299000FDF74AFC0146FDF7D7FBA969FDF7D4FB1B
:1029A000FDF74BFC002F00D57F4287421BDD4445DD
:1029B00031DDE868296A081A48F6AD31C6F6DB0150
:1029C00080FB0112511301EBD27144F620620C44DA
:1029D00001FB12004445C5E908041CDC0020444604
:1029E000C5E9080817E06869296A084448F6AD3166
:1029F000C6F6DB0180FB0112511301EBD27144F6E4
:102A000020620C4401FB1200002CC5E9080402DB23
:102A100000242C626C626C6348F6AD3144F620638E
:102A2000A86AC6F6DB01204480FB0112511301EBBA
:102A3000D2718A1901FB1300EA62A8622A63BDE819
:102A4000F08110B540F2FC44C2F20004207830B9A5
:102A50000120207048F60000C0F213006060207A68
:102A600030B90120207242F20000C0F24E00E06056
:102A7000207C28B942F20000C0F24E0000F026F897
:102A80004FF448401821E06104F12000FDF751FBAC
:102A900010BD40F2FC420023C2F20002C2E908313C
:102AA000C2E90A30704740F2FC4148F600000122BA
:102AB000C2F20001C0F213000A70486042F2000046
:102AC000C0F24E00C8600A72AFF30080002800D543
:102AD000404243F6FF72411EC0F20D32914211D8BE
:102AE00010B540F2FC44C2F200046061FDF79CFBAB
:102AF00001464FF07C50FDF759FBA0610120BDE875
:102B0000104000E0002040F2FC41C2F200010874D5
:102B1000704780B54FF0FF3000210022FFF7C3F867
:102B2000142001210022BDE88040FFF7BCB840F22C
:102B300074600121C2F20000017040F2040041F211
:102B40005971C2F20000CDF2B7110068A0FB01017B
:102B5000880BFFF7A0BD80B540F2044046F200426A
:102B6000092100234FF4802C4FF4801EC2F2000094
:102B7000C4F200028383C0E90021C0E90233C0E946
:102B800004CE8361FEF77AFC002814BFBDE88040C4
:102B900080BDFEF78EB90000FEE7B0F1FF3F10DD0B
:102BA00048F2A061C0F20101884210DB4DF21F61C2
:102BB000C0F2130188421CDC43F64001CFF670617D
:102BC00011E047F66011CFF6FE71884201DD00206A
:102BD000704742F6E111CFF6EC7188421BDB4CF2F4
:102BE000C071C0F28F114FF4837200FB0210001508
:102BF000704749F2BF11C0F2210188421FDC42F642
:102C0000E0416922CFF2DD7100FB02104FF49671B2
:102C100001EB2050704746F64161CFF6DE718842E5
:102C20001EDB4DF220316922C0F6220100FB0210AA
:102C30004FF6D461CFF6FF7101EB2050704746F29A
:102C400000513422CFF62E1100FB02104FF4C37155
:102C500001EB2050B0F5D77FA8BF4FF4D770704775
:102C600049F600313422C0F2D16100FB02104FF668
:102C70007A61CFF6FF7101EB20514FF65260CFF62B
:102C8000FF7011F5D77FC8BF08467047F0B581B017
:102C900040F2200140F2F857C2F20001C2F20007F0
:102CA0000A7878886AB140F25C54C2F20004A168E4
:102CB000C4E90201401AB0F5C84F0DDDA0F5484047
:102CC0000FE040F25C52C2F20002C2E90200C2E927
:102CD000040001200870E8E110F5C84FB8BF00F506
:102CE00048402169D4E9062344F62065C3EB431329
:102CF0000E1800FB0530C4E904610244501102F0D3
:102D00001F02C4E90620FFF748FF20628119E06B2B
:102D1000421AC4E90A1294F8581094F84620114354
:102D200020D13979F1B194F84710002900F0A3803F
:102D300040F228600021C2F20000C0E90911C1611F
:102D400040F26C00C2F20000C0E90A11016240F2D8
:102D50005050C2F20000C0E90011C4E9131100F0A4
:102D600053FC18E040F228600021C2F20000C0E9E4
:102D70000911C16140F26C00C2F20000C0E90A1101
:102D8000016240F25050C2F20000C0E90011C4E9F3
:102D9000131100F0DFFC48F60000616BC0F2130075
:102DA000814201DD606306E047F60000CFF6EC707B
:102DB0008142B8BF6063B4F93800B0F57A7F02DDB4
:102DC0004FF47A7006E010F57A7F04DA4FF6184077
:102DD000CFF6FF70208794F8460010B194F83A00BF
:102DE00038B194F84700002837D094F83B00002809
:102DF00033D1012084F8480040F228600021C2F25B
:102E0000000084F84810C0E90911C16140F26C006B
:102E1000C2F20000C0E90A11016240F25050C2F251
:102E20000000C0E90011616584F858102079A0F114
:102E30002001132900F24F80DFE801F00A14184145
:102E40004D4D4D4D4D4D4D4D4D4D4D4D0A1418466A
:102E5000E169A06AFFF71DFE3CE094F848000028F5
:102E6000CAD137E0E06900F03DFF33E0B4F950002B
:102E7000FDF7E7FF2EE021791F2940F3FC80203980
:102E800013293FF688AFDFE811F0FD0001011500BE
:102E9000FD001400140014001400140014001400A9
:102EA00014001400140014001400FD0001011500AA
:102EB000FD0070E7B4F94400FDF7E2FD6BE7E1695E
:102EC000A06A00F0CEFA05E0E169A06AFFF7CAFC4B
:102ED000A06A20632079A0F12001132913D8DFE82C
:102EE00001F00A2D364258585858585858585858D2
:102EF00058580A2D364D206BFFF7BDFC40F2FC40C0
:102F0000C2F2000037E0012800F0A180002840D183
:102F100040F250504FF4D273C2F200008268016850
:102F200002FB031122640B46CA156FF3DF53C0E99D
:102F30000032E06B00EBE150E0632AE0606B00F0F0
:102F400040FE40F25860C2F20000806920E0B4F90F
:102F50003800FDF7E9FE40F25000C2F2000080693F
:102F6000A4F8440015E0D4E90C0100F0BEF940F2E9
:102F7000C050C2F20000016B406B08E0206BFFF70D
:102F80004EFC40F2E040C2F20000D0E90510E163DF
:102F90002064608FA4F84600226D002A114648BFC5
:102FA0005142207940F01003322B12D18AB1E269EC
:102FB000002A00D55242B2F5205F0ADA44F24023DB
:102FC000626DC0F20F039A423CD3012284F858206C
:102FD00016E0B1F5757F11DBE269002A00D5524297
:102FE000B2F5205F0ADA40F64052616DC0F203028A
:102FF000914229D3012184F8581004E0002262652F
:10300000B1F5757F0ADB48F2A062E16DC0F2010202
:10301000914207D3012184F8601005E0002184F873
:10302000601000E03231E165102801D100203AE063
:1030300094F8581009B1042035E094F8601061B19B
:10304000032030E03232DAE732316165DBE740F20B
:103050005050C2F2000080689AE722281AD0212836
:103060001CD0202805D1206BE16B81421AD1206C45
:10307000C0B9012017E029B1012907D010293FF478
:1030800088AE88E6216CFDF734FD84E6206CFDF700
:10309000D6FD80E6208FB4F8441001E0606B216C0F
:1030A0008142E6D0022084F8610001B0F0BD40F218
:1030B0005C500021C2F2000080F858104165704752
:1030C000B0B540F25C54C2F20004207810B942F26C
:1030D00001102080A07810B940F201106080002516
:1030E00010201C21E565207104F10800A4F860504F
:1030F000FDF71FF804F128002121FDF71AF884F8E4
:103100005850C4E913556565FDF77DFDFDF7CBFC0F
:10311000FFF797FC00F0CBFDFDF77CFE00F084F993
:10312000BDE8B040FFF795BB40F25C510122C2F20E
:1031300000010A704870704740F25C51C2F2000111
:103140000863704740F2C440C2F200000278082AC7
:1031500006D8012140F281139140194200D07047F6
:103160004168013A052A01F101014160F7D8DFE821
:1031700002F003142F51677A40F25C512122C2F20F
:1031800000010A7142F201120A804FF448424A6378
:103190000221017000214160704740F25C52C2F28E
:1031A000000292F858301BB992F86130042B52D1CA
:1031B00010210323117141F20101037011800021DC
:1031C0005163516582F858101269C0E901127047C5
:1031D0000A2911D140F25C520023C2F2000282F8A7
:1031E0005830536542F20103138020231371836822
:1031F000A3F5007303611363322907D840F25C51D1
:10320000C2F2000191F861100129A8D100214160AA
:10321000042148E040F25C51002242F20113C2F264
:10322000000181F858204A650B8021230B7143F679
:103230000003CFF6FF734B630521017042607047B6
:1032400040F25C52C2F2000292F858306BBB92F826
:103250006130042B29D06529FFF481AF082101706A
:103260000020506370470A2911D140F25C520023BC
:10327000C2F2000282F85830536542F20103138013
:1032800020231371C36803F500734361136332296C
:1032900008D840F25C51C2F2000191F86110012996
:1032A00018BF704707210170704710210623117164
:1032B00041F201010370118000215163516582F8D0
:1032C000581041601169C160704740F2C44000214C
:1032D000C2F2000041600121017040F25C5040F2F6
:1032E0000111C2F20000418070472DE9F04381B026
:1032F00040F2C05704460D46C2F20007B869884242
:103300000CD1F869A04209D140F640513869C0F2A9
:103310000301884238DB0120387539E0002038612C
:10332000C7E906543875D7F82480D7F82C9008EBF5
:103330000500FCF779FF0646A5EB0800FCF774FFD3
:1033400001463046FCF700FF0546A4EB09004000AB
:10335000FCF76AFF01462846FCF728FFFCF76DFFE3
:10336000F860396A44F62063014448F6AD30C6F689
:10337000DB0081FB0002501300EBD27208EB02006D
:1033800002FB1311396236E032303861387DC8B142
:10339000786A70B379683A6A012817DB511A48F6DF
:1033A000AD32C6F6DB0281FB02235A1302EBD37265
:1033B00044F62063104402FB13110028C7E90810EB
:1033C0001ADC16E0F868D7F82480CAE7114448F6FA
:1033D000AD32C6F6DB0281FB02235A1302EBD37235
:1033E00044F62063104402FB13110028C7E90810BB
:1033F00002DB0020386278627863D7E90A12084459
:1034000048F6AD31C6F6DB0180FB0113591301EB21
:10341000D37144F620630A4401FB1300FA62B862D8
:103420003A6301B0BDE8F08340F2C050C2F2000040
:10343000017831B90121017042F20001C0F24E0160
:103440004160017A19B901210172C821418180B519
:103450000021C0E90311017518302021FCF769FE35
:1034600080BD40F2C0520023C2F200021375136106
:10347000C2E90831C2E90A307047704770472DE948
:10348000F04186B041F21807002640F6004402AD34
:103490004FF001080596C4F20207C4F20104294660
:1034A000386840F008003860386800F00800019083
:1034B00001980396802002902046CDF81080FEF7F8
:1034C0006BFA3868294640F008003860386800F028
:1034D0000800019001980396402002902046CDF804
:1034E0001080FEF759FA06B0BDE8F0812DE9F04FE3
:1034F00085B041F2180040F600044FF0100A4FF07A
:10350000080B4FF004084FF0010901AD0026032716
:10351000C4F20200C4F20104016841F00401016038
:10352000016801F0040101910199016841F0040171
:103530000160016801F0040101910199016841F005
:1035400004010160016801F0040101910199016821
:1035500041F0040101602946006800F00400019078
:10356000019820206061C4F814A0C4F814B0C4F815
:103570001480CDE90109204603960497FEF70CFA62
:1035800020462946CDE901A9CDE90367FEF704FAF3
:1035900020462946CDE901B9CDE90367FEF7FCF9DC
:1035A00020462946CDE90189CDE90367FEF7F4F904
:1035B00005B0BDE8F08F80B584B041F2180001225B
:1035C000C4F20200016841F0040101604FF40041BF
:1035D000006800F004000090009840F60000C4F27B
:1035E00001000161CDE90012002102910221039145
:1035F0006946FEF7D1F904B080BD80B5FFF776FFCC
:10360000BDE8804000F087B940F24A000021C2F2D4
:103610000000818040F24400C2F20000818040F24C
:103620008440C2F2000000680164C16340F61000EB
:103630002021C4F201000160102101600821016015
:1036400004210160704700290A4648BF4A42C72A40
:103650000EDC40F22402C2F200021268002A134675
:1036600048BF5342C72BDEBF114401EBD171491053
:1036700010B540F2240240F24A0E44F2823340F286
:10368000440C0029C2F20002C2F2000EC0F6000390
:10369000C2F2000C116000F580726FF39F206FF38F
:1036A0009F22AEF8000033F9100033F91240ACF855
:1036B0000020AEF80200ACF8024000D5494241F2C9
:1036C000DB320028034602FB01F1C1F30B3148BF96
:1036D0004342002C01FB03F34FEA1332AEF80420FF
:1036E000224648BF6242012C02FB01F14FEA11322F
:1036F000ACF8042040F28442C1F38D31C2F20002E2
:1037000012681164C3F38D31D16340F610014FF09C
:103710002002C4F2010103DB0A6010224A6006E0C5
:10372000B4F1FF3FCCBF0A604A6010220A60012852
:10373000BDE8104004DB08200860042048607047A2
:10374000B0F1FF3F4FF00800CCBF08604860042094
:103750000860704740F24A000021C2F200008180F8
:1037600040F24400C2F20000818040F28440C2F284
:10377000000000680164C16340F614002021C4F217
:103780000100016010210160082101600421016035
:10379000704780B500F060F940F2FE5040F2000240
:1037A00040F2F851C2F20000C2F20002C2F200017F
:1037B00040881268088032F81000488080BD000000
:1037C000B0B540F2FE550024C2F200052C60FFF7B0
:1037D000F2FE00F020F800F03FF940F2000140F264
:1037E000F8506A880123C2F20001C2F200000968A1
:1037F000028031F812200371002342804FF6FF72DD
:1038000031F813500133954208BF0471B3F5804F6E
:1038100008BFB0BDF4E72DE9F04786B041F21807C4
:103820004FF0000A40F6004402AD4FF002080326B4
:10383000CDF810A0C4F20207C4F20104294638688A
:1038400040F008003860386800F0080001900198E6
:10385000386840F008003860386800F008000190CF
:103860000198386840F008003860386800F00800B7
:1038700001900198CDF80C80082002902046059612
:10388000FEF78AF82020CDF80C80294602902046C9
:103890000596FEF781F84FF0100920462946CDF82D
:1038A0000CA0CDF80890CDF810A0FEF775F8042014
:1038B00004F510524FF400634FF40076C4F2010097
:1038C000016841F0E06141F0010101604FF4827153
:1038D000386840F4805038603868012700F4805020
:1038E0000190019840F22C40C2F20000C0E9002192
:1038F0000A21C0E902A3C0E90487C0E90669C0E95A
:1039000008AAC0E90AA1FEF794FD08B1FDF7D1FAB3
:1039100006B0BDE8F0872DE9F0438FB041F21807FB
:10392000002640F600440BAD4FF002084FF00309AB
:103930000D96C4F20207C4F201042946386840F02B
:1039400008003860386800F0080001900198386875
:1039500040F008003860386800F0080001900198D5
:10396000CDF830804FF400600B902046CDF83890B1
:10397000FEF712F84FF48060CDF8308029460B90A6
:103980002046CDF83890FEF707F804204FF6FF42A6
:10399000C4F20100CFF6FF020168114041F0E0617E
:1039A00041F40071016001A81C21CDE90866FCF713
:1039B000C0FB78684FF0804140F2FF3240F00100D8
:1039C0007860786800F001000090009840F2844030
:1039D000C2F20000C0E90016C0E902620661866119
:1039E000FEF7DFFE08B1FDF764FA40F2844008A953
:1039F000CDE90866C2F20000FEF763FE08B1FDF7EC
:103A000058FA002060210C22029001910390059049
:103A100040F2844001A9C2F20000FEF773FE08B133
:103A2000FDF747FA40F2844001A90822C2F20000E3
:103A3000FEF768FE08B1FDF73CFA40F284440C2121
:103A4000C2F200042046FEF7C7FE20460821FEF71A
:103A5000C3FE0FB0BDE8F0832DE9F04F85B048F20A
:103A6000003040F6100640F22C4440F2FE554FF470
:103A700000494FF0FF384FF0010A4FF0000BC8F239
:103A80000040C4F20106C2F20004C2F20005039035
:103A900004A80230029003A802300190204603A936
:103AA00004AA0123C6F80490CDF80080FEF700FDBB
:103AB000C6F80090C6F80490CDF800802046012397
:103AC000DDE90112FEF7F4FCC6F800900023BDF812
:103AD0001200BDF81020C1B241EA02210022298063
:103AE00089B200BF0AFA02F701320F4218BF013350
:103AF000102AF7D1DA0707D00BF1010B0020BBF138
:103B0000030F6871CAD306E001226A71C0F3400056
:103B100028718808688005B0BDE8F08F40F22C401D
:103B2000C2F20000FEF709BC406A0021C187C186CD
:103B3000FEF702BC2DE9F041804600680F4681681F
:103B40003940B9420ED11D461646541C34B1FEF719
:103B50002EF8411BD8F80000B14206D281683940E6
:103B6000B942F3D00020BDE8F081416821F0E001C6
:103B70004160D8F80410B1F5827F0BD1D8F8081055
:103B8000B1F5004F02D0B1F5806F03D1016821F08B
:103B900040010160D8F82810B1F5005F07D1016835
:103BA00021F400510160016841F4005101600020DE
:103BB00088F85000012088F851000320BDE8F0810A
:103BC000704780B540F2586CC2F2000CDCF814204B
:103BD000811A66D0DCF81030012918DB002A2EDBB0
:103BE000DCF8041001EB030E48F6AD33C6F6DB0338
:103BF0008EFB03314B1303EBD17144F620630A446F
:103C000001FB13E18242CCE9041247DA4CE0002ABE
:103C10002EDDDCF80C0048F6AD31C6F6DB01181AD3
:103C200080FB0113591301EBD37144F620630A445E
:103C300001FB1300002ACCE9040235DC14E0DCF8B7
:103C40000C0048F6AD31C6F6DB01184480FB0113C9
:103C5000591301EBD37144F620630A4401FB1300AE
:103C6000002ACCE904021FDB0022CCE904221BE07D
:103C7000DCF80410A3EB010E48F6AD33C6F6DB0307
:103C80008EFB03314B1303EBD17144F620630A44DE
:103C900001FB13E18242CCE9041205DC0021CCF8DF
:103CA0001010CCF814000246CCF8182080BD40F269
:103CB0005860C2F20000017831B90121017042F26E
:103CC0000001C0F24E014160017A31B90121017257
:103CD00042F20001C0F24E01C1600021C0E90411AE
:103CE0008161704740F258610022C2F20001C1E9CF
:103CF0000420704710B50446FDF737FE2068E060E9
:103D000010BD00002DE9F04F85B00446FDF72DFEF3
:103D1000A06830B342F210074FF000084FF00109DD
:103D20000DF1040AEB4600250026C4F2020700BF8D
:103D3000CDF8048059462068CDF8109028440390AF
:103D40005046FDF743FD4FF0FF30FDF7E3F83868CC
:103D5000013605F5806520F002003860A0688642D3
:103D6000E6D3FDF79DFD05B0BDE8F08FFDF798BDEA
:103D700070B505460C460068E968814218D36E6844
:103D800001EB42033044834212D88AB1561E00BF71
:103D9000228801200023FDF78DFD10B9E86802306C
:103DA000E860002E08BF70BDE9680234013EEFE70D
:103DB00070BD80B540F27460C2F200000078D0B1EE
:103DC000FFF7E7FC40F2A000C2F20000007810B15B
:103DD000FCF7A4FB01E0FEF759FF40F2DC40C2F221
:103DE0000000017801310170C9B2142905D3002106
:103DF000017000F0A5F9FDF7E0FE40F23450C2F288
:103E0000000001680131016080BDB0B594B00024AC
:103E100001204FF480310225CDE90F44CDE90D4456
:103E20000494CDE902440A90CDE90B140E904FF4AE
:103E3000E010CDE9115113900AA8FEF7DBF80F202E
:103E40000221CDE905054FF480600794CDE908040F
:103E500005A8FDF7E5FF4FF400400195039001A888
:103E6000FDF760FF14B0B0BD41F200000022C4F2C3
:103E70000200CFF6FF02016841F0010101604168D4
:103E800011404FF6FF724160CFF6F66201681140B3
:103E90000160016821F480210160416821F4FE0184
:103EA00041604FF41F0181604EF608504FF00061F1
:103EB000CEF2000001607047704740F2FF7242F698
:103EC000004C0368C4F20002C4F2010C904205DC0D
:103ED000B0F1804F0AD040F2004203E0604505D0C7
:103EE00040F60002C4F2000290420BD180B523F4E8
:103EF0005C7E4B68CA6823F4407343EA0E031343A5
:103F0000BDE880404A6923F08003604542EA03022D
:103F100002608A68C2620A68826204BF0969CCF8DA
:103F2000301001214161704770B5026A22F0010230
:103F30000262026AD0F804E0D0F818C08C680B68FE
:103F400022F0020222432CF0730444EA030C42F6EE
:103F50000043C4F2010398420CD1CE68D1E9054573
:103F60002EF4407322F00C02234343EA050E26F0A0
:103F700004031A43C0F804E0C0F818C0496841635C
:103F8000026270BD70B5026A22F010020262026A1B
:103F9000D0F804E0D0F818C08C680B6822F020023A
:103FA00042EA04122CF4E64444EA032C42F60043AD
:103FB000C4F2010398420FD1CE68D1E905452EF431
:103FC000406322F0C00243EA840343EA850E6FF0A7
:103FD000400303EA06131A43C0F804E0C0F818C00F
:103FE00049688163026270BD70B5026A22F4807212
:103FF0000262026AD0F804E0D0F81CC08C680B683A
:1040000022F4007242EA04222CF0730444EA030C06
:1040100042F60043C4F2010398420FD1CE68D1E9C1
:1040200005452EF4405322F4406243EA041340F263
:10403000FF4443EA051E3302A3431A43C0F804E0D9
:10404000C0F81CC04968C163026270BDB0B5026AA5
:1040500022F480520262026AD0F804E0C5698B68DB
:104060000C6822F4005242EA033C42F6004325F475
:10407000E642C4F2010342EA0422984204D14B69A9
:104080002EF4804545EA831EC0F804E0C261496809
:104090000164C0F820C0B0BD40F20440C2F200008C
:1040A000FDF7ECB8FEE70000FCF72CF9FCF764FF25
:1040B0004FF47A70FDF776FBFFF782FBFFF79DFA6E
:1040C000FCF71EFAFEF7FCFFFEF745FD40F2044444
:1040D000C2F200042046FDF74FFAFCF726F940F241
:1040E0009860002540F223110822C2F20000C0E9C6
:1040F0000015C0E9025502610575FEF70AFDFEF7DD
:1041000016FD2046FDF7C6FA20460221FCF756FFB1
:1041100040F25C501021C2F20000017180F858504A
:10412000FEF7C1FCFEF78DFC40F24C54C2F20004D5
:1041300020680130206000F0DEF8FCF79FFAF7E716
:1041400040F2786040F2846C4CF6CD42C2F200003E
:10415000C2F2000CCCF6CC42016801310160DCF8FF
:1041600000100131A1FB0232CCF80010D30803EBA0
:104170008303A1EB430333B940F28063C2F200032F
:10418000186801301860100900EB8000A1EB800076
:1041900030B940F28860C2F2000002680132026069
:1041A00048F21F503223C5F2EB10A1FB00021009A8
:1041B00000FB131030B940F28C60C2F200000368BB
:1041C000013303605009642200FB121030B940F241
:1041D0007C60C2F2000002680132026044F6D350F3
:1041E000C1F26200A1FB000290094FF47A7200FB59
:1041F000121000B170470020CCF80000704700009A
:10420000FDF7E8FCFFF701FEFFF74EFFFEE770B594
:1042100040F2F85040F2280140F2C44540F290626A
:10422000C2F20000C2F20001C2F20005C2F20002B6
:1042300000880880D5E904010B0A117010715370D1
:104240000B0C090E9370D170010A40F2B0635171EA
:10425000010C000EC2F20003917140F29861D0711E
:1042600040F20440C2F20000C2F20001FCF7B9FEC5
:1042700040F600440028C4F2010406D0A4F5806092
:104280004FF480710022FDF78DFC20464021FDF7A0
:1042900084FC98B9287807280ED1FEF708FF202063
:1042A0002026FEF741FF2869FEF746FF40F25C50EA
:1042B000C2F20000067101E0FFF707F820468021F6
:1042C000FDF76BFC00B170BD2878072809D1FEF717
:1042D000EEFE20202024FEF727FF6869FEF72CFF62
:1042E00003E010201024FEF71FFF40F25C50C2F2E2
:1042F0000000047170BD40F28060C2F200000168ED
:1043000069B10139016040F2C440C2F20000007896
:10431000072804D080B5FEF715FFBDE8804040F2C5
:104320008860C2F20000016809B10139016040F201
:104330008C60C2F20000016809B10139016040F2ED
:104340007C60C2F20000016819B101390160FFF719
:104350005EBF704702E008C8121F08C1002AFAD1E8
:1043600070477047002001E001C1121F002AFBD1F5
:10437000704700000000000000000102030406076F
:1043800008090000190032004B0065007E0097000C
:10439000B000C900E200FB0014012D0146015F01DD
:1043A00078019101AA01C301DC01F5010E02270287
:1043B0004002590272028B02A302BC02D502EE0235
:1043C00006031F0338035003690381039A03B203F2
:1043D000CB03E303FC0314042C0444045D047504C0
:1043E0008D04A504BD04D504ED0405051D053405A3
:1043F0004C0564057C059305AB05C205DA05F1059E
:1044000008061F0637064E0665067C069306AA06B2
:10441000C106D706EE0605071B07320748075E07E9
:1044200075078B07A107B707CD07E307F9070E0844
:1044300024083A084F0865087A088F08A508BA08C2
:10444000CF08E408F8080D09220937094B095F096C
:10445000740988099C09B009C409D809EC09FF0945
:10446000130A260A3A0A4D0A600A730A860A990A4A
:10447000AC0ABF0AD10AE40AF60A080B1B0B2D0B83
:104480003E0B500B620B740B850B970BA80BB90BF3
:10449000CA0BDB0BEC0BFC0B0D0C1E0C2E0C3E0C9C
:1044A0004E0C5E0C6E0C7E0C8E0C9D0CAC0CBC0C81
:1044B000CB0CDA0CE90CF80C060D150D230D320DA2
:1044C000400D4E0D5C0D690D770D850D920D9F0D04
:1044D000AC0DB90DC60DD30DDF0DEC0DF80D040EAE
:1044E000100E1C0E280E340E3F0E4B0E560E610E93
:1044F0006C0E770E810E8C0E960EA10EAB0EB50EC5
:10450000BF0EC80ED20EDB0EE40EEE0EF70EFF0E3F
:10451000080F110F190F210F290F310F390F410FFC
:10452000480F500F570F5E0F650F6C0F720F790F0A
:104530007F0F850F8B0F910F970F9C0FA20FA70F67
:10454000AC0FB10FB60FBB0FBF0FC40FC80FCC0F0E
:10455000D00FD40FD70FDB0FDE0FE10FE40FE70F03
:10456000EA0FEC0FEF0FF10FF30FF50FF70FF80F46
:10457000FA0FFB0FFC0FFD0FFE0FFF0FFF0F0010D8
:104580000010001000100010FF0FFF0FFE0FFD0FB6
:10459000FC0FFB0FFA0FF80FF70FF50FF30FF10FEA
:1045A000EF0FEC0FEA0FE70FE40FE10FDE0FDB0F69
:1045B000D70FD40FD00FCC0FC80FC40FBF0FBB0F36
:1045C000B60FB10FAC0FA70FA20F9C0F970F910F53
:1045D0008B0F850F7F0F790F720F6C0F650F5E0FBA
:1045E000570F500F480F410F390F310F290F210F6F
:1045F000190F110F080FFF0EF70EEE0EE40EDB0E73
:10460000D20EC80EBF0EB50EAB0EA10E960E8C0EBE
:10461000810E770E6C0E610E560E4B0E3F0E340E51
:10462000280E1C0E100E040EF80DEC0DDF0DD30D30
:10463000C60DB90DAC0D9F0D920D850D770D690D51
:104640005C0D4E0D400D320D230D150D060DF80CB1
:10465000E90CDA0CCB0CBC0CAC0C9D0C8E0C7E0C5B
:104660006E0C5E0C4E0C3E0C2E0C1E0C0D0CFC0B3E
:10467000EC0BDB0BCA0BB90BA80B970B850B740B60
:10468000620B500B3E0B2D0B1B0B080BF60AE40ABA
:10469000D10ABF0AAC0A990A860A730A600A4D0A4F
:1046A0003A0A260A130AFF09EC09D809C409B00915
:1046B0009C09880974095F094B09370922090D090A
:1046C000F808E408CF08BA08A5088F087A08650832
:1046D0004F083A0824080E08F907E307CD07B70783
:1046E000A1078B0775075E07480732071B070507F9
:1046F000EE06D706C106AA0693067C0665064E0698
:1047000037061F060806F105DA05C205AB05930555
:104710007C0564054C0534051D050505ED04D5042F
:10472000BD04A5048D0475045D0444042C04140424
:10473000FC03E303CB03B2039A0381036903500331
:1047400038031F030603EE02D502BC02A3028B024C
:1047500072025902400227020E02F501DC01C30178
:10476000AA01910178015F0146012D011401FB00AE
:10477000E200C900B00097007E0065004B003200E7
:1047800019000000E7FFCEFFB5FF9BFF82FF69FF26
:1047900050FF37FF1EFF05FFECFED3FEBAFEA1FE61
:1047A00088FE6FFE56FE3DFE24FE0BFEF2FDD9FD97
:1047B000C0FDA7FD8EFD75FD5DFD44FD2BFD12FDC9
:1047C000FAFCE1FCC8FCB0FC97FC7FFC66FC4EFCEC
:1047D00035FC1DFC04FCECFBD4FBBCFBA3FB8BFBFE
:1047E00073FB5BFB43FB2BFB13FBFBFAE3FACCFAFB
:1047F000B4FA9CFA84FA6DFA55FA3EFA26FA0FFAE0
:10480000F8F9E1F9C9F9B2F99BF984F96DF956F9AA
:104810003FF929F912F9FBF8E5F8CEF8B8F8A2F853
:104820008BF875F85FF849F833F81DF807F8F2F7D8
:10483000DCF7C6F7B1F79BF786F771F75BF746F73A
:1048400031F71CF708F7F3F6DEF6C9F6B5F6A1F670
:104850008CF678F664F650F63CF628F614F601F677
:10486000EDF5DAF5C6F5B3F5A0F58DF57AF567F552
:1048700054F541F52FF51CF50AF5F8F4E5F4D3F4F9
:10488000C2F4B0F49EF48CF47BF469F458F447F469
:1048900036F425F414F404F4F3F3E2F3D2F3C2F3A0
:1048A000B2F3A2F392F382F372F363F354F344F39B
:1048B00035F326F317F308F3FAF2EBF2DDF2CEF25A
:1048C000C0F2B2F2A4F297F289F27BF26EF261F2D8
:1048D00054F247F23AF22DF221F214F208F2FCF10E
:1048E000F0F1E4F1D8F1CCF1C1F1B5F1AAF19FF109
:1048F00094F189F17FF174F16AF15FF155F14BF1B7
:1049000041F138F12EF125F11CF112F109F101F11B
:10491000F8F0EFF0E7F0DFF0D7F0CFF0C7F0BFF03E
:10492000B8F0B0F0A9F0A2F09BF094F08EF087F010
:1049300081F07BF075F06FF069F064F05EF059F093
:1049400054F04FF04AF045F041F03CF038F034F0CC
:1049500030F02CF029F025F022F01FF01CF019F0B7
:1049600016F014F011F00FF00DF00BF009F008F054
:1049700006F005F004F003F002F001F001F000F0A1
:1049800000F000F000F000F001F001F002F003F0A0
:1049900004F005F006F008F009F00BF00DF00FF050
:1049A00011F014F016F019F01CF01FF022F025F0B1
:1049B00029F02CF030F034F038F03CF041F045F0C4
:1049C0004AF04FF054F059F05EF064F069F06FF087
:1049D00075F07BF081F087F08EF094F09BF0A2F000
:1049E000A9F0B0F0B8F0BFF0C7F0CFF0D7F0DFF02B
:1049F000E7F0EFF0F8F001F109F112F11CF125F107
:104A00002EF138F141F14BF155F15FF16AF174F19A
:104A10007FF189F194F19FF1AAF1B5F1C1F1CCF1E7
:104A2000D8F1E4F1F0F1FCF108F214F221F22DF2E8
:104A30003AF247F254F261F26EF27BF289F297F2A7
:104A4000A4F2B2F2C0F2CEF2DDF2EBF2FAF208F327
:104A500017F326F335F344F354F363F372F382F35D
:104A600092F3A2F3B2F3C2F3D2F3E2F3F3F304F45A
:104A700014F425F436F447F458F469F47BF48CF418
:104A80009EF4B0F4C2F4D3F4E5F4F8F40AF51CF59E
:104A90002FF541F554F567F57AF58DF5A0F5B3F5E9
:104AA000C6F5DAF5EDF501F614F628F63CF650F603
:104AB00064F678F68CF6A1F6B5F6C9F6DEF6F3F6EE
:104AC00008F71CF731F746F75BF771F786F79BF7A6
:104AD000B1F7C6F7DCF7F2F707F81DF833F849F835
:104AE0005FF875F88BF8A2F8B8F8CEF8E5F8FBF89F
:104AF00012F929F93FF956F96DF984F99BF9B2F9E0
:104B0000C9F9E1F9F8F90FFA26FA3EFA55FA6DFA01
:104B100084FA9CFAB4FACCFAE3FAFBFA13FB2BFB07
:104B200043FB5BFB73FB8BFBA3FBBCFBD4FBECFBF2
:104B300004FC1DFC35FC4EFC66FC7FFC97FCB0FCC5
:104B4000C8FCE1FCFAFC12FD2BFD44FD5DFD75FD8A
:104B50008EFDA7FDC0FDD9FDF2FD0BFE24FE3DFE3E
:104B600056FE6FFE88FEA1FEBAFED3FEECFE05FFE8
:104B70001EFF37FF50FF69FF82FF9BFFB5FFCEFF8F
:104B8000E7FF0000A84B0008000000202000000004
:104B900054430008C84B000820000020980E000075
:104BA0006443000800000000007C00080024F400BA
:104BB000007C0008008000002000000000000000D1
:084BC0000100000010000000DC
:04000005080000ED02
:00000001FF
